:020000040802F0
:10000000906A0010F1040208F9040208FB040208D7
:10001000FD040208FF0402080105020800000000B8
:10002000000000000000000000000000C103020802
:10003000050502080000000079040208DD0402083A
:100040000B0502080B0502080B0502080B05020848
:100050000B0502080B0502080B0502080B05020838
:100060000B0502080B0502080B0502080B05020828
:100070000B0502080B0502080B0502080B05020818
:100080000B0502080B050208313602085F3E020824
:10009000D93D02080B050208593E02080B0502086B
:1000A000DDAC02080B05020831AD02080B050208A1
:1000B0000B0502080B0502080B0502080B050208D8
:1000C0000B0502080B0502080B05020875A90208BA
:1000D0007BA902080B0502080B0502080B050208A4
:1000E000414702080B0502080B0502080B05020830
:1000F0000B050208A9AD02080B0502080B05020852
:100100000B0502080B0502080B05020881A902086D
:100110000B0502080B05020859AD020881AD020863
:100120000B0502080B0502080B0502080B05020867
:100130000B050208D54502080B050208EB3E020834
:10014000653E02080B050208E53E02080B050208A1
:100150000B0502080B0502080B0502080B05020837
:100160000B0502080B0502080B0502080B05020827
:100170000B0502080B0502080B0502080B05020817
:100180000B0502080B05020800F002F800F02AF83F
:100190000AA090E8000C82448344AAF10107DA45E2
:1001A00001D100F01FF8AFF2090EBAE80F0013F00A
:1001B000010F18BFFB1A43F001031847A01B0400EE
:1001C000D01B04000023002400250026103A28BF7D
:1001D00078C1FBD8520728BF30C148BF0B607047B9
:1001E00010B510BD02F083FD114600F08CF827F029
:1001F00069FA02F0A9FD0000004870472C4A00107F
:1002000002026726E3A7366200000208000006002B
:1002100000000020C0FF01000000000000000000FE
:100220000761454D533030616C6C000000000000E8
:1002300001000100010000004558540000000000CA
:100240004F637420333020323031392031383A3323
:10025000333A3037000000000000000000000000CA
:10026000000000000000000000000000000000008E
:10027000000000000000000000000000000000007E
:100280000A444FF0000C10F8013B13F0070408BFBC
:1002900010F8014B1D1108BF10F8015B641E05D05A
:1002A00010F8016B641E01F8016BF9D113F0080F0F
:1002B0001EBF10F8014BAD1C0C1B09D16D1E58BFA1
:1002C00001F801CBFAD505E014F8016B01F8016BD8
:1002D0006D1EF9D59142D6D37047662939F0E28078
:1002E00003681B0A28BF41F08001642901F0648281
:1002F000782901F0C582F82901F0D082732902F033
:10030000BE81002070471FB539F0C7F89DE8030093
:1003100001F098FE02F0FCF904000020002138F002
:1003200021FD401C60600020002138F005FDE060E8
:100330001FBD03B4FFF754FF03BC02F03BFD0000F8
:10034000004870470020000000487047C0FF0100CF
:10035000401EFDD17047000080F309887047EFF31D
:1003600009807047684680F3098804480078C00710
:1003700014BF0220032080F314887047501C001023
:10038000DFF818C0EFF305831B0618BF6047EFF3D3
:100390001483DB0708BF604700DF7047F997040844
:1003A000DFF818C0EFF305831B0618BF6047EFF3B3
:1003B0001483DB0708BF604700DF704771980408AB
:1003C000EFF30980816911F8021CE1BB90E80F107E
:1003D00010B5E047BDE81040EFF3098C8CE807004A
:1003E000214B93E80600914208BF704741B91EF0C7
:1003F000100F16D11D49086820F00100086010E0B8
:100400001EF0100F06BF2CED108A0120002081F88D
:1004100038002CE9F00FC1F83CC00CB42AF0AAFE59
:100420000CBC1A60D2F83CC0BCE8F00F92F838005F
:1004300000280EBF6FF0020E6FF0120EBCEC108A97
:100440008CF30988704710B5094A1268914209D89F
:10045000084C54F8214090E80F10A047EFF3098CA6
:100460008CE80F0010BD0000F01A001034EF00E01F
:10047000943502089435020810B52AF075FDBDE8E0
:100480001040154B93E80600914208BF7047EFF308
:10049000098C1EF0100F06BF2CED108A01200020E1
:1004A00081F838002CE9F00FC1F83CC00CB42AF0F8
:1004B00061FE0CBC1A60D2F83CC0BCE8F00F92F8A8
:1004C000380000280EBF6FF0020E6FF0120EBCEC69
:1004D000108A8CF309887047F01A001010B52AF0C2
:1004E0006DFECCE710B527F087FF2AF067FEC6E760
:1004F0000948804709480047FEE7FEE7FEE7FEE7B8
:10050000FEE7FEE7FEE7FEE7FEE7FEE704480549F3
:10051000054A064B7047000075AC020889010208C5
:1005200000000020906A0010C0FF0120904A0010D7
:10053000F7B514466E46002914BF012500258848EA
:100540000078E8B100F07AFA294630460BF0E2FB79
:10055000C5B2012C0DD183480099834CC0F82610F8
:10056000014620684022001D01F0C4FB206800F015
:1005700040FE00F06DFA012D02BF002003B0F0BD77
:100580004FF0FF3003B0F0BD38B56C460090002945
:1005900014BF012500257248007860B100F04EFAC2
:1005A000294620460BF0B6FBC4B200F051FA012CEC
:1005B00004BF002038BD4FF0FF3038BD2DE9F347B0
:1005C00067480D46E94600784FF0FF37F0B1674EB7
:1005D0003088D8B100F032FA30880024002888BF73
:1005E000DFF88C810FD900BFC4EBC40008EB4000DA
:1005F000042249460A3001F051FB60B1601CC4B2CC
:1006000030888442F0D300F023FA11E002B04FF0BA
:10061000FF30BDE8F087C4EBC40008EB4000041DC8
:1006200000F016FA00271DB120682860A088A88075
:1006300002B03846BDE8F0872DE9F1434848E84666
:100640004FF0FF360078E8B1484D2888D0B100F06F
:10065000F5F928880024002888BF454F0FD900BF2E
:10066000C4EBC40007EB4000042241460A3001F00D
:1006700015FB58B1601CC4B228888442F0D300F046
:10068000E7F919E04FF0FF30BDE8F883C4EBC40090
:1006900007EB4000041D00F0DBF906223549204637
:1006A00001F0FCFA58B106223349204601F0F6FA6F
:1006B000002818BF002602D03046BDE8F8834FF06E
:1006C000FF36F9E7002070470020704710B5254C31
:1006D000FF2120460BF051F928484FF4C1634FF039
:1006E000080C0169C4F80610828A6281A3814FF464
:1006F0008073E381A4F810C04FF0060C84F812C098
:100700004FF0040C84F813C0A382C4F8161062835F
:100710008069E06104F120000BF02BF90020C4F89F
:100720002600C4F82A00C4F82E00C4F83200C4F829
:1007300036000D4AC4F83A00E08704F14001116028
:100740002A220A80488010BD90F82010202984BFFA
:100750004FF0FF30704710B500F0F5FC002010BDE1
:10076000E019001090290010D8190010AA1A0010E2
:10077000582D0010BCBF0508C2BF0508182A00107C
:10078000B84A126F02B11047FEE770B50C46B8B117
:100790000546FFF797FF0646284600F091FC064401
:1007A000284600F029FA0644284600F06CFA064470
:1007B000284600F067FC3044002C18BF206070BD54
:1007C000E120A84AA8A1126F12B19047002070BD85
:1007D000FEE710B5A34C606F002808BF10BD80472E
:1007E0000028AB49086018BF10BDE020226FA9A106
:1007F00012B1BDE810401047FEE770B5A44D416F3F
:1008000081B1816F974C00291FBFC16F0029D0F8BB
:10081000800000280DD0606F002818D08047286025
:1008200080B114E000218167C167C0F880102960A1
:100830000DE0226FE320A7A11AB190474FF0FF30DF
:1008400070BDFEE7226FE02092A112B19047002018
:1008500070BDFEE710B5D821824801F06BFB8C49D2
:100860000020086010BD2DE9F0417E4C884605004F
:1008700007D02A6F2267287850B1E420A0A132B1B6
:100880002EE0226FE120ABA1002A29D1FEE7FEE78E
:10089000B1480078012804D02846FFF755FF20B161
:1008A0001AE0E020ADA1DAB9FEE7D8216D4801F0E9
:1008B00041FB774F002628463E6000F01FFC58B9E8
:1008C000284600F09FF938B9284600F0E2F918B937
:1008D000284600F0DDFB40B1AA49226FE3205AB15F
:1008E00090474FF0FF30BDE8F08141462846FFF7C2
:1008F000EBFE002875D100E0FEE72846FFF7E2FE98
:1009000020F0030080444146284600F0DBFB00282D
:1009100067D1284600F0D4FB20F003008044414614
:10092000284600F06BF900285BD1284600F064F9F6
:1009300020F0030080444146284600F0A6F9002834
:100940004FD1284600F09FF920F0030000EB08018A
:10095000284600F099FB002843D1284600F092FB7E
:10096000D82229463F4801F04CFA3E4D2846FFF771
:10097000ADFE002835D1686F60B1A96F00291FBF97
:10098000E96F0029D5F88010002909D08047386028
:1009900068B111E0AE67EE67C5F880603E600BE0BD
:1009A000226FE3204BA10AB190471AE0FEE7226FC5
:1009B000E02038A12AB19047284600F085FB80B995
:1009C00000E0FEE7284600F01BF950B9284600F089
:1009D0005EF930B9284600F059FB002808BFBDE891
:1009E000F0814FF0FF30BDE8F08170B504000D4696
:1009F00016D0FFF767FE0646204600F061FB06446E
:100A0000204600F0F9F80644204600F03CF9064480
:100A1000204600F037FB3044002D18BF286070BD21
:100A2000E120104A10A1126F12B19047002070BD52
:100A3000FEE718E700207047002070471448006860
:100A4000002808BF7047074AD2F88010926F1047FD
:100A50000F480068002808BF70470249C96F08475F
:100A600000687047182A00106970616C5F626173DA
:100A7000655F6D656D6F72795F67657473697A65BF
:100A80002829206E65656473206120636667000015
:100A9000DC1900106970616C5F626173655F686981
:100AA000645F7468726561647361666574795F69B7
:100AB0006E697428293A2063616E6E6F7420616CD0
:100AC0006C6F6361746520746865206D75746578FA
:100AD000000000006970616C5F626173655F696E40
:100AE000697469616C6973652829206E6565647332
:100AF000206F73616C2066756E6374696F6E73002E
:100B00006970616C5F626173655F696E6974696168
:100B10006C69736528293A20756E737570706F72F1
:100B2000746564207463702F697020737461636BE3
:100B3000000000006970616C5F626173655F696EDF
:100B4000697469616C69736528293A206D697373EA
:100B5000696E672063666700E01900106970616C58
:100B60005F626173655F696E697469616C69736501
:100B700028293A20616C726561647920737461720E
:100B8000746564003C1C060831B524486C46007846
:100B900038B1234890F82C0018B19DF80000EF28D8
:100BA00002D04FF0FF3038BDFFF748FF204625F058
:100BB0007BFF002814BF00244FF0FF34FFF748FFED
:100BC000204638BD31B515486C46007888B11448C8
:100BD00090F82C0068B1FFF731FF204625F08CFF1C
:100BE00000280CBF4FF0FF340024FFF731FF2046F0
:100BF00038BD4FF0FF3038BD0020704700207047EF
:100C00000020704790F82D10062984BF4FF0FF3068
:100C1000704710B500F019FB002010BDE01900105E
:100C2000182A0010224810B5406848B121480178C0
:100C300001290CD00121017026F012FA002010BD0C
:100C40001DA1E120FFF79CFD4FF0FF3010BD24A156
:100C5000E020FFF795FD4FF0FF3010BD10B5FFF716
:100C6000EDFE26F043FDBDE81040FFF7F1BE10B5E4
:100C7000FFF7E4FE37F042FEBDE81040FFF7E8BEA4
:100C80000B484068704700207047002070470020E4
:100C900070470189B1F5C05F84BF4FF0FF307047E6
:100CA00010B50021034A117000F027FB002010BD91
:100CB000182A0010E01900106970616C5F73797375
:100CC0005F737461727428293A206D697373696E59
:100CD0006720636F6E66696775726174696F6E0015
:100CE0006970616C5F7379735F73746172742829C2
:100CF0003A2063616E6E6F74207374617274206148
:100D00006761696E0000000008B1062801D9002063
:100D10007047F0B515460A46E64900EB400085B03D
:100D200001EBC000A0F1180450F8080C0A9F1E4601
:100D300098B11046FFF794FE0346E06820B1984250
:100D400004BF2089A84208D10396ADF80870009529
:100D5000D4E904C002AA2146E04705B00020F0BD56
:100D60004107090EC0F3C00241EA0211C0F30012AC
:100D700010B541EAC201C0F3401041EA8004CE48F8
:100D80000078002808BF10BDFFF758FECB4A0121AC
:100D9000204637F0E3FDC0B1C64900EB400201EB4D
:100DA000C20404F8180C002024F8160C44F8140CA3
:100DB00024F8100C44F80C0C44F8080C44F8040C0B
:100DC000FFF746FEA4F1180010BDFFF741FE00201A
:100DD00010BD70B504001CBF2078002821D0FFF79B
:100DE0002DFE6088002518B1207837F099FD6580C8
:100DF000207837F015FE06462078AE4900EB40001B
:100E000001EBC00000F8185C2570658065602581E5
:100E1000E56025616561FFF71BFE002E1CBF002009
:100E200070BD4FF0FF3070BD70B515460E46040022
:100E30001DBF20780028002D4FF0FF3008BF70BD87
:100E4000FFF7FCFD608820B1207837F069FD0020B5
:100E500060809849002000BF00EB400201EBC20215
:100E60005288AA4210D0401CC0B20628F4D3207881
:100E7000294637F097FD10F0FF0F05D065806660BA
:100E8000FFF7E6FD002070BDFFF7E2FD4FF0FF30F9
:100E900070BD2DE9F04790460F46040019BF207839
:100EA00000284FF0FF30BDE8F087FFF7C7FD6088EE
:100EB00050BB207800264546002818BF002D2DD0B5
:100EC000FFF7BCFD60884FF0000920B1207837F0B3
:100ED00027FDA4F802907749002000BF00EB4002F4
:100EE00001EBC2025288AA4216D0401CC0B20628AA
:100EF000F4D32078294637F055FD10F0FF0F0BD0C2
:100F000065806660FFF7A4FDA4F80880E760FFF73E
:100F10009FFD0020BDE8F087FFF79AFDFFF798FDE1
:100F20004FF0FF30BDE8F08710B5040019BF2078FE
:100F300000284FF0FF3010BDFFF780FD002020811A
:100F4000E060FFF785FD002010BD2DE9FF4182B074
:100F500098460C46050004AF1CBF2878002828D00E
:100F60006888002818BF002C23D0606800281CBFA8
:100F7000208800281DD0FFF761FD208837F0E6FCAF
:100F800006001BD02288616800F0B4FE2088009023
:100F9000287833464246394637F05AFD00280CBFC0
:100FA0004FF0FF340024FFF753FD06B02046BDE8A4
:100FB000F08106B04FF0FF30BDE8F081FFF748FD4B
:100FC00006B04FF0FF30BDE8F0812DE9F04383B06B
:100FD0000C4605001CBF688800283CD0E868002843
:100FE0001CBF2889002836D0FFF728FDE86801904B
:100FF0002878B5F808900DF104084FF0FF36002866
:101000001CBF6888002820D0002C1FBF6068002803
:101010002088002819D0FFF711FD208837F096FCB2
:10102000070010D02288616800F064FE20880090DC
:1010300028783B464A46414637F00AFD00280CBF57
:101040004FF0FF360026FFF703FDFFF701FD03B069
:101050003046BDE8F08303B04FF0FF30BDE8F083C9
:10106000002812BF00294FF0FF30704770B51646B8
:101070000D460446FFF7E2FCC4E90456FFF7E8FC1E
:10108000002070BD0020704700207047002070478E
:1010900010B5044690F83000062884BF4FF0FF30AA
:1010A00010BD9021034800F045FF204600F08AF96A
:1010B000002010BDF02A0010E0190010090D0208F0
:1010C000002070470020704710B5D0F88C10002920
:1010D0001CBFD0F89010002908D0D0F89410002937
:1010E0001FBFD0F898000028002010BD06A14FF0C7
:1010F000E100FFF745FB4FF0FF3010BD10B500F0E9
:1011000095F8002010BD00006970616C5F6574681F
:101110005F6869645F696E697428293A206D697334
:1011200073696E67206574682066756E6374696F95
:101130006E730000A94890F82200012818BF70477C
:1011400000200AF009BF10B504464FF4E071A4482E
:1011500000F0F0FEA34894F82010C180A249626A12
:10116000B2FBF1F2028194F821200270A26AB2FB74
:10117000F1F14170002010BD9848D0F89C00002883
:1011800008BF7047004700291CBF002070471EF0B1
:10119000E7BF10B5954A84B09069D2E90812CDE94D
:1011A00002128E4A0090907A8DF8000090480190CB
:1011B000904890F803C0818883784FEA0C6441EA34
:1011C0001C214FEA134C44EA034341EA0C0490F813
:1011D00001C0007843EA0C2344EA1C611843CDE9BE
:1011E0000201D2F88C10684688477E49487104B0E5
:1011F00010BD7A49D1F89810084710B5774CD4F84B
:1012000090008047D4F88800002808BF10BDBDE8D2
:101210001040004710B5714CD4F88400002818BF66
:101220008047D4F89400BDE8104000476D4902693A
:101230004A61808A088300207047684991F82C1021
:10124000012918BF704728F0E5B9654A0021664BAF
:10125000C2F8C011C2F8C411C2F8C811C2F8CC114A
:10126000C2F8D011C2F8D411C2F8D811C2F8DC11FA
:10127000C2F8E01142685B49B3FBF2F290F82D002E
:10128000488192B24CF6CD405043800C88700020CB
:101290007047062806D2584901EB4011F030C0B221
:1012A000FFF76EBA55A1E020FFF76ABA10B525F036
:1012B00007FF4A4C94F82C00012808BF25F012FFC4
:1012C00094F82F00012808BF25F034FF94F822007D
:1012D000012818BF10BD0020BDE810400AF03CBE38
:1012E00010B529F0E7FF3D4890F82C00012818BF01
:1012F00010BDBDE810402AF035B82DE9F041384D59
:1013000000260446C5F8E461C5F8E861C5F8EC615B
:10131000C5F8F061C5F8F461C5F8F861C5F8FC617D
:10132000C5F80062C5F80462C5F80862C5F80C6229
:10133000C5F81062C5F81462C5F818624FF4C051C0
:1013400005F50870C5F81C6200F0F4FD05F5C057FE
:10135000C022C7F82862C7F82C62A169C5F8E41159
:10136000E169C5F8EC1105F5F271A8230A734B7316
:101370008E734FF0FE0C81F80FC00A744B748E749C
:1013800081F813C00A714B71184A8E7181F807C039
:10139000D2E90012C7E9881212480121124AC1702D
:1013A000218901616168B2FBF1F18181C681002070
:1013B000BDE8F081094991F82F10012918BF704745
:1013C00028F068B910B504464821124800F0B2FD73
:1013D000044894F830100171002010BD182A001044
:1013E000582D0010A41A001040420F00E0C005085C
:1013F000E8C00508B81A001008C10508756E6B6EC4
:101400006F776E2073797374656D206572726F7279
:10141000000000008847001070B5A0FB0140B4F147
:10142000805170F1000024BF002070BD204600F004
:101430007DFE05001CBF214600F05AFD284670BD08
:1014400070B516460D46041F002808BF70BD002E5B
:101450001CBF05F10C00AFF300802B465868002834
:1014600018BFA04238BF0346F8D31968CA18A24271
:1014700018BF5C6003D122681C46114419602168C2
:101480000A19824218BF606004D142686260006835
:1014900008442060002E1CBF05F10C00AFF3008053
:1014A00070BD10B5044600F0B0FD01682046BDE8EF
:1014B00010400122C4E70B3020F0070070472DE9EF
:1014C000F0410F460546041F00F09FFD0668F7B186
:1014D000384615B3FFF7EFFFB84205463CBF002082
:1014E000BDE8F08106F10C00AFF300802268AA424B
:1014F00038BF314615D3511B082931D3601900225A
:1015000040F8041B31462560FFF79AFF28E0284683
:10151000FFF7C7FF0020BDE8F081BDE8F04100F013
:1015200005BE4868002818BFA04238BF0146F8D35E
:10153000131983421BD103681A44954217D8531BD1
:10154000082B0AD343686219536023680068184463
:10155000401B106025604A6002E0226040684860DD
:1015600006F10C00AFF30080201DBDE8F0810022E1
:101570003146281F00F099FD05000AD02068211D82
:10158000021F284600F03DFC00223146201DFFF7D7
:1015900057FF06F10C00AFF300802846BDE8F0814C
:1015A00053EA020C00F069802DE9F04B4FF0000681
:1015B000002B1FBFB3FA83F503FA05F424FA05F6EE
:1015C0005E4012BF1643B2FA82F502FA05F4C5F185
:1015D00020051EBF22FA05FC44EA0C04203556EA19
:1015E000044C4FEA144418BF641C4FF000084FF03D
:1015F0000009904271EB030C39D3002919BFB1FAED
:1016000081F701FA07F6B0FA80F700FA07F6C7F19A
:1016100020071EBF20FA07FC46EA0C062037B6FB5F
:10162000F4FCA7EB0507103F07F01F0BCBF12006DA
:101630000CFA0BFB2CFA06F644BFB3460026202F0B
:10164000A4BF5E464FF0000B5BEA060C08BF4FF0EC
:10165000010B19EB0B09ABFB027C48EB0608C01B26
:1016600006FB02CC0BFB03CC71EB0C01C1E70B4674
:10167000024641464846BDE8F08B13B54FF00000E6
:101680004FF00001AFF30080BDE81C407047B2F19D
:1016900020030AD5C2F1200301FA02F120FA03F374
:1016A00000FA02F041EA0301704700FA03F14FF03B
:1016B000000070470FB41CB5084B06AA7B4469466E
:1016C0000090059800F0A9FF04460020694600F04C
:1016D000B7FF20461CBC5DF814FB0000810F000022
:1016E0000FB47CB50C0009AA009001D02044401E24
:1016F000084B7B4469460190089800F08EFF054630
:101700001CB10020694600F09BFF28467CBC5DF8B8
:1017100014FB0000550F000070B504468569006891
:10172000C10601D5302600E02026C00707D070BDD5
:10173000D4E9012130469047206A401C20626D1E8A
:10174000F6D570BD70B5044685690078C00707D12D
:1017500070BDD4E9012120209047206A401C2062FE
:101760006D1EF6D570BD70B50C460546012A05D034
:101770002878800600D5EA69002302E0012305E00D
:101780005B1C934202D2E05C0028F9D1A869E618FC
:10179000C01AA861286A184428622846FFF7BCFFCF
:1017A00004E0D5E9012114F8010B9047B442F8D3C5
:1017B0002846FFF7C7FF70BD2DE9F041064600241B
:1017C00010687529314616A510D0AFF300800028A7
:1017D00002DA404213A507E031688A0701D512A555
:1017E00002E0490704D511A5012401E0AFF3008010
:1017F00000210A2206F1240709E0B0FBF2FCB0FB4D
:10180000F2F302FB1C00303078541846491C0028C3
:10181000F3D123462A463046BDE8F04100F090BCA3
:10182000000000002D0000002B0000002000000040
:10183000F0B40D460188090502D51B4C7C4402E03A
:10184000194C7C440E34002100F1240608E002F01B
:101850000F071209E75D42EA03721B097754491C1E
:1018600052EA0307F3D1224604780023240704D563
:10187000702D02D009B102231132F0BC00F060BC1F
:1018800070B504460D4621461068AFF3008002464D
:1018900029462046BDE870400023C9E7D21D22F04A
:1018A0000703D3E90023C3E75AAF03002DE9F05F34
:1018B000894604464FF0000ADFF874B1FB44C0F8D3
:1018C00020A02046E1688847002874D0252806D04B
:1018D000D4E901219047206A401C2062F1E70026EC
:1018E0005F462046E16888472028054607DB312D02
:1018F00005D2781910F8200C08B10643F1E7B007BB
:1019000001D526F00406C4F81CA00027C4F818A0CE
:101910002A2D09D028460AF07EF838B304EB870850
:10192000303DC8F8185019E059F8041B204604EB64
:1019300087029161E1688847012F054618D1E06967
:10194000002820DA26F020061DE0D8F8180000EB69
:10195000800005EB40003038C8F818002046E168E8
:10196000884705460AF057F80028EED1012F0AD023
:101970002E2D08D12046E16888477F1C0546022F9E
:1019800046F02006C4DBA069002803DA404246F096
:101990000106A061F00701D026F010066C2D0BD0D7
:1019A000682D09D04C2D39D06A2D35D0742D35D005
:1019B0007A2D33D016E038E0E1682F46204688477C
:1019C000B842054609D16C2F26D04FF48060E168FB
:1019D000064320468847054604E06C2F1AD04FF492
:1019E000807006430DB3A5F14100192802D82035B7
:1019F00046F400664A462946204626604E46FEF7D3
:101A00006CFC80B101280BD0F61D26F0070000F118
:101A1000080956E74020E4E78020D8E70020D6E711
:101A200006F104094DE7284652E7206ABDE8F09F19
:101A300002AF03000FB400B58DB010A9099000915A
:101A40000B904FF0FF300A9000200C90064878442D
:101A50000690064878446A4607900F9909A800F056
:101A600027FE0DB05DF814FB7F0C0000970C000002
:101A70002DE9FF5F1D464FF0FF3B91464FF00008F8
:101A80005F46D5E90146A96901987F1C8847296A04
:101A9000824688470028F6D1BAF1FF3F0CD0002ECD
:101AA00024F4C06419DD600614D5BAF12B0F09D0F7
:101AB000BAF12D0F0ED103E0584604B0BDE8F09FF7
:101AC00044F48064A96901987F1C8847761E824689
:101AD000002E02DDBAF1300F03D0B9F1000F26D08D
:101AE00032E0A969761E01987F1C44F4007488478F
:101AF000002E824605DDBAF1780F06D0BAF1580FF4
:101B000003D0B9F1000F10D01EE0B9F1000F02D0E0
:101B1000B9F1100F18D1A969761E01987F1C24F421
:101B2000007488478246102002E0082000E00A2066
:101B3000814609E0A96908FB0908761E01987F1C07
:101B400044F4007488478246002E05DD494650461D
:101B500000F099FD0028EDDAE96901988847A005B1
:101B600002D46FF00100A8E7E00725D1600613D585
:101B7000600502D5C8F1000000E0404629680A1D52
:101B80002A600968220501D5087015E0220701D5F1
:101B9000088011E008600FE02868011D29600068D6
:101BA000210502D580F8008006E0210702D5A0F8C3
:101BB000008001E0C0F8008038467EE72DE9FF5F35
:101BC0004FF000089946144646469169D2E901A7AC
:101BD000DDF838B001988847054659EA0B0005D072
:101BE00009E0A1690198761C88470546216A2846C4
:101BF00088470028F5D1681C03D05FEACA7005D079
:101C000015E04FF0FF3004B0BDE8F09F2068011DE3
:101C10002160D0F800800AE05FEACA7001D108F8BC
:101C2000015BA169761C01987F1E88470546002F3D
:101C30001ADD681C18D0B9F1000F0DD0E81705EBBC
:101C4000D060421120F01F0059F822102A1A0120FA
:101C500090400142E0D107E0BBF1000FDCD1284603
:101C6000216A88470028D7D0E16901988847BBF1ED
:101C7000000F07D1002E05DD5FEACA7002D10021F6
:101C800088F80010A068B84203DDBBF1000F03D054
:101C900017B16FF00100B6E73046B4E740EA010340
:101CA00010B59B070FD1042A0DD310C808C9121F05
:101CB0009C42F8D020BA19BA884201D9012010BD3F
:101CC0004FF0FF3010BD1AB1D30703D0521C07E00C
:101CD000002010BD10F8013B11F8014B1B1B07D170
:101CE00010F8013B11F8014B1B1B01D1921EF1D1E1
:101CF000184610BD032A40F2308010F0030C00F0AB
:101D0000158011F8013BBCF1020F624498BF11F835
:101D100001CB00F8013B38BF11F8013BA2F10402EE
:101D200098BF00F801CB38BF00F8013B11F0030366
:101D300000F06780083AC0F0088051F8043B083A88
:101D400051F804CBA0E80810F5E7121D5CBF51F86C
:101D5000043B40F8043BAFF30080D20724BF11F8E6
:101D6000013B11F801CB48BF11F8012B24BF00F84B
:101D7000013B00F801CB48BF00F8012B7047431A24
:101D800028BF9A427FF6B6AF032A1044114440F2AE
:101D9000268010F0030F1EBF11F8013D521E00F8FF
:101DA000013D10F0030F7FF4F6AF11F0030300F0D4
:101DB0006D80083AC0F00B8051F8043D083A51F8A4
:101DC00004CD40F8043D40F804CDFFF7F3BF121DE9
:101DD0005CBF51F8043D40F8043DAFF30080D207EA
:101DE00024BF11F8013D11F801CD48BF11F8012CB5
:101DF00024BF00F8013D00F801CD48BF00F8012CD8
:101E0000704710B5203AC0F00B80B1E81850203A66
:101E1000A0E81850B1E81850A0E81850BFF4F5AF8A
:101E20005FEA027C24BFB1E81850A0E8185044BF14
:101E300018C918C0BDE810405FEA827C24BF51F881
:101E4000043B40F8043B08BF7047D20728BF31F875
:101E5000023B48BF11F8012B28BF20F8023B48BFC6
:101E600000F8012B7047431A28BF9A427FF6C9AF8A
:101E7000104410F0030F11441EBF11F8013D521E13
:101E800000F8013D10F0030F7FF4F6AF103AC0F0F8
:101E90000A8010B531E91850103A20E91850BFF403
:101EA000F9AFBDE81040530724BF31E9081020E91D
:101EB000081044BF51F8043D40F8043D12F0030FF0
:101EC00008BF7047D20728BF31F8023D48BF11F85C
:101ED000012C28BF20F8023D48BF00F8012C7047B4
:101EE00002F0FF0343EA032242EA024200F002B892
:101EF0004FF000020429C0F0128010F0030C00F033
:101F00001B80CCF1040CBCF1020F18BF00F8012BB0
:101F1000A8BF20F8022BA1EB0C0100F00DB85FEA7E
:101F2000C17C24BF00F8012B00F8012B48BF00F84A
:101F3000012B70474FF0000200B5134694469646B9
:101F4000203922BFA0E80C50A0E80C50B1F12001CC
:101F5000BFF4F7AF090728BFA0E80C5048BF0CC07A
:101F60005DF804EB890028BF40F8042B08BF7047D8
:101F700048BF20F8022B11F0804F18BF00F8012B4A
:101F8000704700004FF0013C50F8042B51F8043B1F
:101F90009A4221D1A2EB0C03934313EACC1317D13D
:101FA00050F8042B51F8043B9A4215D1A2EB0C03D4
:101FB000934313EACC130BD150F8042B51F8043B94
:101FC0009A4209D1A2EB0C03934313EACC13DBD062
:101FD0004FF00000704700BFD01A01BAB1FA81F18A
:101FE00001F0180122FA01F0CB40C1F12001DBB26F
:101FF000C0B2C01A2CFA01F3D11A914311EAC311ED
:10200000E6D1704770477047704710B5FEF7F4F897
:10201000083010BD704770477047704738B50446A8
:102020000A4600206946AFF30080002808BF38BD8B
:1020300002460099204600F079FB012038BD0120BE
:1020400000F04EBEF8B5AFF30080054600200C4608
:10205000102000BF0646A819A0420DD93246694695
:102060000020AFF30080070008BF00F039FE0098A1
:10207000A04218BF0546C419FFF7C7FF0560074611
:10208000F01D20F007004619284600F046FBB44238
:1020900008BFF8BDA21B31463868BDE8F84000F023
:1020A00045BB0B3020F0070070472DE9F041174683
:1020B0000E460446FFF7F5FFA042054633D9002F30
:1020C0001CBF06F10C00AFF3008030467468F4B119
:1020D0002168A94217D305F1080291423CBF61680B
:1020E000416007D3626861194A602268521B0A6026
:1020F00041602560002F1CBF06F10C00AFF300808B
:10210000201DBDE8F08120466468002CE0D12946FE
:102110003046FFF783FF0028D7D1002F1CBF06F100
:102120000C00AFF300800020BDE8F08110B504463C
:10213000FFF76BFF01682046BDE810400122B4E7BD
:102140002DE9F0470D4699469246044600F12408D1
:102150000168880604D5E06921F01001216000E0E3
:102160000120A84201DD471B00E00027A1697A1980
:1021700002EB0900081AA0612078C00602D42046AC
:10218000FFF7CAFA002608E0D4E901211AF8060090
:102190009047206A401C761C20624E45F4DB207874
:1021A000C0060AD52046FFF7B7FA06E0D4E90121B8
:1021B00030209047206A401C2062381EA7F101079A
:1021C000F4DC07E0D4E9012118F805009047206A03
:1021D000401C2062281EA5F10105F3DC2046FFF714
:1021E000B1FA2078000602D50220BDE8F087012070
:1021F000FBE770472DE9FF4F0C461E464FF0FF37B7
:102200008BB0D2E90001DDF860800A908A46C1F304
:102210000A5505B93D46002108464FF00000BAF1C5
:10222000000F00F4400005DA00EB80004FF440019D
:1022300001EA50004FEA9059B9F1010F00DDB946AB
:102240000A9850EA4A000ED044F61050A5F2FF3525
:1022500045432F14B8F1000F1ED07542291E1EDD14
:10226000C9F100021CE0B8F1010F4FF0000001D0ED
:10227000302103E0F24305E02154401CB042FBDB77
:1022800030460022002121540B99C1F80880C1E991
:1022900000200FB0BDE8F08FBD1B6D1CDEE74A4685
:1022A00000DA694206A800F0A9FC06AB93E8070033
:1022B00003AB83E8070050460A9900F0A2FD8DE8C1
:1022C0000700A0F500501F3800900398002D0ADD8C
:1022D00042F21F014A460844002303A903906846BE
:1022E00001F00BF809E0A0F500504A461F38002322
:1022F00003A90390684601F015F88DE80700000473
:10230000000C03D04FF0FF30410800E01046B8F158
:10231000000F03D00022009215461EE0751E05D462
:1023200000F023FA303262556D1EF9D5B346012212
:10233000084302D000227F1C04E02078302801D11D
:1023400000227F1E002A099784D01DE0112D07DA94
:1023500000F00BFA303262556D1C50EA0102F5D1E3
:10236000084302D00098C8B10EE00021681E05E0C5
:10237000235C625C63542254401E491C8142F7DB9B
:10238000AB46A81B401E0990002004F80B000B98D8
:10239000099AC0F80880C0E9002B7AE711264FF0AF
:1023A000000857E72DE9F04F88460446D21D22F079
:1023B000070191B0D1E90001CDE90A0109F0E5FA80
:1023C00002460B98C00F01D02D2007E0206881073E
:1023D00001D52B2002E0202101EAC000032A099048
:1023E00001D0072A05DB03464146204600F00CFADF
:1023F0000BE12078800601D5E06900E00620B8F105
:10240000650F814606D0B8F1660F18D0B8F1670F96
:1024100070D131E00020B9F1110F009001DB1123E0
:1024200001E009F101030AAA01A90CA8FFF7E2FEE5
:10243000DDE90C70002609F10105834647E0012023
:102440004B4600904FF000470AAA01A90CA8FFF7DD
:10245000D1FEDDE90DB00C995D46002610B909F1F9
:1024600001000D18B9EB050003D4C0F1FF3609F1E6
:102470000105A5EB09002BE0B9F1010F01DA4FF0DE
:1024800001090020B9F1110F0090484601DD112328
:1024900000E003460AAA01A90CA8FFF7ABFEDDE99C
:1024A0000C704D4600268346207800070AD4AB45C1
:1024B00000DA5D4601A8012D04DD411911F8011C67
:1024C000302907D04F4502DA17F1040F04DA012052
:1024D00082460FE06D1EEEE7002F02DCED1B3E444E
:1024E00003E0781CA84200DD7D1CB81B00F1010A46
:1024F0004FF000472078000703D4AA4501DB4FF0D6
:10250000FF3A0021B7F1004F0DF143088DF8431059
:1025100024D002202B23002F01DA7F422D230A2111
:10252000021EA0F1010000DC5FB197FBF1FC97FBFC
:10253000F1F201FB1C7C17460CF1300C08F801CDC0
:10254000EEE7A8F1010003702188090501D54521B6
:1025500000E06521A0F1010800F8011C09980FA90D
:10256000A1EB0807FF1D00B10120411901EBEA7042
:10257000A1693844081A401EA0612078C00602D420
:102580002046FFF7C9F8099828B1D4E901219047FE
:10259000206A401C20622078C00622D52046FFF722
:1025A000BBF81EE0002E04DBB34502DD01A8805D10
:1025B00000E03020D4E901219047206A401C2062CD
:1025C000761CAAF101005FEA000A0AD100F0A0F827
:1025D000C0680168405CD4E901219047206A401C32
:1025E0002062281EA5F10105DCDC07E0D4E9012109
:1025F00018F8010B9047206A401C2062381EA7F192
:102600000107F3DC2046FFF79DF8032011B041E6F7
:1026100001694A1C02610878704700B58FB0CDE9A6
:1026200001310021059105497944CDE90310114696
:102630006846FFF73BF90FB000BD0000E5FFFFFF64
:102640000A6802F8010B0A607047D1E900239A4238
:1026500002D2531C0B601070704710B5436913B160
:10266000AFF3008001E0FFF77EF8012010BD127883
:1026700000F124010A7000224A700122EDE711687E
:102680004FF0FF32E9E73A2800D2303820F020023C
:10269000412A01D3A2F13700884201D34FF0FF3025
:1026A00070470000026811441378016018467047B3
:1026B000D16005497944516104497944116200218E
:1026C0001161114600F0E0B8EDFFFFFF3701000097
:1026D000426842B1016811F8013B23B1521EC0E9C2
:1026E0000012184670470121C160881E7047426879
:1026F0005AB1C368016843B983688B4205D0491E4B
:10270000521CC0E90012002070474FF0FF307047A4
:1027100010B5FDF771FD203010BD00210160C0E94A
:1027200001100C3009F07EB91020704730B4044617
:102730008C464368002B18BF634538BF1846F8D352
:1027400003681844604507D0C81C20F0070000F15A
:10275000040CACEB0100121A2146CCF8002030BC6E
:1027600000220CF10400FEF76BBE30B5B0F10A0296
:102770004FEA900E71F100034EEA817EB0EB0E003D
:1027800061EB91014FEA101E4EEA017E10EB0E0044
:1027900041EB11114FEA102E4EEA016E10EB0E00C4
:1027A00041EB11214FEA104E4EEA014E10EB0E00A4
:1027B00041EB1141401841F100014FEAD00040EADD
:1027C00041704FEAD10110EB80054FEA810444EAE1
:1027D000907444EB01046D1944EB0404521BA341B3
:1027E0004FF0000348BF0A3200D530BD401C41F114
:1027F000000130BD10B5044600F09EFA0068005D8F
:1028000000F0010010BD00002DE9F0411F46044614
:1028100003260168072A01F4006004DB08B116A54D
:1028200005E016A503E008B115A500E015A521F007
:1028300010002060A069C01EA0610FB1401EA06101
:102840002046FEF769FF4FB1D4E901213846904791
:10285000206A401C2062C01C206206E0206AFAE761
:10286000D4E9012115F8010B9047761EF8D22046D5
:10287000FEF768FFBDE8F0814E414E006E616E00CC
:10288000494E4600696E66002DE9F34F4FF0000A8D
:102890000C4656468DB001200C9001F10C000B90B7
:1028A00062690B9801219047051E2DD0252D2CD053
:1028B000216A8847C0B162690B9801219047216A5B
:1028C00088470028F7D16269411E0B98904700E0C5
:1028D000761CA1690D988847216A88470028F7D19E
:1028E000E1690D988847DBE7A1690D988847A84200
:1028F000074601D1761CD3E7E1690D9888477F1C14
:1029000002D1BAF1000F6FD06BE162690B9800271A
:102910003D46394690472A2804D162690B98012127
:1029200090470125DFF8D08262690B98012190471A
:10293000A0F130010A290AD24745E5DC07EB8701FF
:1029400000EB4107303FDFD445F01005ECE7E90626
:1029500001D46FF000476C280AD04C2814D06828A6
:1029600015D06A280DD074281CD07A281AD01DE002
:1029700062690B98012190476C2802D045F004054C
:1029800014E045F002050DE045F020050AE062691B
:102990000B9801219047682802D045F0080505E012
:1029A00045F4006562690B9801219047C4E901571D
:1029B00065283DD019DC58287AD00CDC452837D062
:1029C00004DC252826D041289ED131E046282FD08E
:1029D000472899D12CE05B2877D0612828D063283C
:1029E0007CD0642823D15AE0F6E06F2848D008DC78
:1029F00066281DD067281BD0692821D06E2816D1E3
:102A000027E0702845D0732868D0752847D07828EB
:102A10000DD14DE0A1690D988847252805463FF462
:102A200069AFE1690D9888476D1C3FF46AAFD8E043
:102A30000D9923466A466FF00100AFF30080C5E0B0
:102A400045F0400023464FF000026060A80736D4EE
:102A50003EE0E8077FF447AF2068011D2160006871
:102A6000290501D506701BE7290701D5068017E760
:102A7000A90703D5F117C0E9006111E706600FE768
:102A800045F0400023464FF008026060A80716D4C6
:102A90001EE040F60E0125EA0100606016E045F0F8
:102AA000400023464FF00A026060A80707D40FE0F9
:102AB00045F040006060A80708D5234610220D9914
:102AC0006FF00100AFF3008080E007E010222346A2
:102AD0000D996FF00100FEF7CBFF77E04FF0000992
:102AE00063284F46C8464B46CB4602D05B2806D0EB
:102AF00038E0E80601D40120A060012732E06269D5
:102B0000D4F80CB00B98012190475E2807D14FF004
:102B1000010949466269D4F80CB00B9890472169C5
:102B200039B900210A4603AB43F82120491C082982
:102B3000FADBD8B3216949B308F1010862690B983F
:102B4000012190475D28F4D1B9F1000F09D0002090
:102B500003A951F82020D24341F82020401C082826
:102B6000F7DB03AB2069002820794FEA40701ED0C4
:102B70005B462246CDF80080CDE901970D990028EB
:102B80006FF0010020DAAFF300801FE0C11703AA45
:102B900000EBD1614B1121F01F0102EB8302411ABE
:102BA00013680120884003431360C7E719E00D99BB
:102BB000224600286FF00100009702DAAFF3008090
:102BC00004E0FEF7FBFF01E0AFF3008000280ADA23
:102BD000401C06D10C9820B14FF0FF300FB0BDE87B
:102BE000F08F5046FAE7E90701D10AF1010A0644DD
:102BF00000200C9054E60000CCCCCC0C2DE9F04722
:102C0000814616468AB0354878440DC88DE80D00D7
:102C100032487844801C03AC0DC884E80D0041F6AE
:102C20009B300844372190FBF1F290FBF1F5A5F1C0
:102C3000800501FB12041B3C02D56442012000E028
:102C40000020DFF898A080460027FA44AAF1BE0AC7
:102C50000EE0E0070AD03246684607EB4701012341
:102C60000AEB810100F05EFB8DE8070064107F1C19
:102C7000002CEED1194F7F44AE3F19E0E80715D084
:102C800007EB04100DF1180A90E80E008AE80E0018
:102C9000C068F04201D1981908903246012306A974
:102CA00003A800F03FFB03AB83E807006D10641C32
:102CB000002DE3D14FF0010332466946B8F1000F11
:102CC00003A802D000F019FB01E000F02BFBC9E9DA
:102CD0000001C9F808200AB0BDE8F087449C030051
:102CE00010B500F03FF8BDE8104000F036B875466A
:102CF000FDF782FAAE4605006946534620F007000C
:102D0000854618B020B5FDF701FCBDE820404FF026
:102D100000064FF000074FF000084FF0000B21F0C5
:102D20000701AC46ACE8C009ACE8C009ACE8C00992
:102D3000ACE8C0098D46704710B5FFF7E9FC001DEF
:102D400010BD00BF2160030010B50446AFF3008042
:102D50002046BDE81040FDF7ECBA002801D000F095
:102D600029B8704710B5012805D0002103A000F054
:102D700028F8012010BD09A1F8E700005349475287
:102D8000544D454D3A204F7574206F66206865613B
:102D900070206D656D6F7279000000003A20486503
:102DA0006170206D656D6F727920636F72727570DE
:102DB0007465640001491820ABBEFEE726000200DE
:102DC000704770B505460C460A2000E06D1C00F007
:102DD00011F835B128780028F8D102E0641C00F021
:102DE00009F814B120780028F8D1BDE870400A2015
:102DF000AFF3008008B569468DF800000320ABBE34
:102E000008BD5FEA400C08BF91F0000F4FEA8C2329
:102E10004FEAC12243EA51514FEA1C5018BF00F556
:102E2000F0404FEA300018BF41F000415FEA6C5CAF
:102E300000F02980BCF1FF3F08BF40F080407047A0
:102E4000130C06BF12044FF0100C4FF0000C130EC1
:102E500004BF12020CF1080C130F04BF12010CF195
:102E6000040C930F04BF92000CF1020CD30F04BFAB
:102E700052000CF1010C11464FF00002A0F11F00AE
:102E8000A0EB0C00704711F0004F08BF704731F005
:102E900000413FF4D5AF0B0C06BF09044FF0100CF6
:102EA0004FF0000C0B0E04BF09020CF1080C0B0FC5
:102EB00004BF09010CF1040C8B0F04BF89000CF155
:102EC000020CCB0F04BF49000CF1010CCCF1200324
:102ED000A0EB0C0022FA03F302FA0CF241EA030120
:102EE00000F10100704720F07F4C80EA030023F0DE
:102EF0007F47ACEB070303F57C5300F0004003F180
:102F0000FF032DE980494FEA154B09B44FEA1443FA
:102F100025EA0B4E24EA03480FF2042606EB13279A
:102F200049083E785FEA320203FB0667C7F50007EF
:102F300007FB06F64FEA54374FEAD64606F102067B
:102F400007FB066CCCF1005C4FEA1C472CEA074CEF
:102F500007FB06F40CFB06F504EB15464FEA961644
:102F600034BF00204FF000404FEAD13706FB07FC8A
:102F70004FEA1C4C0CFB0BF7D21B03FB0CF761EB6D
:102F800007010CFB0EF7B0EB074072EB17420CFB8E
:102F900008F734BFA2EB0742B2EB074261EB1741DF
:102FA0004FEA0C444FEA910706FB07FC4FEA1C4C22
:102FB0000CFB0BF7B0EBC74072EB573203FB0CF77F
:102FC00034BFA2EBC742B2EBC74261EB57310CFBF7
:102FD0000EF7B0EBC70072EB57720CFB08F734BF6B
:102FE000A2EBC702B2EBC70261EB5771039F4FEA36
:102FF000816141EA921104EBCC044FEAD1374FEAE8
:10300000826206FB07FC42EA90124FEA80604FEAB8
:103010001C4C0CFB0BF7D21B03FB0CF761EB0701FD
:103020000CFB0EF7B0EB074072EB17420CFB08F7F6
:1030300034BFA2EB0742B2EB074261EB17414FEA04
:103040008C554FEA910704EB9C2406FB07FC4FEAE2
:103050001C4C0CFB0BF7B0EBC74072EB573203FB79
:103060000CF734BFA2EBC742B2EBC74261EB57315A
:103070000CFB0EF7B0EBC70072EB57720CFB08F7B6
:1030800034BFA2EBC702B2EBC70261EB577115EB7D
:103090004C254FEA816141EA92114FEA82624FEA80
:1030A000D13742EA901206FB07FC44F100044FEAD4
:1030B00080604FEA1C4C0CFB0BF7D21B03FB0CF798
:1030C00061EB07010CFB0EF7B0EB074072EB174208
:1030D0000CFB08F734BFA2EB0742B2EB074261EBEF
:1030E000174115EB1C154FEA813141EA92414FEA35
:1030F000823242EA90424FEA80304FEA0C7644F145
:10310000000448EA03434EEA0B484FF0000EB2EBCE
:10311000080C71EB030724BF624639464EEB0E0ED6
:103120004FF0000B0018524149414BEB0B0BB2EB37
:10313000080C71EB03077BF1000B24BF6246394694
:103140004EEB0E0E4FF0000B0018524149414BEB75
:103150000B0BB2EB080C71EB03077BF1000B24BFE8
:10316000624639464EEB0E0E51EA020718BF46F092
:10317000010616EB0E7655F1000254F1000103D55D
:10318000BDE88901BDE80088BDE88901BDE80048C7
:10319000B619524141EB0101A3F101037047808050
:1031A0007F7E7D7C7B7A79787776767574737271A1
:1031B00071706F6E6E6D6C6C6B6A6A696868676659
:1031C00066656464636362616160605F5F5E5E5DEB
:1031D0005D5C5C5B5B5A5A5959585857575656555F
:1031E00055555454535352525251515050504F4FC1
:1031F0004F4E4E4D4D4D4C4C4C4B4B4B4A4A4A4911
:103200004949484848474747474646464545454453
:103210004444444343434342424242414141002BE0
:103220009C4630D477002BD01CB54FEA370703B447
:103230004FF010004FF01001BAF1000F06D0BCF1B2
:10324000000FDCBF40F0080040F008014FF0000024
:103250000FBCBDE810400BF1010BBBF1010F08BF23
:103260005FEA170722BF12F1010211F101014FF0CD
:10327000004143F1000300F0004043EA00007047C2
:10328000F9D35708D0E746EA064613F1400F4FEA54
:1032900016461FDD13F1200FDFBF16430A4600213B
:1032A00020335B42BED0C3F1200746EA064602FA4D
:1032B00007F74FEA164646EA0706C3F1200722FA47
:1032C00003F201FA07F721FA03F14FF0000342EA93
:1032D0000702A7E746EA020646EA06464FEA16460E
:1032E00046EA0106BCBF46EA0646360C4FF000032C
:1032F0004FF000024FF0000194E72DE9804C9A4610
:10330000934670B491E8380007C831EA400C48BFD2
:1033100034EA430C03D5FFF7E6FDFFF780FFF0BC6E
:10332000BDE8008C2DE9804C9A46934670B491E834
:10333000380007C810F0804F08BF13F0804F03D14A
:1033400000F005F8FFF76BFFF0BCBDE8008C20F043
:103350007F4780EA030023F07F4C07EB0C03A3F5C3
:103360007C5300F00040A3F1FE0392F0000F00F048
:10337000B38095F0000F00F077802DE901494FEA06
:1033800011404FEA144621EA004800FB06FC24EAFB
:10339000064708FB06F607FB08F800FB07F718EBE3
:1033A00006484CEB164C4FEA124B18EB07484FEA15
:1033B00015464CEB174022EA0B4E0BFB06FC25EAA8
:1033C00006470EFB06F607FB0EFE0BFB07F71EEB90
:1033D000064E4CEB164C4FF000061EEB074E4CEB26
:1033E000174B18EB0B0840F1000018EB0E0B58EBD5
:1033F000000840F100008F1A4FF000013CBFC943A4
:10340000661B14BFB5EB040C00213CBFC943F61B7F
:103410004FEA17444EEA8E0E27EA04454FEA1C474E
:1034200004FB07622CEA074C05FB07F70CFB05F6CB
:1034300004FB0CFC16EB074642EB174216EB0C465E
:1034400042EB1C421BEB060658EB0202414146EAE6
:103450009E0601D5BDE80189B619524141EB010133
:10346000A3F10103BDE801894FEA14454FEA114772
:1034700024EA054621EA074C05FB07F406FB07F79B
:103480000CFB06F105FB0CFC11EB074144EB174468
:103490004FEA124711EB0C4144EB1C4422EA074C63
:1034A00005FB07F206FB07F70CFB06F605FB0CFC19
:1034B00016EB074642EB174216EB0C4642EB1C4557
:1034C0006A1854F1000148BF7047B619524141EBE8
:1034D0000101A3F10103704795F0000F37D04FEAC7
:1034E00011424FEA144721EA024624EA074C02FB44
:1034F00007F106FB07F70CFB06F402FB0CFC14EBD0
:10350000074441EB17414FEA154714EB0C4441EBDC
:103510001C4125EA074C02FB07F506FB07F70CFBED
:1035200006F602FB0CFC16EB074645EB174516EBBF
:103530000C4645EB1C42121951F1000148BF70477F
:10354000B619524141EB0101A3F1010370474FEA63
:1035500014454FEA114724EA054621EA074C05FBCA
:1035600007F106FB07F70CFB06F24FF0000605FB20
:103570000CFC12EB074241EB174112EB0C4251EBF2
:103580001C4148BF7047921841EB0101A3F10103B0
:103590007047000000000000C94301607047002927
:1035A000816814BF41F0010121F001018160704781
:1035B0000849D1F80423084B1A40D0E9003C43EAFB
:1035C0000C03D0E902C04CEA000018431043C1F8D4
:1035D0000403704700200140E030FCFF00298168AF
:1035E00014BF41F4807121F480718160704700291B
:1035F000816814BF41F4007121F40071816070474B
:103600000029816814BF41F4806121F480618160E8
:1036100070470246002012680A4218BF0120704716
:1036200081B0084428300090006801B080B2704733
:103630002DE9F05FDFF8FC8000273C46D8F8000059
:103640003D46DFF8F49010F0040F6FF0040AA9F182
:1036500008062ED0C8F800A03849486B002808BFDB
:10366000886BD1F83CB0BBF1000F08BFD1F840B077
:103670000028D8BF37800CDD1C214046FFF7D0FF63
:10368000B9F90010401A401000EB640060F30F0419
:103690003080BBF1000FD8BF77800ADD182140468B
:1036A000FFF7BEFFB9F90210401A401000EB64406A
:1036B0007080D8F8000110F0040F18BFC8F800A1FE
:1036C000D8F8000210F0040F08BFBDE8F09FC8F85A
:1036D00000A21B480168002904BF1A4801681A4863
:1036E0000468002C04BF19480468DFF864800029CE
:1036F000D8BFB7800CDD1C214046FFF791FFB9F918
:103700000410401A401000EB650161F30F05B18011
:10371000002CDCBFF780BDE8F09F18214046FFF782
:103720007FFFB9F90610401A401000EB6540F080A9
:10373000BDE8F09F00200140741A00100000014015
:1037400034040140380401403C040140400401407D
:103750000022014010B4426891F804C022F4807243
:1037600022F040720B6842EA0C221A4342608268DF
:103770000C4B4C791A40D1E903C343EA0C03D1F84E
:1037800008C04CEA440C43EA0C031A438260C26A44
:10379000097D22F47002491EC9B242EA0151C16298
:1037A00010BC7047FDF7FFC030B4072409290DD9BC
:1037B000C568A1F10A0C0CEB4C0C04FA0CF425EAD8
:1037C000040403FA0CF32343C3600AE0056901EB28
:1037D000410C04FA0CF425EA040403FA0CF3234325
:1037E00003611F23072A0CD2D0F834C0521E02EB0B
:1037F000820293402CEA030391401943416330BC99
:1038000070470D2A0CD2D0F830C0D21F02EB8202D2
:1038100093402CEA030391401943016330BC704785
:10382000D0F82CC00D3A02EB820293402CEA03033D
:1038300091401943C16230BC7047816841F08041BA
:103840008160704705490028D1F8040314BF40F493
:10385000000020F40000C1F804037047002001407C
:1038600001828261C289511A89B28162016C21F0A0
:10387000020121F008010164704700221146FFF7A0
:10388000EFBF00210182826AC16990ED081A51439D
:1038900000EE101AB8EEC00AC0EE010A90ED050A5B
:1038A000B8EEC00A30EEC00ABDEEC00A80ED060ACE
:1038B000016C21F0020121F0080101647047002130
:1038C00030308172417501750180418001817047FE
:1038D00010B50446B0EE401A84F83B1000EE902A72
:1038E0002046B8EEE00A00F01BF894F83D0040B125
:1038F000206C20F004002064206C20F00100206483
:1039000010BD84ED091A204627F066FDF4E780ED2E
:10391000080A90F83D10002901D127F05DBD7047DD
:1039200090F83D10002906D0B7EE000A80ED080A95
:103930000121C1617047B5EEC00AF1EE10FA01DB5A
:10394000012101E04FF0FF31C1617047002180F893
:103950003B100122027047F6FF72C2868286C16167
:10396000B7EE000A80ED080A9FED120A80ED090A01
:1039700080F83D10018281628181C181C1624182F2
:103980004160816080F83A1001864186018780F8A5
:10399000451080F84410A0F8461080F83C10016CE7
:1039A00041F0010141F0020141F0040121F0080160
:1039B0000164704700000000002825D090F83D20E9
:1039C000002A21D1026CD3071ED192071CD4028E8B
:1039D000322A03D9012280F83A2001E0521C0286E3
:1039E000022912D003DC61B1012904D11BE00329B3
:1039F00012D00F2905D090F8441041F0020180F850
:103A00004410002180F83C10704790F8441041F0B9
:103A1000010180F84410F4E790F8441041F00801E7
:103A200080F84410EDE790F8441041F0020180F86E
:103A30004410E6E790F8400040F34000401C704717
:103A400090F83D00704790F84000C0F3C000704708
:103A500010B504462078042807D10DF041FF0EF080
:103A6000F9F910B9012084F83A0094F83A00E8B363
:103A7000B4F8460041F28832401C80B20021A4F81C
:103A80004600904203D9A4F8461084F8451094F8F3
:103A9000450094F8442090422CD0D10701D0C107B2
:103AA00007D0910701D5810703D5110707D5000776
:103AB00005D494F83B000023082100F0B1F894F8F5
:103AC0004400400706D5002294F83B001346092124
:103AD00000F0A6F894F84400C00606D5002294F839
:103AE0003B0013460A2100F09BF800E004E014F8C4
:103AF000440F6070012010BD002010BD30B5B0F93A
:103B00001240836823448360002445686D1C45602F
:103B100095420AD9002B00DA5B428B4201DA01247C
:103B200000E00024002141608160204630BD70B576
:103B300005460EF0F5FD2B464C2204210EF0FAFD51
:103B40000646002409E004EB440000EB041006EBF9
:103B50008000FFF7FBFE641CE4B2AC42F3D33046B6
:103B600070BD826AC16990ED081A514300EE101AC7
:103B7000B8EEC00AC0EE010A90ED060AB8EEC00A1F
:103B800030EEC00ABDEEC00A10EE100A70470028E1
:103B900013D090F83D20002A0FD10278042A04D0D7
:103BA00005DC012A07D0032A07D100F029B8092A29
:103BB00001D00A2A01D100F001B8704710B590F980
:103BC0003C20002A00D18181848900238C4202D0CC
:103BD00080F83C3010BD521C52B280F83C20032AC1
:103BE000F8DB8181C181028A891A89B28162C3624C
:103BF000438280F83C30016C21F00401016410BD67
:103C00008181C181028A891A89B281620021C162DF
:103C1000418280F83C10016C21F00401016470477E
:103C200038B50A4CE080C4E902230020207160719D
:103C3000022016F0D1FF20600BF05AFA00231A463A
:103C4000042100940BF02FFA38BD0000002600106C
:103C50000022028282614161C1898162016C41F06E
:103C6000020141F008010164704700214160816058
:103C70007047002818D090F83D10002914D1016C2D
:103C8000CA0711D189070FD4418E322903D90121E6
:103C900080F83A1001E0491C41863C30017A41F03D
:103CA00004010172002101707047F0B587B004462D
:103CB000002C0FD094F83D0000280BD1206CC207D7
:103CC00008D1002727866786400705D52046FFF7DD
:103CD0005EFFE76207B0F0BD6782A089081A00B2F4
:103CE000A181B4F9342022B1534283421CDC8242C8
:103CF0001ADBE089081A00B280B1E1816082A16A12
:103D00000144A162E16A00EB4002C1EBC101C2EBD8
:103D1000C01001EBC000C010E0620DE0E06AC0EB33
:103D2000C000C010E06207E0208F401C2087E06ADE
:103D3000C0EBC000C010E06217F0BAFE17F0C2FE80
:103D400005460E4617F0B4FE17F0C5FE02460023E6
:103D500028463146FDF724FC1A43BBD1208F0028AA
:103D6000B8D0029703970497059794F93B00ADF8F4
:103D70000E00208FCDE904078DF80C708DF80D70C2
:103D80000A21022016F028FF02900BF0B1F902A9D7
:103D9000002300911A4603210BF085F9208FE18E54
:103DA000884207D93A34A07A40F01000A07201206E
:103DB00004F83A0927878DE7C26AC169D0ED080A7D
:103DC000514300EE101AB8EEC00A80EE201ABDEE84
:103DD000C10A10EE100A7047F0B589B000260096AF
:103DE0000196029603961A481A4D4468E868A76A35
:103DF00010F0100F1CBF304632F0F8F8384621F0B2
:103E000020FB012808D1384621F002FC012084F86B
:103E10002E00304632F0EAF8284604AA002100F0CD
:103E2000CDF9049800909DF81A008DF80600DDF891
:103E30001B000290DDF81F0003906946384621F010
:103E40001EFC616800291CBFA068884709B0F0BD4E
:103E5000AC48001000640040002032F0C7B80020D9
:103E600032F000B970B58AB00120002100910191B3
:103E70000291039119491A4D8C68E968A66A11F0FC
:103E8000100F18BF32F0B2F8304621F0DAFA0128EC
:103E900007D1304621F0BCFB012084F82E0032F01F
:103EA000A5F8284604AA002100F088F9049800909B
:103EB0009DF81A008DF80600DDF81B000290DDF871
:103EC0001F0003906946304621F0D9FB6168002944
:103ED0001CBFA06888470AB070BD0000AC48001045
:103EE00000680040012032F081B8012032F0BAB8F9
:103EF00010B4082304224FF0100CB1F5007F40D01D
:103F000021DC202902BF036110BC704710DC0129AD
:103F100001BF1D49816010BC7047042902BFC36006
:103F200010BC7047082908BFC0F80CC010BC70470F
:103F3000402902BFC0F810C010BC7047B1F5807FA7
:103F40001FD010BC70470024B1F5004F08D00BDC27
:103F5000B1F5806F15D0B1F5006F1CBF10BC704774
:103F60008461426010BC7047B1F5803F02BF43607E
:103F700010BC7047B1F5003F08BFC0F804C010BCCA
:103F80007047426010BC704701010100A0F1804100
:103F900010B5B1F5C8414FF0010109D0880606F00F
:103FA0006FFCBDE8104000214FF0806006F068BC57
:103FB0004FF0007006F064FCBDE8104000214FF0A7
:103FC000007006F05DBC000030B4817A354B0122F0
:103FD00002FA01F11A6842F001021A60DFF8C8C063
:103FE000DCF800208A43CCF80020047B2F4AD4B9A7
:103FF00014688C4314604488C58844EA0544857A73
:10400000ED0005F1804505F5C045C5F8404604883A
:10401000858844EA0544857AED0005F1804505F57B
:10402000C045C5F84446047B012C18D114680C43E4
:104030001460847A0268E40004F1804404F5C0440A
:104040004FEA3242C4F84026847A4268E40004F120
:10405000804404F5C0444FEA3242C4F84426C47A8E
:10406000134A002C14680CBF8C430C431460048961
:10407000104A14B914688C4314600489012C02D1CD
:1040800014680C431460407B012804D1DCF8000064
:104090000843CCF80000186820F00100186030BC1C
:1040A00070470000006600401C6600400C6600403F
:1040B0000466004014660040002A426914BF1143A0
:1040C00022EA0101416170470268002322F00202E6
:1040D0000260026842F0010202604FF6FF7200BF08
:1040E000D0F804C01CF0010F03D1934218BF5B1C31
:1040F000F6D1436813F0010F5DD08B79012B036873
:104100000CBF43F0800323F080030360CB79012BC5
:1041100003680CBF43F0400323F0400303600B7AB5
:10412000012B03680CBF43F0200323F0200303603E
:104130004B7A012B03680CBF43F0100323F01003EC
:1041400003608B7A012B03680CBF43F0080323F054
:1041500008030360CB7A012B03680CBF43F0040310
:1041600023F0040303608B7891F803C04FEA837354
:1041700043EA0C6391F804C043EA0C4391F805C08C
:10418000098843EA0C53A1F1010143EA0101C1612D
:10419000016821F0010101604FF00001436813F054
:1041A000010F1CBF9142491CF8D1406810F0010F6B
:1041B00004BF012070474FF00000704700EB01136F
:1041C000D3F8B0C11CF0040C82F808C0D3F8B0C119
:1041D00007BF4FEA5C5CC2F800C04FEADC0CC2F8D3
:1041E00004C0D3F8B0C10CF0020C82F809C0D3F8B7
:1041F000B4C10CF00F0C82F80AC0D3F8B4C14FEA76
:104200001C2C82F813C0D3F8B8C182F80BC0D3F8C5
:10421000B8C14FEA1C2C82F80CC0D3F8B8C14FEAE1
:104220001C4C82F80DC0D3F8B8C14FEA1C6C82F860
:104230000EC0D3F8BCC182F80FC0D3F8BCC14FEA9E
:104240001C2C82F810C0D3F8BCC14FEA1C4C82F879
:1042500011C0D3F8BC311B0E937421B1016941F038
:10426000200101617047C16841F02001C1607047C1
:1042700009490A6842F001020A600A6822F487725A
:1042800022F478520A600A6842EA0020086008684E
:1042900020F0010008607047006600400021817135
:1042A000C171017241728172C1728170C17003214A
:1042B00001710221417101210180704710B4024651
:1042C0000020936813F0806F3FD000BF02EB001214
:1042D000D2F8803103F00103C2F880310B7A002B51
:1042E00042D0D2F880C14C684CEA030391F809C06F
:1042F0004CEAC40C43EA0C03C2F880318B7A03F019
:104300000F038B72D2F8843123F00F03C2F884318B
:10431000D2F8843191F80AC043EA0C03C2F8843120
:10432000CB7AD1F80CC043EA0C23C2F88831CB7B9E
:10433000096943EA0121C2F88C11D2F8801141F0D9
:104340000101C2F8801110BC7047906810F0006F36
:1043500018BF0120BAD1906810F0805F14BF02200E
:104360000420B3D110BC7047D2F8803191F809C055
:1043700043EA0C03B1F800C043EA4C53BCE700B574
:10438000002200F007F8C04380B2010241EA102089
:1043900080B200BD05E000BF30F8023B891E5BBA69
:1043A0001A440129F8DC11B1007802EB002290B226
:1043B00000EB124000EB104080B27047084400EB65
:1043C000104080B270470029016814BF41F001011C
:1043D00021F00101016070472DE9F003016821F02F
:1043E000010101600021016041608160C1600161E3
:1043F00021214161434A3D244349904202BF8C60E0
:10440000BDE8F0037047414A4FF47465904202BF23
:104410008D60BDE8F00370473D4A4FF47418904238
:1044200002BFC1F80880BDE8F0037047394A4FF079
:104430007466904202BF8E60BDE8F0037047364B51
:10444000364A984202BFCA60BDE8F0037047DFF801
:10445000D0C0344B604502BFCB60BDE8F00370476D
:10446000314FDFF8C8C0B84202BFC1F80CC0BDE888
:10447000F0037047DFF8B8904FF03D57484502BF52
:10448000CF60BDE8F0037047DFF8A8902A4948459F
:1044900002BF0C60BDE8F0037047284CA04202BF89
:1044A0000D60BDE8F0037047254CA04202BFC1F883
:1044B0000080BDE8F0037047224CA04202BF0E60AE
:1044C000BDE8F0037047204C2049A04202BF0A60BB
:1044D000BDE8F00370471E4A904202BF0B60BDE882
:1044E000F00370471B4A904202BFC1F800C0BDE80C
:1044F000F0037047184A904208BF0F60BDE8F00310
:1045000070470000106002400060024028600240D6
:104510004060024058600240706002403D00002050
:1045200088600240400F0020A060024000003D2053
:10453000B8600240106402400864024028640240EF
:104540004064024058640240706402400C640240BF
:1045500088640240A0640240B864024010B402685B
:104560001B4BD1F80CC01A400B6843EA0C03D1E98D
:1045700005C44CEA040C43EA0C03D1F81CC043EA1E
:104580000C03D1F820C043EA0C03D1F824C043EA5D
:104590000C03D1F828C043EA0C03D1F834C043EA35
:1045A0000C03D1F838C043EA0C031A430260426995
:1045B000D1E90B3C22F0070243EA0C031A434261A3
:1045C0000A6942604A6882608968C16010BC7047AD
:1045D0003F801CF02DE9F04F43484FF0000B93B0A3
:1045E00046685F4649F21A08357C4FF4407A4FF02E
:1045F0000049706900EB05100168C1F30D410C1F03
:10460000016811EA080F18BF012734D100683AEA9F
:10461000000018BF02272ED140F2EA50844288BF22
:10462000032728D844F0004020F0C8FA44F00041A5
:104630000090002808BF04271DD00820726900EBF5
:104640000510E31C105820F003020098001D9C0880
:1046500006D000BF52F8043B40F8043B641EF9D179
:104660002248026812B10098001D9047009820F07F
:104670002BFD4FF0010B706900EB0510C0F80090A6
:1046800077B1022F08BF4FF0FF343B4618A24021FC
:1046900002A80094FDF724F802A9F02021F050FFB1
:1046A000F07A6D1C854208BF00253574706900EBF7
:1046B0000510006810F0004F9BD0184C6069184D31
:1046C00010F0800F06D065610020A06015A1F020D9
:1046D00021F036FF6561BBF1000F18BF20F03EFAF4
:1046E00013B0BDE8F08F00008C1A0010841A00107F
:1046F0004554485F49525148616E646C657228297F
:104700003A206572726F7220256420666F7220668F
:1047100072616D655B25645D0000000000900240E1
:10472000C08001004554485F49525148616E646C35
:10473000657228293A206572726F72203500000078
:1047400010B54FF4005000F033F8012420B160039D
:1047500000F028F8124804714FF4805000F028F857
:1047600028B14FF4805000F01DF80D4844714FF40B
:10477000804000F01DF828B14FF4804000F012F89E
:10478000074884714FF4004000F012F8002808BF79
:1047900010BD4FF4004000F005F80148C47110BD91
:1047A0007C1A00100149086070470000143C014069
:1047B000034A0146002012680A4218BF01207047D0
:1047C000143C0140837921490268002B34D00B68E6
:1047D00023EA02020A60091D0A6803689A430A6014
:1047E000017901F1804101F59E310A6803681A439D
:1047F0000A60174B19680268914319601A1D116805
:10480000D0F800C021EA0C0111604179102908D0CC
:1048100001F1804101F59E310A680068104308608B
:1048200070471968D0F800C041EA0C01196011689E
:104830000068084310607047007900F1804000F57F
:104840009E3001689143016070470000003C0140C8
:10485000083C01402DE9F001002201255FF003062C
:10486000D1F800C005FA02F30CEA030C9C4537D1DD
:1048700007684FEA420C06FA0CF4A74307600F7969
:10488000D0F8008007FA0CF747EA080707600F79AD
:10489000012F18BF022F17D1876827EA0407876006
:1048A0004F79D0F8088007FA0CF747EA08078760C5
:1048B000476827EA0303436043688F7907FA02F7E2
:1048C000BFB243EA07034360C36823EA0403C3603B
:1048D000CB7903FA0CF3D0F80CC043EA0C03C360A5
:1048E00002F10102102ABBD3BDE8F00170474B076B
:1048F000DB0E9A40C90800EB8100016A4FF00F0CF3
:104900000CFA03F399430162016A11430162704793
:104910000246002012690A4218BF01207047024671
:10492000002052690A4218BF012070474183704736
:10493000018370474FF6FF710160002101714171E1
:104940008171C17170474269514041617047002ACD
:1049500014BF0183418370470029018814BF41F4CB
:10496000806121F4806101807047838A0022008B7E
:1049700043EA004020F07F4031EA000008BF0122F6
:1049800010467047C943818270470029018814BFCF
:1049900041F0010121F001010180704700290188E7
:1049A00014BF41F4807121F48071018070470029A7
:1049B000018814BF41F4007121F400710180704737
:1049C00082B00246002000920A0F21F07F4101923E
:1049D00008BF090C009A14BF1432183200921268F2
:1049E0000A4218BF012002B07047818A008B41EA59
:1049F000004020F07F40704770B50446808884B046
:104A00000D4620F03F06684605F05EFF29490298F2
:104A1000B0FBF1F189B246EA0102A280228822F0BD
:104A200001022280244B2A689A421DD85200B0FB12
:104A3000F2F080B2042838BF0420491C2184A083EE
:104A4000208840F0010020802088A9886A8920F011
:104A50000A0020F48060114308432080A889298936
:104A60000843208104B070BDEB88A3F53F4CBCF136
:104A7000FF0C19D002EBC20303EB0212B0FBF2F001
:104A800080B240F480400205120D08BF40F00100E2
:104A900040F400404FF4967251434FF47A72B1FBE8
:104AA000F2F1491C2184CAE702EB4202B0FBF2F0AA
:104AB00080B2E8E740420F00A0860100002A14BF40
:104AC00041F0010101F0FE0101827047018270474F
:104AD00090ED760AD0ED3D0A30EE600A064910EE00
:104AE000100A884204DC10EE100A0449884201D9F9
:104AF000002070470120704700803644008036C493
:104B00002DE9F04F2DED028B9BB0044689461546EA
:104B100009EB4901C1EBC9164FF4D471A06901EB4F
:104B200086011A914156189194F95E1017911A99BD
:104B30006FF00102425484F85E204FF0000A84F8BE
:104B400063A095F900004FF4EC784FF4F87108EB8E
:104B5000860801EB8603CDF864804FF4EA714027A4
:104B600009EB490801EB860208EB0918091F07EB5E
:104B7000880BA0F1030C09EBC90701EB860107EBD9
:104B80008917BCF10B0F1FD2DFE80CF0061E23457E
:104B9000D8FDFDFCFBFAF900A06DD5E9031200EB8E
:104BA0008800FEF75DFEE069002100EB870004F05D
:104BB000BBFCE069B4F8401000EB870009B205F0D7
:104BC000AAFA287884F86C001BB0BDEC028BBDE813
:104BD000F08FC4F870A0D5E90201421AE069696853
:104BE00000EB870004F078FC68B1A06900EB860058
:104BF00003F006FCA06D00EB8800FEF73EFE28786F
:104C000084F86C00E0E7A2691A9918985054179834
:104C100084F85E00D8E7B5F9180001280ED0471CCB
:104C200011D00346FEA232210AA8FCF759FD002349
:104C30001A4649460AA802F012FCC5E795ED040A97
:104C4000F8EEC08A03E095ED030AF8EEC08AC4F8D6
:104C500070A0FE2084F86C00A7692878F854A36936
:104C6000012098544FF4F070A26900EB860702F817
:104C700007A0A06950F801A0D5E90310401A00EE82
:104C8000100ADAE91E10F8EEC00A401A00EE100A07
:104C9000B8EEC00A80EE808A07F0BAFDB0EE480A8E
:104CA000494607F0C9FF60B14B46E3A2462105A87B
:104CB000FCF716FD00231A46494605A802F0CFFB73
:104CC00082E7A06DB0EE480A00EB8800FEF728FEF0
:104CD000A06D50F80B1041F0040140F80B1095ED59
:104CE000030AB8EEC00AC0EE080A9AED1E0AB8EE32
:104CF000C00A30EEC00A4FF4F272A16902EB8602DC
:104D0000FDEEC00A10EE900A8850C8EE880AA1692C
:104D10001998084430EEC00A80ED000A95ED020AA9
:104D20004FF4EE71A069B8EEC00A01EB86010844A9
:104D300080ED000AA1690120C85545E7C4F870A0BC
:104D4000FE2084F86C00A7692878F85440F2D5104A
:104D5000A36900EB860703F807A0A3690120985414
:104D6000A0694658D5E90301091A00EE101AD6E9E0
:104D70001E12F8EEC00A521A00EE102A04E09FE25A
:104D800042E2A7E121E167E0B8EEC00A80EE808A46
:104D900000EE100AB8EEC00AC0EE080A00EE101AC3
:104DA000B8EEC00A30EEC00ABDEEC00A10EE10AA7E
:104DB00007F02EFD5246494607F025FF60B14B46ED
:104DC000AAA2462105A8FCF78BFC00231A464946F7
:104DD00005A802F044FBF7E607F01AFDB0EE480A1A
:104DE000494607F0F7FE60B14B46ABA2462105A845
:104DF000FCF776FC00231A46494605A802F02FFB73
:104E0000E2E6A06DB0EE480A00EB8800FEF788FDF0
:104E1000A06D50F80B1041F0040140F80B1095ED17
:104E2000030AB8EEC00AC0EE080A96ED1E0AB8EEF4
:104E3000C00A70EEC00A00EE10AAB8EEC00A30EE4A
:104E4000C00AA2691999BDEEC00A10EE100A5050AE
:104E5000A1690120C855B7E694F86C108142BAD018
:104E60000C34C4F848A0C4F864A0287884F8600022
:104E70002068E3686FF00101007800EB4002C2EBAC
:104E8000C0104FF4D47202EB800019542068E3681C
:104E9000407800EB4006C6EBC01002EB80001954CE
:104EA0002068E368807800EB4006C6EBC01002EB98
:104EB00080001954A068E16C007800EB400202EB1E
:104EC000001001EB8000FEF7D8FCA068E16C407890
:104ED00000EB400202EB001001EB8000FEF7CDFC7E
:104EE000A068E16C807800EB400202EB001001EB5F
:104EF0008000FEF7C2FC6868A066A8682067E868C2
:104F0000E06660682169007800EBC00202EB801067
:104F100001EB800005F06EF960682169407800EBD4
:104F2000C00202EB801001EB800005F063F96068BD
:104F30002169807800EBC00202EB801001EB800059
:104F400005F058F960682169007800EBC00202EBB7
:104F5000801001EB8000012105F0DDF86068216917
:104F6000407800EBC00202EB801001EB80000121D1
:104F700005F0D1F860682169807800EBC00202EB8F
:104F8000801001EB8000012105F0C5F862682169FD
:104F9000107800EBC00303EB80103C2303EB800090
:104FA00008586067507800EBC00505EB801003EBF4
:104FB00080000858A067907800EBC00202EB8010D8
:104FC00003EB80000858E067FEE584F86C00C4F845
:104FD00070A0A06900EB860003F012FAE0690021DE
:104FE00000EB870004F0A0FAE069012100EB8700E4
:104FF00005F091F81C22E16902EB8702686888508D
:10500000A06D00EB8800FEF730FEA06DA9681BB014
:1050100000EB8800BDEC028BBDE8F04F58E00000CB
:105020006572726F722074797065362E6375727254
:10503000656E743D2564000063616C6962363A20D8
:105040006572726F72207570646174696E67204D4D
:1050500061697320636F6E76657273696F6E206627
:105060006163746F72206A256400000063616C697B
:1050700062373A206572726F72207570646174696C
:105080006E672048616C6C414443206F66667365AF
:1050900074206A256400000063616C6962373A20FD
:1050A0006572726F72207570646174696E672048F2
:1050B000616C6C41444320636F6E76657273696FF7
:1050C0006E20666163746F72206A256400000000C0
:1050D000FEF7BEBDC9EBC901A06DC1EB891100EBA4
:1050E00081086968D8F81C00C0EBC0324046FEF762
:1050F000B7FBD8F86800A968C0EBC03208F14C00D3
:10510000FEF7AEFBD8F8B400E968C0EBC03208F196
:105110009800FEF7A5FB204600F0B4FBE0690021F3
:1051200000EB870004F000FAE069012100EB870042
:1051300004F0F1FFE06900EB870005F05BF84FF445
:10514000DC72A16902EB86024FF4F85088504FF4EC
:10515000DE72A16902EB8602686988504FF4E4723E
:10516000A16902EB8602286988504FF4E071A269B8
:1051700001EB86014FF461705050F420A26900EBFE
:105180008600104490ED000ADFED660A4FF4E270ED
:1051900000EB860030EE200ABDEEC00A10EE101AB9
:1051A000115000EE101ABC21A26901EB86011144D6
:1051B000F8EEC00A91ED000AF4EEC00AF1EE10FA22
:1051C00004DDBDEEC00A10EE101A1150A1690A5894
:1051D00000EE102AB82202EB86020A44F8EEC00A5A
:1051E00092ED000AF4EEC00AF1EE10FA04D2BDEE20
:1051F000C00A10EE102A0A50287884F86C000120AA
:105200006065C4F870A0DFE409F0CCFC494609F001
:10521000F5FC6968002900DC494200EE901A90ED27
:105220002C0AF8EEE00A60EE200AFDEEE00A10EE2D
:10523000906AB6F5004F02DBA6F5004601E006F5E0
:105240000046D0F89800002808DDDFED370A80EE30
:10525000801ABDEEC10A10EE100A07E0DFED330A36
:1052600080EE801ABDEEC10A10EE100AA96801EBAB
:10527000000ACDE9006A4B462DA2502103A8FCF795
:105280002FFA00231A46494603A802F0E8F8A06D59
:10529000524600EB88003146FEF7E2FAE069002151
:1052A00000EB870004F040F9E069B4F8401000EB2F
:1052B000870009B204F02FFF287884F86C0083E49B
:1052C000A06D00EB08166968F069C0EBC03230468B
:1052D000FEF7C6FAB06EA968C0EBC03206F14C000A
:1052E000FEF7BEFAD6F8B400E968C0EBC03206F1AA
:1052F0009800FEF7B5FAD6F800012969C0EBC03274
:1053000006F1E400FEF7ACFA204600F0BBFAE069D3
:10531000002100EB870004F007F9287884F86C007E
:1053200052E400000000614400000047000000C794
:1053300043414C4942203132206A2025643A206F93
:1053400066667365743D2564207A65726F3D2564D9
:10535000200000002DE9F04F0DF1380809AC98E865
:10536000004F94E8F01041608260C36004614561C1
:105370008661C761C0F858C0C0F82080C0F8289086
:10538000C0F824A0C0F82CB0C0F830E0BDE8F08F21
:1053900010B50446204600F075FA204600F00DF8DE
:1053A00094F8631021B12046BDE8104000F0D9B850
:1053B0002046BDE8104000F055BE2DE9F05F0446E0
:1053C00060680678A06890F800A00027002084F8A4
:1053D000640000254FF00A084FF4D47934E0E06807
:1053E000A169405D00EB4002C2EBC01001EB800000
:1053F00002F0BEF900B101272069E169405D00EBD0
:10540000C00202EB801001EB800004F099F858B163
:105410000127E068A169405D00EB4002C2EBC010CB
:1054200009EB800001F800802069E169405D00EB34
:10543000C00202EB801001EB800004F03FFD10B1D0
:10544000012084F864006D1CB542C8DB4FF0000BEE
:1054500000250EE06069A16D405D00EB400202EBAB
:10546000001001EB8000FEF7F3FA08B10127BB46FC
:105470006D1C5545EEDBBBF1000F0FD000200BE09B
:10548000E168A269095C01EB4103C3EBC11109EBBF
:10549000810102F80180401CB042F1DB6FB30025AE
:1054A00023E0E068A169405D00EB4002C2EBC01060
:1054B00001EB8000002102F045FF2069E169405DB9
:1054C00000EBC00202EB801001EB800004F00FFD46
:1054D00050B12069E169405D00EBC00202EB801031
:1054E00001EB800004F0CAFD6D1CB542D9DB84F8E5
:1054F0005E80204602F0CAF830E094F8640068B399
:10550000002523E0E068A169405D00EB4002C2EBAA
:10551000C01001EB8000002102F014FF2069E16956
:10552000405D00EBC00202EB801001EB800004F054
:10553000DEFC50B12069E169405D00EBC00202EB86
:10554000801001EB800004F099FD6D1CB542D9DBA1
:10555000002084F85E00204602F098F83846BDE846
:10556000F09FB0F95C10012905D0022905D003296C
:1055700005D100F005B800F06DBB00F0F7BC704736
:105580002DE9F04F04462DED028B85B0606805785B
:105590004FF00008002615E0E068A169805D00EB8F
:1055A0004002C2EBC01001EB8007384602F0F8F968
:1055B00094F8610028B1384602F090FE08B14FF02F
:1055C0000108761CAE42E7DB9FEDAD8A00274FF065
:1055D000F0094FF4807A4FF48E7B85E02069C65D38
:1055E00094F8610078B3236A73B3B0EE480AF0EE22
:1055F000400A00201BE0E168095C01EB410C53F814
:105600002120CCEBC11102EB860209EB810C92ED5B
:10561000001AA2699444DCED001A01EE210A0AEB9B
:1056200081011144D1ED001A41EE210A401CA8422B
:10563000E1DB06EBC601E06901EB861100EB8100BE
:1056400004F09AFB42E019E0FFE706EB4601C1EBEC
:10565000C6110AEB8102A06909EB810102440844EA
:1056600006EBC60190ED000AE06901EB8611D2ED70
:10567000000A00EB810004F07FFB27E0226ADAB128
:10568000B0EE480A002014E0E168095C01EB410C2F
:1056900052F82130CCEBC11103EB86030BEB8101F7
:1056A000D3ED000AA369194491ED001A00EE810AB6
:1056B000401CA842E8DB09E006EB4601C1EBC6113D
:1056C000A0690BEB8101084490ED000A06EBC601CE
:1056D000E069BDEEC00A01EB861100EB810010EE1F
:1056E000101A04F081FC7F1CAF42FFF677AFB8F1CF
:1056F000000F6ED000274FF064094FF0DC0A0DF167
:10570000040862E0E068C65DE36A2BB308EB86023A
:1057100082ED008A00201CE02169095C01EBC10BCD
:1057200053F821C00BEB81110CEB860C09EB8101C6
:10573000DCED000AD4F81CC05CF8011000EE101A71
:10574000B8EEC01A92ED000A00EE810A82ED000A5E
:10575000401CA842E0DB0FE006EBC60101EB86111E
:10576000E06909EB8101405800EE100A08EB860061
:10577000B8EEC00A80ED000A06EB4601A069C1EB55
:10578000C61B00EB8B0002F0A9FDE8B1A0690AEB93
:105790008B01084490ED000AB5EEC00AF1EE10FA54
:1057A00001DD012100E0002108EB8600D0ED000AB8
:1057B000B4EEE00AF1EE10FA01D2012200E000227C
:1057C000914201D080ED000A7F1CAF429ADB002697
:1057D00039E03AE02069815D236A13B3B0EE480AEC
:1057E00000200EE0E268125C53F8227008EB82029F
:1057F00007EB810792ED001AD7ED000A00EE810A4F
:10580000401CA842EEDB01EBC102E069BDEEC00A1C
:1058100002EB811100EB810010EE101A04F0E4FBA2
:1058200010E001EBC10202EB811208EB8101E0699B
:1058300091ED000A00EB8200BDEEC00A10EE101AD6
:1058400004F0D2FB761CAE42C4DB94F8650001285C
:1058500009D002280FD105B02046BDEC028BBDE86F
:10586000F04F01F011BD05B02046BDEC028BBDE844
:10587000F04F01F0E5BC05B0BDEC028BBDE8F08F48
:10588000000000002DE9F04F04462DED028B91B091
:1058900060680678A56A4FF486779FEDEC8A002D44
:1058A0005CD0002357E0E068C25C4FF4847102EBE7
:1058B0004200C0EBC210D4F818C001EB800A0CEB18
:1058C0000A0181ED008AA16907EB800B01EB0B0057
:1058D00080ED008A00203BE02169095C55F82280B8
:1058E0004FF03C0E08EB8108D4F81C9098ED001A9C
:1058F00001EBC10808EB81180EEB880ED4F818C034
:1059000059F80E90D44400EE909A9CED000AF8EEFF
:10591000E00A01EE200A8CED000A55F82290D4F836
:1059200018C009EB8101D4F81C9091ED001A5821A0
:1059300001EB8801DC4459F801109CED000A00EEEF
:10594000901AF8EEE00A01EE200A8CED000A401CE5
:10595000B042C1DB5B1CB342A5DB33E000203C233B
:1059600058254FF4847C2BE0E168095CD4F81C8056
:1059700001EBC10202EB811203EB820958F80980A6
:1059800001EB410900EE108AC9EBC111D4F818806F
:10599000B8EEC00A0CEB8109C84488ED000AD4F8BF
:1059A0001C8005EB820207EB810158F8022000EE13
:1059B000102AA269B8EEC00A114481ED000A401C09
:1059C000B042D1DB206B4FF0F80928B1A06890F805
:1059D00000804FF0000ABCE000255DE0606910F82F
:1059E0000580A06D08EB480101EB081A00EB8A0066
:1059F000FEF726F8E8B108EB4800C0EBC8104FF4FA
:105A00008472A16902EB80020A4492ED000AF4223A
:105A100002EB8002114481ED000A07EB8002A169CC
:105A200009EB80000A44084492ED000A80ED000A68
:105A300031E0A06D00EB8A00FEF793F800EE100A4B
:105A400008EB4800C0EBC818F420A169B8EEC00A02
:105A500000EB8800084480ED000A94F8620058B119
:105A6000A06907EB8801014491ED000A09EB880168
:105A7000084480ED000A0EE0A06D00EB8A00FEF7FE
:105A80009BF900EE100AA06909EB8801B8EEC00A84
:105A9000084480ED000A6D1CB5429FDBA5E06069FB
:105AA00010F80A50A06D05EB450101EB051B00EB5A
:105AB0008B00FDF7C5FFD8B105EB4501C1EBC51162
:105AC0004FF48472A06902EB8102024492ED000A55
:105AD00009AA02EB850282ED000A07EB8101084466
