:020000040000fa
:080000000002040000000000f2
:020000040000fa
:10000800b6320000963200009a3200009e3200009c
:10001800a2320000b6320000b6320000b63200004c
:10002800b6320000b6320000b6320000b42a000032
:1000380028040000b6320000b6320000b6320000d4
:10004800ea2b0000b6320000b6320000b6320000db
:10005800b6320000b63200008a320000b632000024
:10006800b6320000be320000b6320000c22f0000d7
:10007800b6320000b6320000b6320000b6320000d8
:1000880094100000b6320000b6320000b63200000c
:10009800b6320000b6320000b6320000b6320000b8
:1000a800b6320000b6320000b6320000de2700008b
:1000b800b6320000b6320000b6320000b632000098
:1000c800b6320000b6320000b6320000b632000088
:1000d800b6320000b6320000b6320000b632000078
:1000e800b6320000b6320000b6320000b632000068
:1000f800b6320000b6320000b6320000b632000058
:10010800b6320000b63200005c240000b6320000af
:10011800b6320000b6320000b63200003a2d0000b8
:10012800b6320000b6320000b6320000b632000027
:10013800b6320000b6320000b6320000b632000017
:10014800b6320000b6320000b6320000b632000007
:10015800b6320000b6320000b6320000b6320000f7
:10016800b6320000b6320000b6320000b6320000e7
:10017800b6320000b6320000b6320000b6320000d7
:10018800b6320000b6320000b6320000b6320000c7
:10019800b6320000b6320000b6320000b6320000b7
:1001a800b6320000b6320000b6320000b6320000a7
:1001b800b6320000b6320000b6320000b632000097
:1001c800b6320000b6320000b6320000b632000087
:1001d800b6320000b6320000b6320000b632000077
:1001e800b6320000b6320000b6320000b632000067
:0801f800b6320000b63200002f
:020000040000fa
:10020800b6320000a6320000aa320000ae3200006a
:10021800b2320000b6320000b6320000b63200003a
:10022800b6320000b6320000b6320000b42a000030
:1002380028040000b6320000b6320000b6320000d2
:10024800ea2b0000b6320000b6320000b6320000d9
:10025800b6320000b63200008a320000b632000022
:10026800b6320000be320000b6320000c22f0000d5
:10027800b6320000b6320000b6320000b6320000d6
:1002880094100000b6320000b6320000b63200000a
:10029800b6320000b6320000b6320000b6320000b6
:1002a800b6320000b6320000b6320000de27000089
:1002b800b6320000b6320000b6320000b632000096
:1002c800b6320000b6320000b6320000b632000086
:1002d800b6320000b6320000b6320000b632000076
:1002e800b6320000b6320000b6320000b632000066
:1002f800b6320000b6320000b6320000b632000056
:10030800b6320000b63200005c240000b6320000ad
:10031800b6320000b6320000b63200003a2d0000b6
:10032800b6320000b6320000b6320000b632000025
:10033800b6320000b6320000b6320000b632000015
:10034800b6320000b6320000b6320000b632000005
:10035800b6320000b6320000b6320000b6320000f5
:10036800b6320000b6320000b6320000b6320000e5
:10037800b6320000b6320000b6320000b6320000d5
:10038800b6320000b6320000b6320000b6320000c5
:10039800b6320000b6320000b6320000b6320000b5
:1003a800b6320000b6320000b6320000b6320000a5
:1003b800b6320000b6320000b6320000b632000095
:1003c800b6320000b6320000b6320000b632000085
:1003d800b6320000b6320000b6320000b632000075
:1003e800b6320000b6320000b6320000b632000065
:0803f800b6320000b63200002d
:020000040000fa
:10040000cfc420000e6d24000e0188000000000003
:10041000000020000000e000020032000001200087
:10042000200288000c000700e0612100010020008c
:1004300011000700000020000000e0000200320070
:1004400000000200000000005a1802000000000036
:100450000040da000000fe004440a90040082000ef
:100460000000e0000300320000002000a00188002e
:100470004440a80000000600910188008000780038
:100480000000eb0015003700e280400032a0b4000d
:100490009101ba00e280400032a0b4009102ba009b
:1004a000e280400032a0b4000002eb00472bde00e7
:1004b000f507b200602ce10004003a000059eb009f
:1004c0008301e900fdff3e00040037006128e100e0
:1004d000010032000082eb00040007001101ba00a5
:1004e0000200e000e8ff3a00000006003159ba00bf
:1004f0008301e9000c0032002159ba008301e900b0
:10050000080032000400e00003003a00e2804000ee
:1005100032a0b400f5ff370011d9ba008301e90019
:10052000faff3a008100e800e180400032a0b40008
:1005300000000600dc0b0400000000000021ef00ba
:100540001108880020088800000006000a21ef003a
:100550007108880090088800000006001421ef0050
:10056000d1088800f00888001e61a900000006007c
:1005700000088800000006005008880000000600ff
:10058000a008880000000600c008880000000600df
:100590003200f800023b8800910188000008bb008f
:1005a0000500fc0051052000313b8800a10a200015
:1005b000313b880061e7a800000000000000000057
:1005c0003200f900000006000400a100010037001d
:1005d0000400a0003200f8009101880011002400fe
:1005e000013b8800f10f20003208bb000400a70087
:1005f000b20078000198bb008301e900faff3a00dd
:10060000680151000400a700680151006800500013
:100610001208bb00e2ff3700f30f20003200f800a1
:100620009101880031002400013b88000208bb00d2
:100630000388bb00daff37003200f800003b880077
:10064000d7ff37003200f80091018800800278005f
:1006500062004000e08048003549ba003204e00002
:100660000410a700100032008301e9000e003200e0
:100670002549ba003204e0000410a7000a00320045
:100680008301e900080032000408a300eeff3200f5
:1006900015c9ba003204e0000410a70002003200bd
:1006a0008301e900e8ff3a003200f900000006008b
:1006b000839f68000100e00002003d006000100020
:1006c000e08018000300e00002003d00600111001e
:1006d000e0811900050007004f00e00002003b0028
:1006e00060001000e0801800000006006022b800e2
:1006f000060220000000d0008180d2000482d200d7
:100700008582d2000000a0000202520083825a00bb
:10071000030031000202420083824a000000a1006f
:100720000603e900f3ff3a0000000600000278002b
:1007300002003700315a78000201e900e00f510051
:08074000fcff3a000000060076
:020000040000fa
:10074800000600000201000004050000030000008c
:10075800000000004a01000094020000de030000cf
:100768002705000070060000b90700000109000015
:10077800480a00008f0b0000d50c0000190e00007d
:100788005d0f00009f100000e01100002013000022
:100798005e1400009b150000d61600000f1800001c
:1007a800461900007b1a0000af1b0000e01c000087
:1007b8000e1e00003b1f0000652000008c21000079
:1007c800b1220000d3230000f3240000ff7f0000c3
:1007d800fb7f0000ec7f0000d37f0000b07f0000ab
:1007e800837f00004c7f00000b7f0000c17e00006b
:1007f8006c7e00000e7e0000a57d0000337d0000a9
:10080800b87c0000327c0000a37b00000a7b00005b
:10081800687a0000bc79000006790000477800007b
:100828007f770000ad760000d3750000ef740000fc
:10083800017400000b7300000c72000004710000ca
:08084800f36f0000d96e0000ff
:020000040000fa
:100850003600f800809fbe00829fbe00849fbe00cd
:10086000869fbe00889fbe008a9fbe008c9fbe00f0
:10087000440f2000240288000b12070027a7200045
:10088000e48243001702ea000583e900150b5200d9
:100890001700780034002000110009000400d8007f
:1008a000800b780096037800110009008403d800bb
:1008b000000b780015037800110009000403d8002c
:1008c000800a7800a4a920001442780061426200e6
:1008d0008004eb000a00320044a120000040eb003d
:1008e000944f100004003200a0a32000a5070700c9
:1008f00080047800020037006c150700800478003f
:10090000da1007008045780039558800a4a9200036
:100910001442780062426200050032001d11070097
:100920000082fb00453a280065447a000400370045
:10093000c8032000110009008804d8000044e80022
:10094000d4aa2000944f1400c5003200a4a92000ae
:10095000144278007042620012003200ef16070065
:1009600044a120000041eb00944f11000d003a001b
:10097000c45f8000800f520009003a00c4aa200022
:10098000944f140007003200e46f24001434a000d8
:1009900044c420001444a000cd1507000100370016
:1009a000c05f8800a4a92000144278006142620060
:1009b0004c003200a4a92000144278006242620078
:1009c00048003200d5160700b45f8000800f520047
:1009d00009003a00c4aa2000944f14000700320016
:1009e000e46f24001434a00044c420001444a00088
:1009f000b715070001003700b05f8800e14f5400d1
:100a000013003a00d4aa200065c0b30094cf1200ae
:100a10000f003a007e82440074558800751620004d
:100a2000850f52005a03340064eb2f000902420084
:100a30007455880065c0b300c4aa2000054a780038
:100a400015c0b300d4aa2000054a7800370037004b
:100a5000e64f540011003a00d4aa200016c0b3009b
:100a6000944f13000d003a007e82540074558800a4
:100a70004c033b00a4142000090242007455880076
:100a800086427800c4aa2000054a780065c0b300f9
:100a9000d4aa2000054a780065003700d4aa2000b7
:100aa000944f5400090034007e824400745588003d
:100ab00075162000850f52000a00340064eb2f00e9
:100ac0000902420074558800060037007e825400f7
:100ad0007455880003003b00a41420000902420062
:100ae00074558800d4aa2000c5aa2000944a780032
:100af000084a78000802fb00cfa2de006102520023
:100b0000e0825a00e50f5200e08f5a0054003e0088
:100b10000460010005003700110037001d00370098
:100b200029003700350037004100370024a7200096
:100b3000a4558800a4ab20000456880044a72000d8
:100b40009455880084ab2000f455880064a72000e9
:100b50008455880064ab2000e455880040003700cd
:100b600024a72000a4558800a4ab200004568800c8
:100b700064a720009455880064ab2000f4558800d9
:100b800044a720008455880084ab2000e4558800e9
:100b90003300370044a72000a455880084ab200010
:100ba0000456880064a720009455880064ab200098
:100bb000f455880024a7200084558800a4ab2000a9
:100bc000e45588002600370044a72000a45588007b
:100bd00084ab20000456880024a720009455880088
:100be000a4ab2000f455880064a720008455880039
:100bf00064ab2000e45588001900370064a720008a
:100c0000a455880064ab20000456880024a7200067
:100c100094558800a4ab2000f455880044a7200018
:100c20008455880084ab2000e45588000c00370010
:100c300064a72000a455880064ab200004568800f7
:100c400044a720009455880084ab2000f455880008
:100c500024a7200084558800a4ab2000e455880018
:100c60000804fb0024002000110009000404d8003f
:100c700001457800a4a92000144278006242620075
:100c800017003200a4a9200014427800e14262005b
:100c90000002eb00200032007455800004825400f2
:100ca000350b2000850f5200020034008416b1007d
:100cb00004003700c5f42f00850f520001003d00ed
:100cc0008416b000fe0f420001003d0024fe2f00fc
:100cd000fe0f520006003400e4012000040037003b
:100ce000c4032000110009008404d8007e82500053
:100cf000e00f520008003d000402ea000402420036
:100d0000a53e2800e5047a00c53a280065047a006b
:100d10000804ea000500370004024200a53e28004e
:100d2000e5047a00c53a280065047a00e04f5500d2
:100d300025003200a5558000945580009503780069
:100d4000148053000980b900865580001601780090
:100d50000891b900c11bdd004f11de000281730054
:100d6000cf99de00d7ff2f000791b900c10bdd003e
:100d70004f00de0000807300cf88de0027aa20002d
:100d8000800b4100160078000980b90095027800b8
:100d90001483520008b3b900cf8ade004109dd0098
:100da0004f02de00040271008402ea00413add00d5
:100db0004f33de0006037200cfbbde0044aa2000e2
:100dc000068a520022003700a55580009455800005
:100dd00015037800140053000980b900865580007f
:100de000160178000891b900c11bdd004f11de002b
:100df00002817300cf99de006311b900c10bdd00e1
:100e00004f00de0000807300cf88de0027aa20009c
:100e1000800b4100160078000980b9009502780027
:100e20001483520008b3b9004109dd004f00de0011
:100e300000007100cf88de00413add004f33de0054
:100e400006037200cfbbde0044aa2000060a500051
:100e500044a120008042eb0094cf1200c4003a006d
:100e600044be2000144278006a425200e14f520012
:100e700092003e0085cf5500bd0032000555800030
:100e8000645080000482520045be2000b6c0b3000a
:100e9000954f13005a003a00e2518000e051800063
:100ea000f65180000752800000004200cf80de0033
:100eb0000000430081804b0002015200cf91de0010
:100ec000441bdd00cc13de00870373004413dd00f8
:100ed0000003430081834b00f651880007528800cd
:100ee00010518000f651800007528000cf80de0054
:100ef000860f5000878f580005003d001651800076
:100f0000cfb3de00f6518800075288000d0037008d
:100f100010518000f6518000075280000000ea0066
:100f2000cf80de00860f5000878f58000500340008
:100f3000165180000603ea00cfb3de00f6518800a8
:100f400007528800a5bf20008043eb0095cf130017
:100f500027003200f651800007528000e00f530056
:100f6000e08f5b0011003400d0518000f65180000a
:100f700007528000cf80de00860f5000878f580018
:100f800004003d00d55180008502e800d55188005d
:100f900048003700f651800007528000d651880083
:100fa000a5bf2000804aeb0042003700d0518000ee
:100fb000f651800007528000cf80de00860f50007f
:100fc000878f580004003400d55180008502e90065
:100fd000d551880037003700f65180000752800055
:100fe000d6518800a5bf2000804aeb0031003700b1
:100ff000f651800007528000d65188002d0037003e
:10100000805f8000e2518000020152000091b9002f
:10101000955f8000e0518000000042000580b9002b
:10102000b6518000c7518000020040008380480014
:101030000003430081834b00b6518800c7518800ec
:10104000b0518000c151800096528000a7528000ac
:10105000860f5000878f580005003400965280009c
:10106000a7528000b6518800c75188000f00370092
:1010700090528000a1528000b6518000c75180007c
:1010800060001000e0801800860f5000878f580025
:101090000600340096528000a752800060031300bf
:1010a000e0831b00b6518800c75188008002eb0026
:1010b000d5518800e45188002d00370044be20003f
:1010c00067c0b30094cf130015003a006022b80047
:1010d000b4518800c5518800f0548000d051880078
:1010e000d551800014518000848f520003003400d9
:1010f00012518000d25188001d0037001551800028
:10110000d45180008502ea00848f52001800340018
:10111000145180000402ea00d45188001400370002
:1011200004c5b30045be2000954f12000b003a00e5
:10113000e6548000cfb3de00453add00cb32de005e
:10114000850272004532dd00b4518800c551880027
:101150000002eb00d4518800050037006022b8007f
:10116000b4518800c55188000002eb00d4518800ba
:1011700044be2000b5c0b30094cf12000700320077
:1011800066c0b300944f13000400320044a1200055
:101190008043eb0094cf130035003200d55180001e
:1011a0001455800004825200125280000201520045
:1011b0008002eb000591b900165280000603420040
:1011c00005b3b90050518000615180000203430013
:1011d00083834b00060340008783480056518800f4
:1011e0006751880014528800565180006751800072
:1011f0007452800085528000840f5300858f5b00fd
:1012000005003400745280008552800054518800db
:10121000655188000f0037007652800087528000a9
:10122000545180006551800060031300e0831b006f
:10123000840f5300858f5b000600340074528000d9
:101240008552800060021200e0821a00545188002a
:10125000655188005c5180006d518000c66add00d8
:101260004a66de000c867200caeede0079003700a6
:101270001555800014518000848f52000400340002
:1012800015c0b30064a42000054a780007003700a9
:1012900015558000145180000402ea00848f52002a
:1012a00002003d0064a4200000caeb0064a42000fa
:1012b0000043eb00944f13005200320017c0b300fc
:1012c00094cf130020003a0015518000145580007f
:1012d0000482520012528000020152008002eb0090
:1012e0000591b90010528000000042000580b9004d
:1012f00076518000875180000200400083804800c2
:101300000003430081834b00765188008751880099
:10131000145288007451800085518000e00f520003
:10132000e08f5a002c0035006022b800745188000c
:101330008551880064a42000004aeb000002eb0005
:10134000145288002400370064a4200000c0eb0081
:10135000944f100020003a00155180001455800071
:101360008502ea00048252001252800002015200fb
:101370008002eb000591b90010528000000042008d
:101380000580b9007651800087518000020040003e
:10139000838048000003430081834b00765188001e
:1013a0008751880014528800745180008551800054
:1013b000e00f5200e08f5a0007003c006022b800a6
:1013c000745188008551880064a42000004aeb0015
:1013d0000002eb0014528800b4518000c551800017
:1013e0007c5180008d5180000c0642008d864a00a1
:1013f0004669dd004a66de000c067100caeede00ba
:101400001400370004c5b30045be2000954f1200fc
:1014100007003a00bc518000cd518000466add00d3
:101420004a66de000c067200caeede0009003700d4
:10143000bc518000cd51800044bf20001402fb004d
:101440000402e900030033008d86d1000c86d3002e
:10145000fbff3700245580000402ea00225280007e
:10146000020152008002eb000591b9002652800073
:101470000603420005b3b90090518000a1518000dd
:101480000203430083834b00060340008783480028
:1014900096518800a75188002452880096518000f8
:1014a000a75180007452800085528000840f530041
:1014b000858f5b00050034007652800087528000e3
:1014c00096518800a75188000f003700765280009f
:1014d0008752800094518000a55180006003130062
:1014e000e0831b00840f5300858f5b0006003400ef
:1014f000745280008552800060021200e0821a005f
:1015000094518800a551880094518000a551800015
:10151000c62bdd004a22de0004827300caaade0068
:101520008405780024032000f7ff2700160320001d
:10153000060037000402e90004003a0044c4200019
:101540001474a000e212070007003700150e800097
:10155000e08f520004003d00100e80008082630086
:10156000868f5200f3ff3600345f8000e00f520098
:1015700009003400345f80000402e900345f880011
:10158000345f8000e00f520003003a0034c42000b2
:101590001414a000ce12070024002000110009003e
:1015a0000406d80000067800110009008405d80060
:1015b0000002780009e3b90008a1b900c11add00f2
:1015c0004f11de0002817200cf99de00d5ff2f009f
:1015d0000591b9004138dd004f33de00060370008d
:1015e000cfbbde008602410008e1b90009a3b900c3
:1015f0004138dd004f33de0006037000cfbbde0054
:10160000cf9cde004118dd004f14de00080470009e
:1016100008044300e04f5500010032000804ea00ce
:1016200006568000088b5200e6558000080b4400e7
:101630008502ea00f6558000088b5200d5558000df
:1016400045548800c655800056548800b755800020
:1016500067548800045488001c548800425f80004e
:10166000a2548800545f8000b4548800605f8000fa
:10167000c054880074508000f40f520003003400fe
:10168000ca21a800d421ef0008003700d4a1ef0040
:10169000c2548000b1548000a05480000701410072
:1016a00086804000050040004a0a0700a4a92000e7
:1016b00014427800644262002b003a0054558000c6
:1016c0000402e80054558800f30f5200260034004d
:1016d0000002eb005455880024aa20001400780072
:1016e0001402780000a0b900f45080000551800079
:1016f000d6508000e75080000402500085825800d8
:101700004629dd004a22de0004027100caaade007a
:101710000402430085824b00d4508800e5508800c5
:10172000d4508000e5508000e00f5200e08f5a0056
:1017300003003d006022b800d4508800e5508800c6
:10174000d6508000e7508000b4508000c550800023
:10175000840f5300858f5b000300340044c42000d5
:101760001414a0005a1207008480a9004f06be007e
:101770004f05be004f04be004f03be004f02be0027
:101780004f01be004f00be003600f90000400600c9
:10179000d4aa2000c5aa2000944a7800084a7800fc
:1017a000e2fc3700d4aa2000c5aa2000944a7800a1
:0817b000084a78001efd370015
:020000040000fa
:1017b8000800fa00889fbe008a9fbe008c1f780030
:1017c8000005780004702000040265000500200070
:1017d800c828dd004822de0004827000c82ade0026
:1017e80084447800e1cf5400cc0132000500390070
:1017f8008040eb000002eb00e7cf540033023a00d0
:101808001002370093427800e9cf52000c003a00ea
:101818008040eb000002eb00e24f51002b023a003f
:10182800a5c4200095cf1000280232001340900074
:101838009c1207008040eb001400200023023700b0
:10184800e7cf52000c003a008040eb000002eb00aa
:10185800e14f51001d023a0074c0b300e4ef9f004d
:1018680044be200014427800f4ef9f0021c0b3006a
:10187800140020001502370034c3b30084cf52008f
:101888000c003a008040eb000002eb00e14f5100f1
:101898000e023a0034c3b300e4ef9f00b4c4200042
:1018a80014427800f4ef9f0021c0b3001400200018
:1018b8000602370024c3b30084cf52003e003a002a
:1018c8008040eb000002eb00e24f5100ff013a00bc
:1018d80044be200094cf1000050032000002eb0047
:1018e80005cbb30046be200096cf1200f7013a00a0
:1018f80013409000b8c42000004c7800f81207008c
:1019080018407800e80e07000002eb00830420006e
:10191800a2b62000000025001100200047fb0700a8
:1019280022042400000025001100200016fb0700f7
:10193800abb62000184278000482fb0005002000a6
:10194800848dbe000c0420000b06460014c0b300b2
:10195800044e78000c02e800004aeb00c4aa2c00f0
:10196800645d8800020420008b0078000080eb0092
:10197800f3110700640246000004eb00000a780037
:1019880018029800030420000b01780000002500cd
:10199800110020000afb0700030420000c01780056
:1019a800000425001100200005fb0700884078008e
:1019b80014002000c501370084c4b30084cf52004e
:1019c8002c003a008040eb000002eb00a5c4200088
:1019d80095cf1000bd013200e54f51000e003a00ce
:1019e800a3409000c808dd00134290000482fb0069
:1019f8008102720024002000110009008402d8002e
:101a080002e2240085007800721007008040eb0095
:101a180014002000ad0137008040eb000002eb000d
:101a2800e84f5100a9013a00734190004811dd00c8
:101a3800634290000482fb0002017200d3409000d0
:101a4800c808dd00434290000482fb008100720058
:101a5800334090004800dd00234290000482fb00e0
:101a6800000072005b1007008040eb0014002000ab
:101a78009601370074c7b30084cf52003e003a0085
:101a88008040eb000002eb00e64f51008f0136006a
:101a9800a5c4200095cf10008c013200934290001d
:101aa8008582fb00a4a9200014437800054a780029
:101ab8000402e80094427800004aeb00a342900038
:101ac8008582fb00334390004833dd00e4c12000e9
:101ad800050a7300c34290008582fb0053439000bf
:101ae8004833dd000482e800050a73006343900070
:101af8000683fb000603d100e6024200864a78000e
:101b08008080eb00948f100008003a00a4a9200000
:101b18001454a00015c0b30074c22000054a780010
:101b280067025200000aeb000200370074c220006e
:101b3800004aeb0044022000e84f510002003a003e
:101b4800734290000482fb0024618800a4a920004d
:101b580014427800e14262008040eb00140020004b
:101b680081cf520059013200a4a920001444a100d9
:101b78001400200055013700b4c5b30084cf5200cb
:101b880022003a008040eb000002eb00e34f5100d6
:101b98004e013a0023439000134290008002eb006c
:101ba800e14f520005003a008642780065c0b20055
:101bb8008582fb008502e900cf2ade00a4c420004c
:101bc800054a7800b5c5b300e5ef9f0081c0b300b2
:101bd800f1ef9f0035c0b30085f79f0025c0b30023
:101be80095f79f0065c0b300a5f79f0016c0b30026
:101bf800b6f79f00c5f79f0094427800d5f79f007d
:101c080014427800140020003001370054c6b30095
:101c180084cf52001b003a008040eb000002eb002a
:101c2800e84f510029013a00a5c4200095cf1000c3
:101c380026013200434190004811dd0033429000f4
:101c48000482fb0002017200e3409000c808dd0036
:101c5800534290000482fb008100720023409000f0
:101c68004800dd00134290000482fb00000072006f
:101c7800f34190009d0f07008040eb001400200006
:101c88001201370094c6b30084cf520016003a0000
:101c98008040eb000002eb00e84f51000b013a00d6
:101ca800a5c4200095cf10000801320073419000b0
:101cb800c3409000c808dd00334290000482fb0056
:101cc80081007200234090004800dd00134290001c
:101cd8000482fb00000072004c1007008040eb00fb
:101ce80014002000f9003700f7cf52001d003a0019
:101cf8008040eb000002eb00e54f5100f3003a0092
:101d0800a5c4200095cf1000f000320044be20008a
:101d180014427800ea425200814078000002eb0049
:101d2800e1cf5200e9003e00234390004833dd0034
:101d3800134290000482fb0005aa2000840a730065
:101d4800150278001400200006002800950f1300e3
:101d5800de003a0014002800045588001400200012
:101d6800da00370024c7b30084cf520023003a00ba
:101d78008040eb000002eb00e34f5100d3003a0033
:101d8800a5c4200095cf1000d00032008140780013
:101d980005c5b30046be200096cf1200cb003a001e
:101da800234390004833dd00934290008582fb0076
:101db800c4a92000050a730005402600948f12006c
:101dc8000400340005027800e45488001400200060
:101dd800be003700e65480008040eb00140020006d
:101de80005c02900850f5300b8003d0005027800a2
:101df800e454880014002000b4003700d4c6b300af
:101e080084cf520027003a008040eb000002eb002c
:101e1800e54f5100ad003a00a5c4200095cf100051
:101e2800aa0032008140780045be200066c0b30099
:101e3800954f1300a5003a00234390004833dd0076
:101e4800934290008582fb00e4a92000050a7300f4
:101e58009402780014518000848f520005003400e9
:101e680011518000f15488008040eb0014002000dc
:101e780096003700f6548000155180008502ea006c
:101e88008040eb0014002000850f53008f003d00b8
:101e980015518000e4a92000050aea00140020007a
:101ea8008a003700e4c6b30084cf520011003a001c
:101eb8008040eb000002eb00e14f510083003a0044
:101ec800e4c6b300e4ef9f0072825700e5a9200042
:101ed800156a7800954290001542980001427800f2
:101ee800a4f79f0094f79f0051c0b300140020008e
:101ef800760037008040eb000002eb0006c7b30015
:101f080086cf520071003a0014002000e54f5100be
:101f18006e0032000002eb006c003700ef426500f3
:101f28000002eb00efcf520044003a00843e20004c
:101f3800345f8800b4c42000144278008482fb0017
:101f4800058342000281fb000002eb00820f530070
:101f58003a003c008502e9008582420063c27a00ab
:101f68000482fb008582410095429000c82add006a
:101f78008502720044be200014427800e64f5200e9
:101f88001400320005003e00e04f520028003200e5
:101f9800e24f520027003a0008003700ea4f52008b
:101fa80024003900eb4f52000400360006c5b30088
:101fb800864f52001f003a00130037000400280023
:101fc800848f520001003a0015002800055588004a
:101fd8001800370014518000848f5200020034002a
:101fe8001551800006003700145180000402ea00f1
:101ff800848f520002003d00155180008502ea00de
:10200800f55488000b00370004c02900848f520063
:1020180001003d008402780004402600848f5200ad
:102028000100340084027800e5548800010037007c
:102038004a0f07000a060700140020008040eb0042
:102048002200370093427800e1cf420011003a00a5
:102058008040eb000002eb00e14f51001b003a000a
:1020680000c2eb00e4ef9f0084c0b300f4ef9f00d0
:1020780034c0b30084f79f0024c0b30094f79f00d6
:1020880064c0b300a4f79f0051c0b300140020003f
:102098000e003700e0cf520004003a000000fe00b6
:1020a8008040eb0014002000080037008040eb005f
:1020b80014002000eccf5200040032000002eb00b4
:1020c800edcf520001003a0014002000e00f52004a
:1020d8000e003200e0cf50000c003200e7846400ac
:1020e800c84cdd00b4c42000144278000482fb0010
:1020f8004422dd00890472000a0fb2004450de0059
:102108000080740072815700de1007004f067800c7
:102118004f05be004f04be000080fa000000060014
:020000040000fa
:102128003600f800809fbe00829fbe00849fbe00dc
:10213800869fbe00889fbe008a9fbe008c9fbe00ff
:102148000800fa008700a9004a208000fa03b200bc
:102158001c0020000a66dd00052180000c82620058
:102168002b0132000d7824004455dd000a85460015
:10217800ca459000ef856500e88f550003003400dc
:1021880054c420001444a0008b0020009a42780018
:1021980061c2620008003a000582fb004222de00ac
:1021a8001a4490007f0464004644dd00080472006d
:1021b800090020001e0037005a4490000884fb00e4
:1021c8004244de000884fb000900200009f0a0005a
:1021d8002a4290000482fb003a4390006f03630098
:1021e8004833dd000603720007002000463add0090
:1021f800ca32de00850272004632dd000404740033
:10220800858474009a4278000582fb004222de0031
:102218001a4390007f0363004633dd000603720013
:10222800c232dd000002eb000404740085847400ef
:10223800e60045000b0178006880570039f907006f
:102248000c86ea000c2188005a4290006242620023
:1022580006003a00e88157000b4178000800be00ec
:1022680024608000040001000200370054c42000ec
:102278001424a0004a208000fa03b2001c002000a9
:102288000a66dd00052180000c826200e20032004f
:102298004455dd000a854600ca459000ef85650073
:1022a800e88f55000300340054c420001444a000f3
:1022b8008b0020009a42780061c2620008003a0050
:1022c8000582fb004222de001a4490007f0464006d
:1022d8004644dd0008047200090020001e00370093
:1022e8005a4490000884fb004244de000884fb0046
:1022f8000900200009f0a0002a4290000482fb0097
:102308003a4390006f0363004833dd000603720010
:1023180007002000463add00ca32de00850272005e
:102328004632dd0004047400858474009a42780003
:102338000582fb004222de001a4390007f036300ff
:102348004633dd0006037200c232dd000002eb00f6
:102358000404740085847400e60045000b017800cd
:1023680068805700eff807000c86ea000c21880007
:102378005a4290006242620006003a00e881570023
:102388000b4178000800be002460800004000100b2
:102398000200370054c420001424a0004a20800002
:1023a800fa03b2001c0020000a66dd000521800047
:1023b8000c8262009a0032004455dd000a8546000e
:1023c800ca459000ef856500e88f5500030034008a
:1023d80054c420001444a0008b0020009a427800c6
:1023e80061c2620008003a000582fb004222de005a
:1023f8001a4490007f0464004644dd00080472001b
:10240800090020001e0037005a4490000884fb0091
:102418004244de000884fb000900200009f0a00007
:102428002a4290000482fb003a4390006f03630045
:102438004833dd000603720007002000463add003d
:10244800ca32de00850272004632dd0004047400e0
:10245800858474009a4278000582fb004222de00df
:102468001a4390007f0363004633dd0006037200c1
:10247800c232dd000002eb0004047400858474009d
:10248800e60045000b01780068805700a5f80700b2
:102498000c86ea000c2188005a42900062426200d1
:1024a80006003a00e88157000b4178000800be009a
:1024b80024608000040001000200370054c420009a
:1024c8001424a0004a208000fa03b2001c00200057
:1024d8000a66dd00052180000c826200520032008d
:1024e8004455dd000a854600ca459000ef85650021
:1024f800e88f55000300340054c420001444a000a1
:102508008b0020009a42780061c2620008003a00fd
:102518000582fb004222de001a4490007f0464001a
:102528004644dd0008047200090020001e00370040
:102538005a4490000884fb004244de000884fb00f3
:102548000900200009f0a0002a4290000482fb0044
:102558003a4390006f0363004833dd0006037200be
:1025680007002000463add00ca32de00850272000c
:102578004632dd0004047400858474009a427800b1
:102588000582fb004222de001a4390007f036300ad
:102598004633dd0006037200c232dd000002eb00a4
:1025a8000404740085847400e60045000b0178007b
:1025b800688057005bf807000c86ea000c21880049
:1025c8005a4290006242620006003a00e8815700d1
:1025d8000b4178000800be00246080000400010060
:1025e8000200370054c420001424a0004a208000b0
:1025f800fa03b2001c0020000a66dd0005218000f5
:102608000c8262000c003a005400200007003700da
:1026180014002000050037002400200003003700c4
:10262800340020000100370044002000e50f52006c
:1026380046003200470037004455dd000a85460051
:10264800ca459000ef856500e88f55000300340007
:1026580054c420001444a0008b0020009a42780043
:1026680061c262001f0032005a4490000884fb00d7
:102678004244de000884fb000900200009f0a000a5
:102688002a4290000482fb003a4390006f036300e3
:102698004833dd000603720007002000463add00db
:1026a800ca32de00850272004632dd00040474007e
:1026b800858474009a4278000582fb004222de007d
:1026c8001a4390007f0363004633dd00060372005f
:1026d800c232dd000002eb0004047400858474003b
:1026e800080037009a4278000582fb004222de008b
:1026f8001a4490007f0464004644dd000804720018
:1027080009002000e60045000b01780068805700aa
:1027180004f807000c86ea000c2188005a42900051
:10272800624262000300320054c420001424a00056
:1027380008003700e88157000b4178000800be0008
:1027480024608000040001000200370034c4200027
:102758001404a0000080fa004f06be004f05be001a
:102768004f04be004f03be004f02be004f01be0023
:0c2778004f00be003600f90000400600d3
:020000040000fa
:10278400889fbe008a1f780000047800a4a9200056
:1027940014427800624262000000eb0023013a0018
:1027a40044a120008040eb0094cf10001f013200b0
:1027b400250f800005f0a7008502ea00040220002e
:1027c400848f52000300340015c0b300e4ac200031
:1027d400054a7800166180006333b90024002000a4
:1027e400110009000403d8008004780044a12000eb
:1027f40021c0b30094cf10001b003c00b46f240030
:102804008042eb0094cf120017003200e4ac2000a9
:1028140094cf12000a003a000005eb008a568800a3
:102824000a0c7800e46f24001434a00044c420008f
:102834001444a000250e070044a120000a4a780091
:102844000042eb0075c22000954f120001003200d7
:1028540034c0b30045a12000844a7800e46f24000a
:102864001444a1002e0f070044a1200016c0b30099
:10287400944f13001f003a003551800086568000a3
:1028840024002000110009008402d800860f5000a3
:10289400030034000603e80086568800150037005c
:1028a40094568000848f54000b0034003556800009
:1028b4008502e80035568800860c2000868f520079
:1028c4000c0034008002eb00355688000402e80056
:1028d400945688000700370084f82f0004608800ad
:1028e4000002eb00f45f880025c0b30044a120007f
:1028f400054a780044a1200020c0b300944f100082
:1029040019003a00945680008904ea00848f540028
:102914000b003d00255680008502e80025568800fe
:10292400860c2000868f52000f0034008002eb00da
:10293400255688000402e900945688000a003700ee
:102944008004eb0089568800090c7800e46f2400a9
:102954001424a00044c420001444a000db0d07008c
:1029640044a12000094a780044a1200031c0b300ea
:1029740094cf100012003a0094568000e45f88005f
:102984008456800035518000850f520003003d00bd
:102994000402e800845688000900370014568000b9
:1029a4000402e8001456880005712200850f5200c5
:1029b4000300340045c0b30044a12000054a780058
:1029c40044a1200045c0b30094cf120016003a0081
:1029d400e45f800005608000048242009456880011
:1029e400445680000402e80044568800055327003a
:1029f400850f52000c003600b4378200106180004d
:102a0400250f800000abb90011000900443bd80039
:102a1400605688000002eb004456880055c0b3009d
:102a240044a12000054a780044a1200055c0b30009
:102a340094cf120070003a00e45f8000f55f8000dc
:102a44000482420094568800445680000402e80040
:102a54004456880005a62e00850f520066003600f5
:102a64000002eb0084568800b437820010618000b5
:102a7400250f800000a9b900110009004419d800ed
:102a84000001780052568800665680000602510004
:102a9400350b2000850f5200030034008416b1006a
:102aa400850f5200fdff3c00c5f42f00850f520036
:102ab40003003d008416b000850f5200fdff350071
:102ac4008403780007f0a7008703ea00a505200027
:102ad400858f5300310034002500200011000900c7
:102ae4000502d80000027800060242007516200094
:102af400850f5200030034008416b100850f520084
:102b0400fdff3c00e00f520002003d008416b000bf
:102b1400feff3300d6528800e2528800e75f80004f
:102b2400a705b00005608000f65f80000503430040
:102b340025002000110009000503d800008343008c
:102b440005c22000840a530074162000950f120059
:102b540006003400050278007516200081e92f0074
:102b6400148a4000948f1200fcff3c000461800032
:102b7400e00f520006003d0004c22000851620002c
:102b8400148a42000003eb00940f1300fbff35008e
:102b940044a12000004aeb0017003700f45f8000d6
:102ba400e00f5200090032000002eb00f45f8800dd
:102bb40085f82f00056088004456880045c0b3009e
:102bc40044a12000054a78000b0037008004eb0084
:102bd40089568800090c7800e46f24001444a1008d
:102be4001454a00044c420001444a000370d07006e
:102bf40044a12000094a780080568000000c780027
:102c04009056800074162000840f50000300340096
:102c14008016b100840f5000fdff3c00e00f50000f
:102c240002003d008016b000feff33004f0578001f
:082c34004f04be000000060081
:020000040000fa
:102c3c00e40b00001e00000002000000b0b2ff0018
:102c4c00ff08000002000200000a00000c00100047
:102c5c00000a0000ff7fff007f010000ff7fc4001f
:102c6c00ff3c0000000a0000dc0000000000000037
:102c7c00e04600000800000000000000460c0000c8
:102c8c000200000000000000b20b00003200000047
:102c9c000200000000000000000000000002000024
:102cac0002010200ff0202000200ff00020201000a
:102cbc0002ff0100000202000202020002020000f8
:102ccc0001ff020001020200ff0002000202ff00ed
:102cdc000201020000000000dc0a00008e0000006f
:102cec0000000000400c0000060000000000000086
:102cfc00480c00000200000002000000010000006f
:102d0c00380c00000800000000000000e84600003d
:102d1c000e000000000000006a0b000048000000dc
:102d2c000200000001000000000000000000000094
:102d3c000000000000000000000000000000000087
:102d4c000000000000000000000000000000000077
:102d5c000000000000000000000000000000000067
:102d6c000000000000000000000000000000000057
:102d7c000000000000000000000000000000000047
:102d8c00000000004a0c00000200000000000000df
:102d9c002c0c00000c0000000000000000080000db
:102dac000002000002000000000021001042200080
:102dbc006330840040a55000c660e70070088100b5
:102dcc0029914a00a16bb1008cc1ad00d1cee100bc
:102ddc00eff13100121002007332520022b5520092
:102dec009442f70072d6620039931800837bb300cb
:102dfc005aa3bd00d39cc300fff3de00e3622400a2
:102e0c004334200004011400e664c70074a4440099
:102e1c0085546a00a54bb5002885090095eee500a0
:102e2c00cff5ac00c58dd5005336720026111600b7
:102e3c003006d70076f666009556b400465bb700b0
:102e4c007aa7190097388700dff7fe00e79dd700b7
:102e5c00bcc7c40048e558008668a7007840080045
:102e6c006118020028233800ccc9ed00d98ee90086
:102e7c00aff94800896999000aa92b00b9f55a00e5
:102e8c00d44ab7007a966a00711a50000a333a0095
:102e9c00122afd00dbdccb00bffb9e00eb799b0014
:102eac00588b3b00bb1aab00a66c87007ce44c0033
:102ebc00c55c22002c033c00600c41001caeed00f4
:102ecc008ffdec00cdcddd002aad0b00bd688d0073
:102edc00499d97007eb66e00d55ef4004e133e0001
:102eec00322e51001e700e009fffbe00efdddf0082
:102efc00fccf1b00bf3aaf00599f78008f88910020
:102f0c00a981ca00b1eba1000cd12d00c14ef1007a
:102f1c006fe1800010a10000c230e30020045000db
:102f2c002540460070676000b983980093fba300ae
:102f3c00dab33d00c31cd3007fe35e00f3b10200a3
:102f4c009012f30022d23200354214005277620004
:102f5c005672ea00b5cba500a8958900856ef500e0
:102f6c004fe52c00d50dc500e234c30024a014009d
:102f7c0081046600744764002454050044dba700f8
:102f8c00fab7990087b897005fe77e00f71dc70076
:102f9c003cd7d30026f236009106b00016576600d7
:102fac0076761500463456004cd96d00c90ef900e2
:102fbc002fe9c80099e989008ab9ab00a9445800e7
:102fcc006548060078276800c018e10008823800c0
:102fdc00a3287d00cb5cdb003feb1e00fbf98b00d4
:102fec00d89bbb00ab9abb00754a54005a376a0099
:102ffc00167af1000ad01a00b32a92003a2efd007c
:10300c000fed6c00dd4dcd00aabd8b00ade89d0031
:10301c00c98d26007c076c00645c45004ca23c000a
:10302c00832ce0001cc10c001fef3e00ff5dcf00a5
:10303c007cdf9b00afbabf00d98ff8009f176e00e2
:10304c00367e55004e745e00932eb2003ed10e00bb
:10305c00f01e0000020c00001c000000000000002c
:10306c0000470000800000000000000080470000c6
:10307c0080000000000000001e0c00000e0000008c
:10308c000200000000005a000000000000000000d8
:10309c0000ff7f00ffff0000f64600000a00000062
:0830ac0000000000000000001c
:020000040000fa
:1030b400e6874700889fbe008a9fbe008c9fbe00a3
:1030c4008e1f780051090700070a07009b0b0700b1
:1030d400a4002000345088009d0507008660a900e4
:1030e4009660a800c00c0700c90c07009460a800f3
:1030f40084a6200003000900005aeb00e46f2400ba
:10310400004aeb000001eb006000b800b20a0700bf
:1031140048a020008004eb004d0c0700910a070032
:10312400e00f500002003200090c7800faff37006b
:103134000082eb00245088009f0c0700080b070056
:10314400e400200005002000f4b79f0085bf9f0025
:103154000002eb00430020007281570000002500ac
:103164001100200036f507009760a8006fe897006b
:10317400940b0700a4a92000944278008042eb003d
:10318400054a78000402e80014437800054a7800f0
:10319400a5c420000402e9000043eb00954f13008e
:1031a400fdff32009443780061c3630003003a00da
:1031b4009443780062c36300f7ff32001651800025
:1031c400e00f5300f4ff32007652800087528000f3
:1031d400e00f5300e08f5b00efff3200a4a9200052
:1031e400144278006142620004003a00a4a920005d
:1031f40014427800704262000b003200a4a920003f
:10320400144278000481fb004311de006141610037
:1032140064c2200094407800f06080008180fb004c
:1032240045060700020037008b40a9009b40a90017
:1032340044a12000004aeb00e46f24001444a100e0
:10324400a4a9200014427800624262000c003200fb
:10325400a4a920001424a10064c220001442780010
:103264000481fb006611b900cf91de00000020004c
:10327400110020001cf507009f0c07000e0037000a
:10328400a4a92000144278006442620001003200c4
:10329400bc0c0700a4a9200014427800614262001b
:1032a4000500320015c0b30044a12000054a78008f
:1032b400e46f24001444a00044bf200014417800ab
:1032c400915f8000805f8000d10a07004b0c0700eb
:1032d40044be2000004aeb006409200034508800fa
:1032e4000082eb00245088005e0107008005eb009b
:1032f4008eaa200048be20006ca020008c86e90025
:1033040029c42000170a0700e00f50000a00320009
:103314000042eb009e4f120001003200070c070030
:1033240004cab300044c7800008eeb00e4012000d2
:10333400840e78000c003700c262ab000a00320031
:103344001904a0000043eb009e4f1300010032005b
:10335400fa0b0700004ceb0064092000040e78000f
:10336400808eeb00e7ff37001904a1008043eb00d7
:1033740098cf13000600320004cab300984f12001d
:10338400030032005a0c0700fc0b0700d90a07009f
:1033940044518000848f5500daff32004b51800085
:1033a40054be20001445780004cab300984f12009c
:1033b4000e003a00e94f5500d2ff3a00fe0b070019
:1033c400de0a07000042eb00e56f2400844a78001f
:1033d400044c780064092000040e7800808eeb0011
:1033e400843e2000345f8800c6ff37000042eb00b3
:1033f400984f120010003a00e64f550007003200c3
:10340400ea4f550005003200eb4f5500030032002f
:1034140004c5b300844f5500baff3a000a4c780043
:10342400000eeb00808eeb00843e2000345f8800a9
:10343400ba0b0700b3ff370066c0b300984f130000
:1034440009003200a7c0b30098cf13000600320071
:10345400b4c0b300984f12000300320004c5b30097
:10346400984f1200a7ff3a00e04f550002003200c7
:10347400e94f550006003a00b00b0700004ceb0082
:1034840064092000040e7800808eeb009dff370055
:10349400e64f550007003200ea4f550005003200a0
:1034a400eb4f55000300320004c5b300844f5500b0
:1034b40094ff3a002a0a0700843e2000345f880003
:0834c4000a4c78008fff37006d
:020000040000fa
:1034cc000003be003064ab000b003200048020000f
:1034dc008021800000026200070032003264ab00e1
:1034ec000500320004802000952180000502620056
:1034fc000080eb00d8003a003064ab0034003a0096
:10350c0003027800824078000601be00007024009f
:10351c003b05070064c02000000aeb0044608000fb
:10352c00e20f52000c003c0055608000e28f52000c
:10353c0009003c0066608000e20f530006003c006e
:10354c0087c02000840be8000782e800050ae80029
:10355c000482e800060ae80034608000630262001e
:10356c00c5ff2f00872180000783620006037200cd
:10357c008621880046608000630363004833dd00c9
:10358c00f4cf2f008021800080036200870373003a
:10359c0087218800566080006303630097218000b8
:1035ac008782620085027300952188006560800027
:1035bc00e3826200c82add009021800000026200d4
:1035cc0004827200942188003064a8000000050079
:1035dc0004802000852180000502620034003a003e
:1035ec0003027800824078000601be0000712400be
:1035fc000305070084c02000000aeb003460800043
:10360c00e20f52000c003c0055608000e28f52002b
:10361c0009003c0066608000e20f530006003c008d
:10362c0067c02000840be80064824300050ae800b0
:10363c000482e800060ae80034608000630262003d
:10364c00c5ff2f00872180000783620006037200ec
:10365c008621880046608000630363004833dd00e8
:10366c00f4cf2f0080218000800362008703730059
:10367c0087218800566080006303630097218000d7
:10368c008782620085027300952188006560800046
:10369c00e3826200c82add009021800000026200f3
:1036ac0004827200942188003164a8000000050097
:1036bc003264ab0034003a00030278008240780098
:1036cc000601be0000722400cd040700a4c0200037
:1036dc00000aeb0034608000e20f52000c003c004a
:1036ec0045608000e28f520009003c00666080005b
:1036fc00e20f530006003c0067c02000840be8007a
:10370c000782e800050ae80064024200060ae800a5
:10371c003460800063026200c5ff2f0087218000a7
:10372c0007836200060372008621880046608000d1
:10373c00630363004833dd00f4cf2f008021800049
:10374c008003620087037300872188005660800025
:10375c0063036300972180008782620085027300f7
:10376c009521880065608000e3826200c82add0034
:10377c009021800000026200048272009421880073
:10378c003264a80000000500030278008240780033
:10379c000601be000073240099040700c4c0200079
:1037ac00000aeb0034608000e20f52000c003c0079
:1037bc0045608000e28f520009003c00566080009a
:1037cc00e20f530006003c0067c02000840be800a9
:1037dc000782e800050ae8000482e800060ae8000f
:1037ec003460800063026200c5ff2f0087218000d7
:1037fc000783620006037200862188004660800001
:10380c00630363004833dd00f4cf2f008021800078
:10381c008003620087037300872188005660800054
:10382c006303630097218000878262008502730026
:10383c009521880065608000e3826200c82add0063
:10384c0090218000000262000482720094218800a2
:0c385c003364a8000000eb000000060030
:020000040000fa
:10386800889fbe008a9fbe008c9fbe008e1f780076
:10387800716180008100e800843e20001100090089
:103888008400d8007161880074508000cfa2de00e7
:1038980061025200e0825a00f80f5200e08f5a008d
:1038a80039003e0004600100180037001900370095
:1038b8001a0037001b0037001c0037001d003700b6
:1038c8001e0037001f003700200037002100370096
:1038d8002200370023003700240037002500370076
:1038e800260037002700370027003700260037005a
:1038f8002500370024003700040037000500370092
:103908000600370007003700080037009153800091
:103918001d003700a15380001b003700b153800001
:103928001900370011558000170037002155800015
:1039380015003700415480001300370051548000af
:1039480011003700615480000f00370001548000d7
:103958000d003700115480000b00370071548000af
:103968000900370081548000070037009154800017
:1039780005003700a154800003003700b1548000cf
:1039880001003700c15480006a0ab9008400780039
:10399800f80f200009c3200088cc6000c808de00aa
:1039a8000905e800014d7800345580008985e80054
:1039b800884d62004822de0063864400044e780089
:1039c8004450800055508000e4864400884e6200d0
:1039d8004822de0065874400044f78004450800088
:1039e8005550800040aade00cfa2de006683440066
:1039f800084b62004822de008602e800844a78000c
:103a0800c6c22000164378000680fb004400dd0093
:103a18000080a000cf80de008901780082c0b3005a
:103a2800a8fe070044be2000944c7800e46f2400f0
:103a3800144d7800b4518000c55180004b2bdd0037
:103a48004522de0004027300c5aade00884d62002c
:103a58004822de00044e780024c42000944e7800ea
:103a68000402e800144f78000402e800e6824400eb
:103a7800944a78000402e8000503e800144b780033
:103a8800c4c22000144278000480fb004400dd001a
:103a98003010b300cf80de008901780082c0b30007
:103aa80088fe0700a4a9200005c2b30014c2620062
:103ab80027003200d46f24000043eb00944f13001a
:103ac80023003200b552800008027800890178008e
:103ad80084c96200c82ade000a037800054b780012
:103ae800c55280000b03780004cb6200c82ade00b0
:103af8000c037800054b7800d55280000d03780040
:103b080004cb6200c82ade000e037800054b78005b
:103b1800e55280000603e80004cb6200c82ade00f4
:103b280067824100054a7800d46f2400004aeb0000
:103b3800c4c22000144278000480fb004400dd0069
:103b48009010b300cf80de0082c0b3005dfe070096
:103b58004f0778004f06be004f05be004f04be0059
:043b68000000060053
:020000040000fa
:103b6c000600fa00889fbe008a9fbe008620a9002e
:103b7c000602a80035108000e1826200f41f2300c9
:103b8c0005003a00780037000402e90002003a0010
:103b9c000bff2f00430037000602ab00faff3a0080
:103bac00710037000402e90002003a001bff2f00ed
:103bbc003c0037000802ab00faff3a0035048000e5
:103bcc00e2826200f41f2300050032006e00370011
:103bdc000402e90002003a002bff2f0031003700ed
:103bec008620ab00faff320067003700f40f20008c
:103bfc0094bf9f00a4bf9f00708057000003eb0090
:103c0c00f71f2300f1fd2f008620a9000662a800f3
:103c1c0035108000e88262000702780005003a0047
:103c2c005f0037000402e90002003a003bff2f005e
:103c3c001c0037000662ab00faff3a005800370050
:103c4c000402e90002003a004bff2f001500370078
:103c5c000682ab00faff3a00650037009fbd970063
:103c6c00c85ddd002fba97008b0572008620a90075
:103c7c000642a80035108000e4826200f41f230085
:103c8c0005003a00330037000402e90002003a0054
:103c9c005bff2f00030037000642ab00faff3a002f
:103cac002c00370007e2a900c902a90004fe2f006e
:103cbc00826c200012096200cf02a8000004eb0005
:103ccc0029002000faef2f00110009000904d80088
:103cdc00618260004822dd00561680008602650075
:103cec008502720055168800001920000100200082
:103cfc00200907000804e800f30f5400f2ff3a0013
:103d0c0007e2a80000192000010020001909070093
:103d1c008620a90004fe2f006220200012096200f8
:103d2c000642a80035108000e4826200f41f2300d4
:103d3c0005003a00320037000402e90002003a00a4
:103d4c00ebee2e00030037000642ab00faff3a0000
:103d5c002b0037000b0078004f05be004f04be004f
:103d6c000080fa00000006008620a900140d200037
:103d7c001410880045108000e1826200f41f2300bb
:103d8c008cff3a008dff370004002800451080009e
:103d9c00050262008085eb00b4ff3a0093ff370008
:103dac008620a90002108000022878008620a90035
:103dbc00060278000410a20004f0a7000402ea0036
:103dcc000402e9004f22de004522dd0032108000a3
:103ddc008282600085027200351088000682a8007d
:103dec0035108000f08262000702780098ff3a00dc
:103dfc000603e800e30f530083ff3a0097ff3700f8
:103e0c000019200001002000da080700d400070088
:043e1c00d0ff37009c
:020000040000fa
:103e2000e6874700889fbe008a9fbe008c9fbe0029
:103e30008e1f78000007eb000e5388002e53880079
:103e400021e3a8006044b8000805be000dfe2f0065
:103e50008c3e200084322000148a66002003a900d2
:103e60002023a8004006200001002000c40807000d
:103e70002023a9000002eb00030037000402e80041
:103e80008c0f5200460032002003ab00fbff3200d3
:103e90000518800085bf9f004619800006826600d5
:103ea0000400a000441988002003a9002023a800d2
:103eb0004006200001002000b10807002023a900cf
:103ec0000c027800020037000402e90036003200dc
:103ed0002003ab00fcff320004188000f4b79f0001
:103ee00045198000058266000410a000441988006e
:103ef0002003a9002023a800400620000100200084
:103f00009f0807002023a9000002eb0003003700f0
:103f10000402e8008c0f5200250032002003ab00a1
:103f2000fbff32000418800000188000140907000d
:103f300074072000840f50001f0036000fbb97004d
:103f40006132b9000a0542008b854a007fb39700b1
:103f50006132b9000804420089844a000e07e80073
:103f6000840c2000840f5700baff3a00820c200016
:103f7000030020000a00be00cdf1070000538800b6
:103f8000820c2000030020000800be00c8f10700da
:103f90002053880021e3a9000000eb000700370050
:103fa0000080eb00050037000080eb0003003700c5
:103fb0000080eb0001003700e0ff2f004f07780082
:103fc0004f06be004f05be004f04be006f00b1009b
:043fd00000000600e7
:020000040000fa
:103fd400889fbe000004780081037800d4618000cb
:103fe400880f52000b003d0004bab900110009000b
:103ff400482ad80080037800d46180000491b90075
:10400400110009004819d800000178000404780060
:104014000e0037008402ea00850f54000b003d00b7
:104024008802ea0004bbb90011000900453bd8002e
:1040340080037800d46180000491b9001100090064
:104044004519d800000178000404ea00d461800016
:10405400848f53000b00340004c2b900110009001e
:10406400472ad80000047800d46180000491b90084
:10407400110009004719d800000178008403780072
:104084000e0037008402ea00858f53000b003d00c8
:104094008702ea0004c4b90011000900454cd800a5
:1040a40000047800d46180000491b9001100090073
:1040b4004519d800000178008403ea00d461800027
:1040c400840f51000b00340004c2b9001100090030
:1040d400422ad80000047800d461800004bbb900ef
:1040e40011000900423bd8008003780004017800e5
:1040f4000e0037008402ea00850f51000b003d00da
:104104000201ea0004c2b90011000900422ad800e1
:1041140000047800d461800004bbb90011000900d8
:10412400423bd800800378000401ea00e461800087
:1041340004004400b00e880084804300c10e88004f
:1041440004014100d20e8800b40e8000745488002b
:10415400c50e800085548800d60e800096548800d1
:084164004f04be00000006003c
:020000040000fa
:10416c008620a9000602a80035108000e1826200ba
:10417c00f41f230005003a004a0037000402e9004e
:10418c0002003a000040eb00000006000602ab0003
:10419c00faff3a00430037000402e90002003a003b
:1041ac000040eb00000006000802ab00faff3a00ea
:1041bc0035048000e2826200f41f23000500320007
:1041cc00400037000402e90002003a000040eb0016
:1041dc00000006008620ab00faff320039003700e1
:1041ec008620a900b401200014108800451080001e
:1041fc00e1826200f41f230005003a00060037003c
:10420c000402e90002003a000040eb000000060046
:10421c000802ab00faff3a0035048000e28262002b
:10422c00f41f2300050032002b0037000402e900c4
:10423c0002003a000040eb00000006008620ab00b4
:10424c00faff3200240037000402e90002003a00b1
:10425c000040eb000000060047108000870263005e
:10426c00f9ff32008620a9000642a8003510800014
:10427c00e4826200f41f230006003a0010c0b30071
:10428c00000006000402e90002003a000040eb00c6
:10429c00000006000642ab00faff3a0010c0b30063
:1042ac00000006008620a900040d200014108800d0
:1042bc0045108000e1826200f41f2300baff3a002f
:1042cc00bbff370004002800451080000502620087
:1042dc00c3ff3200e3ff37008620a9000500280049
:1042ec004710800087826200f41f2300060028001c
:0842fc00d9ff3200dbff37009f
:020000040000fa
:10430400889fbe008a9fbe000004a8008083fb0033
:1043140007844300080444000943200009044400be
:104324008884e800e04f5300160032003a00200071
:104334000a83610068034300c219de00c519dd0069
:10434400030c4300820c78000004a9000004a800b8
:104354000183fb00060143000201410003442000e5
:10436400030141000a85620068054500c32add0097
:10437400c52ade00c52add000509450014019800a0
:1043840012003700fa7f20000b0020008a01780019
:10439400030161004511dd00680c41008b0c7800bd
:1043a4000004a9000004a8000183fb008602430066
:1043b400858242000244200082824200030262009d
:1043c4004522dd00840a78009b0298008541200084
:1043d40004422000e3cf50000f00360064c15000b7
:1043e40024422000e34f51000b00360068c1500006
:1043f400a541200044422000e34f5100060036004e
:10440400ecc0500064422000e3cf500002003600ac
:104414008002eb0005027800e3006300c208dd00bf
:10442400f20020008110dd000181ea001401610026
:10443400010a7100e24f500008003e006702630069
:1044440004024200300020000400dd000080ea0085
:1044540015006000843bdd00870a70001000200016
:104464000600dd001424b7000004a9004f05be00b7
:084474004f04be000000060029
:020000040000fa
:10447c00889fbe008a9fbe008c9fbe0088c3200010
:10448c008044eb00094578000df023008bc420001c
:10449c009cc320000a4c7800d421ef00f06180000e
:1044ac0065004000cf80de0032070700e461800029
:1044bc00d40e8800da01f800d801f900d801f80010
:1044cc00d601f900c1e1a8008be0a9009be0a8008f
:1044dc0074002000840e880014002000a40e8800b4
:1044ec000042eb00984f120030003a00f06180005f
:1044fc00a00fb000cf80de001e0707000042eb00cb
:10450c00984f120029003a0054002000a40e880095
:10451c000042eb00984f120024003a00f06180003a
:10452c00a00fb000cf80de00120707000042eb00a6
:10453c00984f12001d003a0054012000a40e880070
:10454c000042eb00984f120018003a00f061800016
:10455c00a00fb000cf80de00060707000042eb0082
:10456c00984f120011003a00d421ef00984f12001e
:10457c000e003a00f061800065004000cf80de0044
:10458c00fc0607000042eb00984f120007003a00af
:10459c00ad0e8800984f120004003a0084c420002d
:1045ac00004aeb0010c0b30009003700894d7800b9
:1045bc000042eb009c4f120004003200803e2000b1
:1045cc0001002000eb060700b2ff37000040eb00b3
:1045dc004f06be004f05be004f04be000000060093
:020000040000fa
:1045ec00889fbe008a9fbe008c9fbe000082eb009d
:1045fc0075608000ef8f52004e003e00faff2f00d6
:10460c00fbff29000b83610007002000c036dd0092
:10461c000c0020006113b800060676008786760031
:10462c008b806000610ab800c024dd000800200007
:10463c006102b80004047400858474008a0f56006b
:10464c008b8f5e002f00320004c1200014407800d4
:10465c008082fb004240a90012003400966080006a
:10466c00a76080008c0f53008d8f5b0027003200f9
:10467c0024c120000005eb00040037005403be00e9
:10468c008c0f53008d8f5b00040032000a05e8008c
:10469c00850f5500f9ff350002003700e10f45008a
:1046ac001b003a00e4ff2f00e34f500021003200c2
:1046bc00c22add0024c12000050242000c8abe0083
:1046cc000045e80004c120000a4a78000a85fb0076
:1046dc00cf68de00f4ff21000d026200050020000f
:1046ec00c021dd00020020006162b80004017100ed
:1046fc00858171004f4ade000a0078000d04070026
:10470c00030037003a002000010037000005eb00e1
:10471c00706080000002e80074608800cf48de0002
:10472c008a027800f40020000801be009102070004
:10473c000002eb00040078004f06be004f05be00df
:08474c004f04be00000006004e
:020000040000fa
:104754000002eb00240588002505800005c0a000a8
:1047640005d0a10005e0a1002505880034058800d6
:10477400350580000500a1006500b30035058800fb
:1047840044058800450580000580a0000590a1002f
:1047940005a0a00045058800450580000540a0004f
:1047a4000550a1000560a00045058800450580006e
:1047b4000500a0000510a1000520a0004505880003
:1047c40054058800f5cf2f005605800086826200cc
:1047d40005a0a00055058800550580000540a100ee
:1047e4000506b3005505880064058800650580004a
:1047f40005c0a00005d0a00005e0a0006505880064
:104804007405880084058800c5ff2f008605800094
:10481400868262000520a00085058800f5ff2c0033
:10482400860580008682620005e0a0008505880078
:1048340094058800a4058800f58f2f00460b2000fe
:10484400168b6200f5ff2c00a605800086826200ac
:1048540005e0a000a5058800b4058800b505800022
:104864000500a0000510a1000520a000b5058800e2
:10487400d405880004068800050680000530b300ce
:1048840005a0a1000506880014068800150680000e
:1048940005c0a00005d0a00005e0a0001506880012
:1048a40024068800340688004406880081e0a900b4
:0448b40000000600fa
:020000040000fa
:1048b8003600f800809fbe00829fbe00849fbe0025
:1048c800869fbe00240f8000b56f24000043eb00d4
:1048d800954f13001c003200c53782000503ea001b
:1048e800860f520002003500850f52001600340072
:1048f800b637820005035300860f520004003500c6
:10490800b637820005034300860f52000e003400bc
:10491800b63782000603ea0005035300860f5200eb
:1049280004003500b637820086825200850f520097
:1049380005003400e46f24001404a00044c42000df
:104948001444a000e005070004618000b452880008
:10495800250f8000c552880015c0b300d46f24000d
:10496800054a780005802000060f800086826200d4
:104978000082eb00010032000002eb00240f8800e7
:1049880015c0b300b46f2400054a7800c46f240032
:104998008042eb0094cf12000b003a00050f800014
:1049a800cb2ade00e182620054618000848f5200cd
:1049b80005003a00e46f24001434a00044c4200029
:1049c8001444a000c0050700040f80004b22de003d
:1049d8006102620054618800260f800046618800e9
:1049e800c46f2400004aeb008b40a9004f03be00af
:1049f8004f02be004f01be004f00be003600f90056
:044a08000040060064
:020000040000fa
:104a0c00889fbe00e00f5100e08f590022003d004e
:104a1c00f5c3b3008543610026002000863bdd0012
:104a2c00d0429000e3c2620087c2720055409800e9
:104a3c00c61cde00ca1add004614de0008847200b3
:104a4c00f5ff20008882620025409800c82ade000d
:104a5c003044900007cfb3008743640085c27300d5
:104a6c0035409800c31add00c52ade0085037800a6
:104a7c00f703b200063bdd00c62ade0010419000b1
:104a8c0007ceb3008743610085c2730015409800c0
:104a9c006348730017003700f57f20000281620025
:104aac0002037800f603b200250020000533dd0078
:104abc004611de009043900005ceb30085c2630022
:104acc0002c1720012409800d0429000e3c2620012
:104adc00554098008042eb0025409800b043900070
:104aec0005cfb30085c2630035409800c5cfb30035
:104afc0005486300d04290000510a1005540980075
:104b0c006fc36000c043900005cfb30085c2630043
:104b1c0086c2720045409800660040000181fb008f
:104b2c0084007800feee07004f04be000000060073
:020000040000fa
:104b3c00889fbe0001047800a46f2400024a78000c
:104b4c000042eb00b56f2400844a7800c56f240046
:104b5c00844a7800f48f2f00051e2000950a62000d
:104b6c00e1e1a900e1a1a900e00f500004003d0023
:104b7c00e0e1a8000000ea00b0378a00020037002c
:104b8c00e0e1a900b0378a00b437820020618000d0
:104b9c00cf80de00cfa2de00048bb90000a9b900e3
:104bac00060341000400b8008100430002e120002c
:104bbc0003002000bbee0700c0378a0084162000db
:104bcc0004c4b90018618800e0c1a900e301a80081
:104bdc00e2e1a800140f80000440a1000450a000e2
:104bec000460a100140f8800140f80000490a00032
:104bfc0004a0a000140f88008b40a900e421ef0052
:104c0c00a46f24008042eb0094cf12000900320004
:104c1c00e6a1ef00e041a900040f80000480a10090
:104c2c000490a00004a0a000040f88009b40a800e2
:104c3c0009003700b43782000402e900340f880001
:104c4c00e041a800040f80000430b30004a0a000d1
:104c5c00040f88009b40a9004f04be000000060012
:020000040000fa
:104c6c00a4a92000144278006142620004003a00ba
:104c7c00a4a9200014427800704262003500320072
:104c8c00d9010700c5568000c056880044a12000f9
:104c9c000043eb00944f1300060032006022b80072
:104cac0044508800555088000000eb00605088008c
:104cbc000000060046508000575080000500500050
:104ccc00cf80de000000430081804b004050880004
:104cdc0051508800d45680000402e800d456880055
:104cec000040eb0085022000850f520025003a00a1
:104cfc000002eb00d45688006650800040508000c3
:104d0c0051508000a4568000b5568000040250001b
:104d1c00858258000603e800cfb3de00040243008e
:104d2c0085824b004f2bde0006024200e0824a00d7
:104d3c008582d1000482d3006450880044508000e6
:104d4c0055508000a4568800b556880010c0b3009a
:104d5c0000000600a4a92000144278006242620000
:104d6c000040eb00804f520006003200cc050700db
:104d7c0040508800515088001b0307006050880089
:084d8c000040eb0000000600ee
:020000040000fa
:104d9400881f78005816800055168000541680002d
:104da4004922de00614262000804d1006404640008
:104db400c72ade00e28262000544740004447400e1
:104dc40002003200e74f540007003a000044eb00b1
:104dd40024ae2000084a780024c420001444a00013
:104de400ba0407002c00370024ae200014407800d9
:104df400884f50002700320072c0b3000440bc004a
:104e04000882fb000400410024bb200064427800b7
:104e1400e24f520007003a000044eb0024ae2000a9
:104e2400084a780024c420001464a000a7040700e2
:104e340019003700e14f520009003a00e45680009f
:104e4400cfa2de00f656800007578000060242001b
:104e540087824a00f4568800055788000a00370004
:104e6400e14f420008003a00e4568000cfa2de0081
:104e7400f6568000075780000402530085825b00c9
:104e8400f45688000557880024ae2000084a7800ac
:104e94000100370000447800084078004f0478008f
:044ea4000000060004
:020000040000fa
:104ea800843782009537820061024200e0824a001e
:104eb80084378a0095378a00663782007737820000
:104ec80061034300e0834b0066378a0077378a0026
:104ed80034508000e00f520003003200e10f42001e
:104ee80007003a000300370014002000145088001f
:104ef8001200370024a02000000aeb000f00370042
:104f08003450800005002000840f5300858f5b001b
:104f18000a0035006022b80064378a0075378a00b5
:104f280024a020009402780005f0a7008502ea007a
:104f38008502e900cf2ade00050a780024508000a7
:104f4800e00f520003003200e10f420007003a0070
:104f580003003700140020000450880000000600f9
:104f680004a02000000aeb00000006002650800084
:104f7800070020008437820095378200840f530091
:104f8800858f5b000a003c006022b80084378a00e5
:104f980095378a0004a020009402780005f0a70045
:104fa8008502ea008502e900cf2ade00050a7800ba
:044fb80000000600ef
:020000040000fa
:104fbc003600f800809fbe00829fbe00849fbe001a
:104fcc00869fbe00881f78008860a9000004a80096
:104fdc00040022005520800005026200020032000d
:104fec00140020001460880004002100552080006b
:104ffc00050262000004eb00880f5200050032002d
:10500c0034c420001424a0000482e8001404a0007e
:10501c00180020000480200055208000050262004a
:10502c000400320034c420001434a0000482e800d0
:10503c001414a0000410200055208000050262000a
:10504c000500320054c420001434a0000482e9008e
:10505c001444a0001454a000f40020005420880034
:10506c000004a90014608000e10f520001003a0016
:10507c0014040700e00f5400010032001104070073
:10508c004f0478004f03be004f02be004f01be001c
:0c509c004f00be003600f9000040060086
:020000040000fa
:1050a80010018000801f780020018000801f780098
:1050b80030018000801f780000378200600ab50048
:1050c80080027800f45280001301c0000400cd0073
:1050d8009453880010378200640ab50000037800f2
:1050e800375380001301c6000400cd00b453880074
:1050f8004f007800300188004f00780020018800b8
:105108004f007800100188000000060010018000a0
:10511800801f780020018000801f78003001800007
:10512800801f780000378200600ab500800278008e
:10513800f45280001301c0000400cd00945388008d
:1051480010378200640ab50080027800145380008a
:105158001301c0000400cd00a45388004f0078005c
:10516800300188004f007800200188004f00780047
:08517800100188000000060090
:020000040000fa
:10518000889fbe008a9fbe000004a8000003400064
:10519000060343000744200007044300c283de00e7
:1051a0008783430006422000868343004383de005a
:1051b000060343008941200009034300e18f5000aa
:1051c00008003a00e3846100e8844400429dde0068
:1051d000cfd5de00c550dd00018c440012049800dc
:1051e000050037004511dd00020c7800f27f200039
:1051f0000300200013049800e3006000c208dd00f3
:10520000f20020000111dd000281ea0017016100b7
:105210000122dd00840b710067026000040242007d
:1052200037002000843bdd008783ea00968363001b
:10523000042add00048b7300140020000020dd0030
:105240001424b7000004a9004f05be004f04be009f
:045250000000060054
:020000040000fa
:10525400042080000480a0000490a10004a0a10008
:1052640004208800060e200005022000072080008c
:1052740007026300850f5200fcff3a00f48f2f00f1
:1052840005402000950a6200050e200006208000db
:1052940006826200fdff3a0030e4a80031e4a80071
:1052a40032e4a80033e4a80034e4a90035e4a900fa
:1052b40036e4a90037e4a900c4ff2f000743200007
:1052c400970b6200f4cf2f0005432000950a62007b
:1052d400c4ff2f0026432000160b6200f4cf2f00da
:1052e40027432000970b620004fe2f003520800026
:1052f400050262000420a0003420880034208000cd
:1053040004d0a10004e0a00004f0a100342088002f
:105314000ca4a8009860a8009700a800b203070096
:04532400be0337008d
:020000040000fa
:105328000002eb0004198800141988002419880069
:105338002143a90047c0b30046322000074b78003c
:10534800151980000580a1000590a0001519880096
:105358002063a8002043a800051980000506b300b3
:105368000570a10005198800051980000530b300f3
:105378000519880035fc2f0026322000168b6200a4
:10538800941988002343a90044198800fd8242002b
:1053980047198000878262003500b30045198800ec
:1053a8002603a900041c8800041c80000440a100f6
:1053b8000450a000041c8800c4ff2f0005382000fa
:1053c800950a620081c3a90004302000441c8800ab
:1053d80034002000541c8800d4002000141c8800cd
:0c53e800046e2000241c88000000060059
:020000040000fa
:1053f400881f7800280f8000c46f24008040eb00d1
:1054040094cf10000b003a004561800085025400df
:1054140005f0a7008502ea0004022000848f5200f0
:10542400040034004861880015c0b300c46f240030
:10543400054a7800a46f24008042eb0094cf120048
:1054440012003200b46f240094cf12000f00320017
:10545400b5378200c43782008502ea008482520094
:10546400850f540004003500b537820004824200e1
:10547400840f540005003400e46f24001424a000b9
:1054840044c420001444a00010030700b437820071
:105494006140b900c003dd000600200011000900ce
:0c54a400443bd8004f04780000000600d4
:020000040000fa
:1054b000881f7800004478000043eb000882fb005e
:1054c0000500200086407800f2ff20000300200045
:1054d000064078008bfb07000043eb00f40020003f
:1054e0000500200011c0b300f2ff200003002000df
:1054f0000640780083fb07000884fb00047020004e
:10550000080272000043eb00cfa2de0021c0b3000e
:10551000f2ff2000030020000640780079fb07001e
:105520000043eb00f47020000500200031c0b30000
:10553000f2ff2000030020000640780071fb070006
:105540000043eb00f41020000500200041c0b30030
:10555000f2ff2000030020000640780069fb0700ee
:085560004f0478000000060072
:020000040000fa
:105568003600f800809fbe00829fbe00849fbe0068
:10557800869fbe000f02070049fe0700c70107000b
:10558800a4a9200014427800644262001700320087
:10559800443782000402e80044378a00f30f5200bf
:1055a800120034000002eb0044378a006df907004e
:1055b8008050880084508000e00f520004003d00b5
:1055c800945080000402e8009450880007003700d7
:1055d80085508000c4d82000848f52000300340016
:1055e80044c420001414a000b70207008460a90076
:1055f8004f03be004f02be004f01be004f00be0069
:085608003600f9000040060025
:020000040000fa
:1056100005002700143a8000848262000400230001
:10562000848f520020003200e4012000343a8800c8
:10563000f4f32f0045742000950a620004fe2f0049
:1056400046742000160b6200a509200036002000d9
:105650008407200037742000844b7800854b780045
:10566000864b780075052000160020006404200099
:1056700027742000844b7800854b7800864b780097
:105680000600270005002300173a80000702630088
:10569000850f5200fcff3a0005022000163a8000f8
:0c56a00006826200fdff320000000600e0
:020000040000fa
:1056ac0024aa2000940278001402780005a2b90004
:1056bc00f050800001518000d6508000e7508000ef
:1056cc000002520081825a004628dd004a22de0088
:1056dc0004027000caaade000402430085824b005b
:1056ec00d4508800e5508800d4508000e5508000ec
:1056fc00e00f5200e08f5a0003003d006022b8001a
:10570c00d4508800e5508800d6508000e7508000c7
:10571c00b4508000c5508000840f5300858f5b000f
:10572c000300340044c420001414a00065020700d8
:04573c000000060063
:020000040000fa
:105740000004a800000040000000400005432000c5
:1057500005004000e10f520011003a006112b8004c
:1057600063836100860378004299de00cf91de00fa
:10577000f67f200002016300e18f500004003a0030
:10578000e88343004511dd00028843000200370032
:105790004511dd0007084100140098000b00370098
:1057a000f47f200002016200e18f500003003a0004
:1057b0004511dd0068084100020037004511dd0099
:1057c000020878000002eb00140098000004a90011
:0457d00000000600cf
:020000040000fa
:1057d4003600f800809fbe00829fbe00849fbe00fa
:1057e400869fbe006022b800b4518800c55188006d
:1057f4000002eb001455880024558800a4a9200059
:10580400144278006442620008003a00543782006f
:105814000402e80054378a00f30f520003003400f6
:105824000002eb0054378a009fff0700a4a9200060
:1058340014427800624262000100320054fd070005
:1058440009fd07008500a9004f03be004f02be00fa
:105854004f01be004f00be003600f90000400600b4
:020000040000fa
:10586400889fbe000004be0002007800e861880042
:10587400f961880081020700c80207000002eb00fa
:10588400a40e8800c1e1a90095c32000844a7800d1
:1058940016c0b30085c42000864a78000804e900d5
:1058a400280e880075072000450e8800690e8800c0
:1058b400740e8800840e880025002000050e8800e0
:1058c400340e8800c7e1a80004002800651c2000ed
:1058d400950a6200f40f2f00a51c2000950a6200af
:0858e4004f04be0000000600a5
:020000040000fa
:1058ec00889fbe008a9fbe000004eb00281688002b
:1058fc008084eb0009168800681688004916880019
:10590c00ff020700f4fb2f00153a8000050262002d
:10591c006b0420007a052000257420008b4a780047
:10592c008a4a7800844a7800691988006602070060
:10593c00a5020700c602070046010700143a8000c2
:10594c000460a000257420008b4a78008a4a7800f5
:10595c00844a780008038800180388004f05be00ad
:08596c004f04be00000006001c
:020000040000fa
:10597400889fbe008a9fbe00b00007008004eb0031
:105984000afa20000b002000087122000a00be0061
:10599400fa0107008904e800888f5400fbff3a00ed
