:020000040000fa
:080000000002040000000000f2
:020000040000fa
:100008008037000060370000643700006837000060
:100018006c37000080370000803700008037000010
:10002800803700008037000080370000a62f0000ce
:100038006c0e000080370000803700008037000019
:10004800dc30000080370000803700008037000077
:1000580080370000803700005437000080370000e8
:100068008037000088370000803700008c3400009b
:10007800803700008037000080370000803700009c
:100088002616000080370000803700008037000007
:10009800803700008037000080370000803700007c
:1000a800803700008037000080370000d02c000027
:1000b800803700008037000080370000803700005c
:1000c800803700008037000080370000803700004c
:1000d800803700008037000080370000803700003c
:1000e800803700008037000080370000803700002c
:1000f800803700008037000080370000803700001c
:100108008037000080370000502900008037000049
:10011800803700008037000080370000a8310000d9
:1001280080370000803700008037000080370000eb
:1001380080370000803700008037000080370000db
:1001480080370000803700008037000080370000cb
:1001580080370000803700008037000080370000bb
:1001680080370000803700008037000080370000ab
:10017800803700008037000080370000803700009b
:10018800803700008037000080370000803700008b
:10019800803700008037000080370000803700007b
:1001a800803700008037000080370000803700006b
:1001b800803700008037000080370000803700005b
:1001c800803700008037000080370000803700004b
:1001d800803700008037000080370000803700003b
:1001e800803700008037000080370000803700002b
:0801f800803700008037000091
:020000040000fa
:10020800803700007037000074370000783700002e
:100218007c370000803700008037000080370000fe
:10022800803700008037000080370000a62f0000cc
:100238006c0e000080370000803700008037000017
:10024800dc30000080370000803700008037000075
:1002580080370000803700005437000080370000e6
:100268008037000088370000803700008c34000099
:10027800803700008037000080370000803700009a
:100288002616000080370000803700008037000005
:10029800803700008037000080370000803700007a
:1002a800803700008037000080370000d02c000025
:1002b800803700008037000080370000803700005a
:1002c800803700008037000080370000803700004a
:1002d800803700008037000080370000803700003a
:1002e800803700008037000080370000803700002a
:1002f800803700008037000080370000803700001a
:100308008037000080370000502900008037000047
:10031800803700008037000080370000a8310000d7
:1003280080370000803700008037000080370000e9
:1003380080370000803700008037000080370000d9
:1003480080370000803700008037000080370000c9
:1003580080370000803700008037000080370000b9
:1003680080370000803700008037000080370000a9
:100378008037000080370000803700008037000099
:100388008037000080370000803700008037000089
:100398008037000080370000803700008037000079
:1003a8008037000080370000803700008037000069
:1003b8008037000080370000803700008037000059
:1003c8008037000080370000803700008037000049
:1003d8008037000080370000803700008037000039
:1003e8008037000080370000803700008037000029
:0803f80080370000803700008f
:020000040000fa
:100400008fc420000e6d24000e0188000000000043
:10041000000020000000e000020032000001200087
:10042000200288000c00070000bb21000100200012
:1004300011000700000020000000e0000200320070
:100440000000020000000000e81d020000000000a3
:100450000040da000000fe004440a90040082000ef
:100460000000e0000300320000002000a00188002e
:100470004440a80000000600910188008000780038
:100480000000eb0015003700e280400032a0b4000d
:100490009101ba00e280400032a0b4009102ba009b
:1004a000e280400032a0b4000002eb00472bde00e7
:1004b000f507b200602ce10004003a000059eb009f
:1004c0008301e900fdff3e00040037006128e100e0
:1004d000010032000082eb00040007001101ba00a5
:1004e0000200e000e8ff3a00000006003159ba00bf
:1004f0008301e9000c0032002159ba008301e900b0
:10050000080032000400e00003003a00e2804000ee
:1005100032a0b400f5ff370011d9ba008301e90019
:10052000faff3a008100e800e180400032a0b40008
:100530000000060036060400000000000021ef0065
:100540001108880020088800000006000a21ef003a
:100550007108880090088800000006001421ef0050
:10056000d1088800f00888001e61a900000006007c
:1005700000088800000006005008880000000600ff
:10058000a008880000000600c008880000000600df
:100590003200f800023b8800910188000008bb008f
:1005a0000500fc0051052000313b8800a10a200015
:1005b000313b880061e7a800000000000000000057
:1005c0003200f900000006000400a100010037001d
:1005d0000400a0003200f8009101880011002400fe
:1005e000013b8800f10f20003208bb000400a70087
:1005f000b20078000198bb008301e900faff3a00dd
:10060000680151000400a700680151006800500013
:100610001208bb00e2ff3700f30f20003200f800a1
:100620009101880031002400013b88000208bb00d2
:100630000388bb00daff37003200f800003b880077
:10064000d7ff37003200f80091018800800278005f
:1006500062004000e08048003549ba003204e00002
:100660000410a700100032008301e9000e003200e0
:100670002549ba003204e0000410a7000a00320045
:100680008301e900080032000408a300eeff3200f5
:1006900015c9ba003204e0000410a70002003200bd
:1006a0008301e900e8ff3a003200f900000006008b
:1006b000889fbe008a9fbe008c1f7800ab00070099
:1006c000b200330003866c006450e1002e0032005b
:1006d0006420e100330032006150e1002f0032005d
:1006e0006120e1003100320085855500eb07b00044
:1006f0000900200008042000050037000804440019
:1007000089844c000a0031000603430087834b00b4
:100710000001530081815b00f8ff33000203be003b
:100720000800a0000804440089844c00f6ff39004a
:10073000c639dd0083017300010032001300200080
:100740008904d1000884d3000998a3000500320071
:100750000800a7000300a0008904d1000884d3008a
:100760008b05e8008904d1000884d3000001eb0068
:100770000281d2004200070001f0a1000cf0a700a6
:1007800001f0a0008a0037006420e1008c003200f4
:100790000801be000200be00f7ff37006120e10043
:1007a000870032006000b800f3ff3700000020002f
:1007b00001f82700f0ff3700839f68000100e00088
:1007c00002003d0060001000e08018000300e0001f
:1007d00002003d0060011100e0811900af00070038
:1007e0004f00e00002003b0060001000e0801800b5
:1007f0000000060014002000b80037000001be0011
:10080000450007000470a70003f0a1006509b100ce
:10081000160032000d0035006828e10006003500a2
:10082000f0ff2f00f1ff27000300e00013003b0062
:100830000100280000000500000040008180480001
:100840008502e900fcff3a0008003700f88f4200fb
:1008500002003c008000eb00000005008100d10098
:100860000080d3008502e800fcff3a000300e000ae
:1008700002003b0060001000e0801800000006004d
:1008800081002000618055000b003d000b0020001e
:1008900061fe2f000100e1001d0034008281710023
:1008a000610164008904d1000884d3000000e800dd
:1008b000faff3a007100200061006400030070003c
:1008c000020060000900320061044400e0844c0032
:1008d0000988a500050032008b05e8006808e100e2
:1008e00002003a008904d1000884d300f20f2000ee
:1008f0000258e10005003d00c75ddd00f907b200c8
:100900008980750008007800000006000bf82700b9
:100910008b00780000000500c70ade00f107b20076
:10092000f50fb20008003200e1cf420002003200b1
:100930000170a00024000500810f7000010032004a
:100940000408050044000500810f700002003a0011
:10095000140005008502e9000000400081c0480045
:10096000fcff3b000170a000240005000004be0055
:10097000e9ff07000003be000405be000200be0040
:10098000e5ff0700844f7500000006000200be006e
:100990006450e100050036006420e10002003600ea
:1009a0000968a30001003a000800be000160a00031
:1009b0004f0678004f05be004f04be000000060041
:1009c000f0ff2f00f1ff2700f9ff3700889fbe00de
:1009d0008a9fbe008c1f7800e4ff0700ebff330006
:1009e00003866c006450e100240032006420e100c2
:1009f000270032006150e100220032006120e10056
:100a0000210032008b854200eb07b1000134b800b1
:100a1000003ab8000804420089844a00013ab8004c
:100a20000030b8008880400009014a00040033000b
:100a30000000400081804800020149008b05e90068
:100a4000c909dd008301700001003200130020009d
:100a5000c814de004814dd004709de001200b200b1
:100a6000c808de000884700085ff070001f0a100bf
:100a70000cf0a70001f0a000cdff37006120e100dd
:100a8000cfff32000801be000200be00f7ff3700b2
:100a90006150e100fcff3a00c9ff37006022b80056
:100aa000060220000000d0008180d2000482d20023
:100ab0008582d2000000a0000202520083825a0008
:100ac000030031000202420083824a000000a100bc
:100ad0000603e900f3ff3a0000000600889fbe000d
:100ae0008a9fbe00841f7800a0ff07004f00780097
:100af00011003300f0ff2f00838f6c0006003b00d5
:100b0000040565000a00a7000800370009f0a600e8
:100b10001000200008003700820f5400838f5c0013
:100b2000030039001000200001003e0000002000fa
:100b300009f0a7000000ea004f05be004f04be0008
:100b40000000e0000000060000027800020037000c
:100b5000315a78000201e900e00f5100fcff3a0031
:040b6000000006008b
:020000040000fa
:100b6400000600000201000004050000030000006c
:100b7400000000004a01000094020000de030000af
:100b84002705000070060000b907000001090000f5
:100b9400480a00008f0b0000d50c0000190e00005d
:100ba4005d0f00009f100000e01100002013000002
:100bb4005e1400009b150000d61600000f180000fc
:100bc400461900007b1a0000af1b0000e01c000067
:100bd4000e1e00003b1f0000652000008c21000059
:100be400b1220000d3230000f3240000ff7f0000a3
:100bf400fb7f0000ec7f0000d37f0000b07f00008b
:100c0400837f00004c7f00000b7f0000c17e00004a
:100c14006c7e00000e7e0000a57d0000337d000088
:100c2400b87c0000327c0000a37b00000a7b00003b
:100c3400687a0000bc79000006790000477800005b
:100c44007f770000ad760000d3750000ef740000dc
:100c5400017400000b7300000c72000004710000aa
:080c6400f36f0000d96e0000df
:020000040000fa
:100c6c00ee874700889fbe008a9fbe008c9fbe0007
:100c7c008e1f7800800578000470200004826500c7
:100c8c0005002000c828dd004822de000482700028
:100c9c00c82ade0004457800e14f55008a03320073
:100cac00050039008040eb000002eb00e74f5500d7
:100cbc00f0033a00ce03370093427800e9cf52009c
:100ccc000c003a008040eb000002eb00e24f5100b8
:100cdc00e8033a0065bf200095cf1000e503320011
:100cec0013409000d31707008040eb001400200045
:100cfc00e0033700e7cf52000c003a008040eb00d5
:100d0c000002eb00e14f5100da033a0074c0b3006b
:100d1c00e4e79f00846e240014427800f4e79f00ff
:100d2c0021c0b30014002000d203370034c3b30039
:100d3c0084cf52000c003a008040eb000002eb0024
:100d4c00e14f5100cb033a0034c3b300e4e79f00fa
:100d5c0074bf200014427800f4e79f0021c0b30058
:100d6c0014002000c303370024c3b30084cf520007
:100d7c003e003a008040eb000002eb00e24f5100d5
:100d8c00bc033a00846e240094cf1000050032009e
:100d9c000002eb0005cbb300866e240096cf120048
:100dac00b4033a001340900078bf2000004c780048
:100dbc002f18070018407800331407000002eb00ce
:100dcc008304200002b62000000025001100200042
:100ddc0019fe070022042400000025001100200049
:100dec00e8fd070009b62000184278000482fb00d9
:100dfc0005002000848cbe000c042000090646006f
:100e0c0014c0b300044e78000c02e800004aeb005a
:100e1c00c4aa2c00145d880002042000890078000c
:100e2c000080eb002a170700640246000004eb0068
:100e3c00000a7800180298000304200009017800c9
:100e4c000000250011002000dcfd07000304200039
:100e5c000c0178000004250011002000d7fd0700cc
:100e6c0088407800140020008203370084c4b3004b
:100e7c0084cf52002c003a008040eb000002eb00c3
:100e8c0065bf200095cf10007a033200e54f51006a
:100e9c000e003a00a3409000c808dd0013429000f9
:100eac000482fb0081027200240020001100090062
:100ebc008402d80002e2240085007800981507000f
:100ecc008040eb00140020006a0337008040eb00e8
:100edc000002eb00e84f510066033a0073419000aa
:100eec004811dd00634290000482fb000201720095
:100efc00d3409000c808dd00434290000482fb0000
:100f0c0081007200334090004800dd0023429000c5
:100f1c000482fb0000007200811507008040eb008a
:100f2c00140020005303370074c7b30084cf520061
:100f3c003e003a008040eb000002eb00e64f51000f
:100f4c004c03360065bf200095cf100049033200da
:100f5c00934290008582fb0024a920001443780062
:100f6c00054a78000402e80094427800004aeb003d
:100f7c00a34290008582fb00334390004833dd0090
:100f8c0064c12000050a7300c34290008582fb00f7
:100f9c00534390004833dd000482e800050a7300d7
:100fac00634390000683fb000603d100e602420077
:100fbc00864a78008080eb00948f100008003a007d
:100fcc0024a920001454a00015c0b300f4c12000c3
:100fdc00054a780067025200000aeb000200370055
:100fec00f4c12000004aeb0044022000e84f5100fd
:100ffc0002003a00734290000482fb00e460880017
:10100c0024a9200014427800e14262008040eb00e9
:10101c001400200081cf52001603320024a92000b6
:10102c001444a1001400200012033700b4c5b3000f
:10103c0084cf520021003a008040eb000002eb000c
:10104c00e34f51000b033a002343900013429000ee
:10105c008002eb00e14f520005003a008642780016
:10106c0065c0b2008582fb008502e900cf2ade0054
:10107c0064bf2000054a7800b5c5b300e5e79f00c2
:10108c0081c0b300f1e79f0035c0b30085ef9f002e
:10109c0095ef9f0015c0b300a5ef9f00b5ef9f0023
:1010ac0065c0b300c5ef9f0094427800d5ef9f0058
:1010bc001442780014002000ee02370054c6b3002e
:1010cc0084cf5200f5003a008040eb000002eb00a8
:1010dc0065bf200095cf1000e6023200e84f5100aa
:1010ec0009003a007341900063824100940078003b
:1010fc008301e80013007800bd1507008040eb0069
:10110c0014002000db0237008040eb000002eb00f3
:10111c00e64f5100d7023a0013429000e14f5200c3
:10112c0003003200e24f520061023a000500370022
:10113c0013029000a30290002460880035608800a0
:10114c000400370013029000a30290000460880092
:10115c00156088002e6080003560800085bf9f0080
:10116c000c6080001d6080000c01be000fba97005f
:10117c000e007800840078009bfd0700e00f500003
:10118c00030035000e0478008fbc97000100370077
:10119c000c04be000200200003f823000800be006f
:1011ac0091fd0700e00f50009b003500020020006d
:1011bc00030024000800be008bfd0700e00f500068
:1011cc005d00350002002000030824000800be006a
:1011dc0085fd0700e00f50005b0035000200200089
:1011ec00031024000800be007ffd0700e00f500034
:1011fc005900350002002000031824000800be002e
:10120c0079fd0700e00f5000570035000200200068
:10121c00032024000800be0073fd0700e00f5000ff
:10122c005500350002002000032824000800be00f1
:10123c006dfd0700e00f5000530035000200200048
:10124c00033024000800be0067fd0700e00f5000cb
:10125c005100350002002000033824000800be00b5
:10126c0061fd0700e00f50004f0035000200200028
:10127c00034024000800be005bfd0700e00f500097
:10128c004d00350002002000034824000800be0079
:10129c0055fd0700e00f50004b0035000200200008
:1012ac00035024000800be004ffd0700e00f500063
:1012bc004900350002002000035824000800be003d
:1012cc0049fd0700e00f50004700350002002000e8
:1012dc00036024000800be0043fd0700e00f50002f
:1012ec004500350002002000036824000800be0001
:1012fc003dfd0700e00f50004300350002002000c8
:10130c0003702c0088027800090278000500780030
:10131c008400780034fd07008040eb000002eb00f5
:10132c00e00f500053023d00f400200008002000a4
:10133c0009702c003b00370014002000080020002e
:10134c00090024003700370024002000080020008a
:10135c000908240033003700340020000800200066
:10136c00091024002f003700440020000800200042
:10137c00091824002b00370054002000080020001e
:10138c0009202400270037006400200008002000fa
:10139c0009282400230037007400200008002000d6
:1013ac00093024001f0037008400200008002000b2
:1013bc00093824001b00370094002000080020008e
:1013cc000940240017003700a4002000080020006a
:1013dc000948240013003700b40020000800200046
:1013ec00095024000f003700c40020000800200022
:1013fc00095824000b003700d400200008002000fe
:10140c000960240007003700e400200008002000d9
:10141c0009682400030037000800200009f82300a5
:10142c000002eb00f5c0b30084c25200e5ef9f0050
:10143c0002002000037024008c0278000d0278005a
:10144c0005007800840078005dfd07000801be00ef
:10145c0094fc0700e6fc0700000678000200200060
:10146c00037024008e0278000fba970005007800f4
:10147c008400780052fd07000801be0089fc0700bb
:10148c00dbfc07006fe997008c007800d81407008c
:10149c008040eb0014002000f601370094c6b30026
:1014ac0084cf5200f5003a008040eb000002eb00c4
:1014bc0065bf200095cf1000ee013200e84f5100bf
:1014cc0009003a0073419000638241009400780057
:1014dc008301e80013007800d71407008040eb006c
:1014ec0014002000e30137008040eb000002eb0009
:1014fc00e64f5100df013a0013429000e14f5200d9
:10150c0003003200e24f52006c013a000500370034
:10151c0013029000a3029000e45f8800f55f88003e
:10152c000400370013029000a3029000c45f8800ef
:10153c00d55f8800ee5f8000f55f800085bf9f005f
:10154c00cc5f8000dd5f80000c01be000fba9700fd
:10155c000e00780084007800a3fc0700e00f500018
:10156c00030035000e0478008fbc97000100370093
:10157c000c04be000200200003f823000800be008b
:10158c0099fc0700e00f50009b0035000200200082
:10159c00030024000800be0093fc0700e00f50007d
:1015ac005d00350002002000030824000800be0086
:1015bc008dfc0700e00f50005b003500020020009e
:1015cc00031024000800be0087fc0700e00f500049
:1015dc005900350002002000031824000800be004a
:1015ec0081fc0700e00f500057003500020020007e
:1015fc00032024000800be007bfc0700e00f500015
:10160c005500350002002000032824000800be000d
:10161c0075fc0700e00f500053003500020020005d
:10162c00033024000800be006ffc0700e00f5000e0
:10163c005100350002002000033824000800be00d1
:10164c0069fc0700e00f50004f003500020020003d
:10165c00034024000800be0063fc0700e00f5000ac
:10166c004d00350002002000034824000800be0095
:10167c005dfc0700e00f50004b003500020020001d
:10168c00035024000800be0057fc0700e00f500078
:10169c004900350002002000035824000800be0059
:1016ac0051fc0700e00f50004700350002002000fd
:1016bc00036024000800be004bfc0700e00f500044
:1016cc004500350002002000036824000800be001d
:1016dc0045fc0700e00f50004300350002002000dd
:1016ec0003702c008802780009027800050078004d
:1016fc00840078003cfc07008040eb000002eb000b
:10170c00e00f50005b013d00f400200008002000b9
:10171c0009702c003b00370014002000080020004a
:10172c0009002400370037002400200008002000a6
:10173c000908240033003700340020000800200082
:10174c00091024002f00370044002000080020005e
:10175c00091824002b00370054002000080020003a
:10176c000920240027003700640020000800200016
:10177c0009282400230037007400200008002000f2
:10178c00093024001f0037008400200008002000ce
:10179c00093824001b0037009400200008002000aa
:1017ac000940240017003700a40020000800200086
:1017bc000948240013003700b40020000800200062
:1017cc00095024000f003700c4002000080020003e
:1017dc00095824000b003700d4002000080020001a
:1017ec000960240007003700e400200008002000f6
:1017fc0009682400030037000800200009f82300c2
:10180c000002eb00f5c0b30084c25200e5ef9f006c
:10181c0002002000037024008c0278000d02780076
:10182c00050078008400780065fc07000801be0004
:10183c009cfb0700eefb070000067800020020006e
:10184c00037024008e0278000fba97000500780010
:10185c00840078005afc07000801be0091fb0700c9
:10186c00e3fb07006fe997008c007800f213070088
:10187c008040eb0014002000fe003700f7cf520030
:10188c001d003a008040eb000002eb00e54f5100d8
:10189c00f8003a0065bf200095cf1000f50032002b
:1018ac00846e240014427800ea4252008140780091
:1018bc000002eb00e1cf5200ee003e00234390000b
:1018cc004833dd00134290000482fb0085a9200000
:1018dc00840a73001502780014002000060028000a
:1018ec00950f1300e3003a0014002800c45488003c
:1018fc0014002000df00370024c7b30084cf52004f
:10190c0023003a008040eb000002eb00e34f510053
:10191c00d8003a0065bf200095cf1000d5003200ea
:10192c008140780005c5b300866e240096cf120066
:10193c00d0003a00234390004833dd0093429000de
:10194c008582fb0044a92000050a7300054026008f
:10195c00948f12000400340005027800a45488000f
:10196c0014002000c3003700a65480008040eb0018
:10197c001400200005c02900850f5300bd003d0058
:10198c0005027800a454880014002000b900370028
:10199c00d4c6b30084cf520027003a008040eb003d
:1019ac000002eb00e54f5100b2003a0065bf200089
:1019bc0095cf1000af00320081407800856e240076
:1019cc0066c0b300954f1300aa003a002343900061
:1019dc004833dd00934290008582fb0064a920000f
:1019ec00050a73009402780004518000848f520021
:1019fc000500340001518000b15488008040eb0098
:101a0c00140020009b003700b65480000551800064
:101a1c008502ea008040eb0014002000850f530083
:101a2c0094003d000551800064a92000050aea00dd
:101a3c00140020008f003700e4c6b30084cf52009e
:101a4c0011003a008040eb000002eb00e14f510026
:101a5c0088003a00e4c6b300e4e79f007a87570099
:101a6c0064a92000146f7800144290001447980069
:101a7c0001427800a4ef9f0094ef9f0051c0b30087
:101a8c00140020007b0037008040eb000002eb00cc
:101a9c0006c7b30086cf520076003a00140020002f
:101aac00e54f5100730032000002eb00710037006b
:101abc008040eb000002eb006e0037008040eb0032
:101acc000002eb006b003700efc265000002eb0078
:101adc00efcf520044003a00843e200054378a0075
:101aec0074bf2000144278008482fb0005834200fe
:101afc000281fb000002eb00820f53003a003c0015
:101b0c008502e9008582420063c27a000482fb00f0
:101b1c008582410095429000c82add008502720042
:101b2c00846e240014427800e64f520014003200f8
:101b3c0005003e00e04f520028003200e24f5200f8
:101b4c0027003a0008003700ea4f52002400390001
:101b5c00eb4f52000400360006c5b300864f52000e
:101b6c001f003a001300370004002800848f520035
:101b7c0001003a0015002800c554880018003700f1
:101b8c0004518000848f5200020034000551800003
:101b9c0006003700045180000402ea00848f5200d2
:101bac0002003d00055180008502ea00b554880012
:101bbc000b00370004c02900848f520001003d0047
:101bcc008402780004402600848f52000100340007
:101bdc0084027800a554880001003700b212070077
:101bec00920a0700140020008040eb00210037000f
:101bfc0093427800e1cf420010003a008040eb00a5
:101c0c000002eb00e14f51001a003a0000c2eb0059
:101c1c00e4e79f0084c0b300f4e79f0034c0b30036
:101c2c0084ef9f0094ef9f0014c0b300a4ef9f00bb
:101c3c0051c0b300140020000e003700e0cf52005a
:101c4c0004003a000000fe008040eb00140020006d
:101c5c00080037008040eb0014002000eccf52004d
:101c6c00040032000002eb00edcf520001003a00fc
:101c7c0014002000e00f52000e003200e0cf5000a4
:101c8c000c003200670565004855dd0074bf20006c
:101c9c00144278000482fb004422dd000a05720025
:101cac000b0fb2004458de00000075007a8157001b
:101cbc00581407004f0778004f06be004f05be00b2
:0c1ccc004f04be00ef00b1000000060055
:020000040000fa
:101cd8003600f800809fbe00829fbe00849fbe0031
:101ce800869fbe00889fbe008a9fbe008c1f78001a
:101cf800440f200024028800620f070063a7200019
:101d080013037800e4834100970278003400200030
:101d1800110009000403d8008000fd008109780043
:101d28000603ea0005035300110009000403d80064
:101d3800c0538800110009008402d800800b780085
:101d480024a9200014427800614262008004eb005c
:101d58000a00320024a120008040eb0094cf10003c
:101d68000400320080a320004d050700800478009d
:101d7800020037008c12070080047800330e070039
:101d88000045780024a920001442780062426200cd
:101d980005003200760e07000082fb00255b280054
:101da80065447a0004003700c803200011000900c8
:101db8008804d8000044e80034aa2000944f140096
:101dc800c500320024a92000144278007042620045
:101dd800120032003414070024a120000041eb0057
:101de800944f11000d003a00a4378200800f520072
:101df80009003a0024aa2000944f1400070032007a
:101e080064c320001434a00044c420001444a0007b
:101e18001213070001003700a0378a0024a9200008
:101e280014427800614262004c00320024a920006c
:101e38001442780062426200480032001a14070017
:101e480094378200800f520009003a0024aa20002b
:101e5800944f14000700320064c320001434a0001b
:101e680044c420001444a000fc12070001003700fd
:101e780090378a00e14f540013003a0034aa20003a
:101e880065c0b30094cf12000f003a007e82440070
:101e98002455880075162000850f52005f03340012
:101ea80064eb2f00090242002455880065c0b30086
:101eb80024aa2000054a780015c0b30034aa2000df
:101ec800054a780037003700e64f540011003a0001
:101ed80034aa200016c0b300944f13000d003a0036
:101ee8007e8254002455880051033b00a41420002e
:101ef80009024200245588008642780024aa20005e
:101f0800054a780065c0b30034aa2000054a780065
:101f18006500370034aa2000944f540009003400ab
:101f28007e8244002455880075162000850f5200d3
:101f38000a00340064eb2f0009024200245588008f
:101f4800060037007e8254002455880003003b00b9
:101f5800a4142000090242002455880034aa200055
:101f680025aa2000944a7800084a78000802fb0055
:101f7800cfa2de0061025200e0825a00e50f520053
:101f8800e08f5a0054003e0004600100050037004d
:101f9800110037001d0037002900370035003700d1
:101fa8004100370064a720005455880004ab200086
:101fb800b455880084a7200044558800e4aa20006e
:101fc800a4558800a4a7200034558800c4aa20007e
:101fd800945588004000370064a7200054558800b5
:101fe80004ab2000b4558800a4a7200044558800fd
:101ff800c4aa2000a455880084a72000345588006e
:10200800e4aa2000945588003300370084a72000f4
:1020180054558800e4aa2000b4558800a4a72000dd
:1020280044558800c4aa2000a455880064a720004d
:102038003455880004ab20009455880026003700ea
:1020480084a7200054558800e4aa2000b4558800cd
:1020580064a720004455880004ab2000a4558800dc
:10206800a4a7200034558800c4aa200094558800ed
:1020780019003700a4a7200054558800c4aa2000de
:10208800b455880064a720004455880004ab20009c
:10209800a455880084a7200034558800e4aa2000ad
:1020a800945588000c003700a4a7200054558800d8
:1020b800c4aa2000b455880084a72000445588008d
:1020c800e4aa2000a455880064a72000345588009d
:1020d80004ab2000945588000804fb00240020006d
:1020e800110009000404d8000146780024a9200042
:1020f80014427800624262001700320024a92000ce
:1021080014427800e14262000002eb002000320035
:102118002455800004825400350b2000850f52009e
:10212800020034008416b10004003700c5f42f0003
:10213800850f520001003d008416b000fe0f4200da
:1021480001003d0024fe2f00fe0f5200060034005f
:10215800e401200004003700c40320001100090036
:102168008404d8007e825000e00f520008003d0031
:102178000402ea0004024200855f2800e5047a00b0
:10218800a55b280065047a000804ea00050037000a
:1021980004024200855f2800e5047a00a55b280058
:1021a80065047a00e04f560025003200555580003e
:1021b8004455800095037800148053000980b900c5
:1021c80036558000160178000891b900c11bdd0062
:1021d8004f11de0002817300cf99de00d7ff2f0078
:1021e8000791b900c10bdd004f00de0000807300cd
:1021f800cf88de00a7a92000800b410016007800d8
:102208000980b900950278001483520008b3b90018
:10221800cf8ade004109dd004f02de0004027100b2
:102228008402ea00413add004f33de000603720003
:10223800cfbbde00c4a92000068a52002200370066
:10224800555580004455800015037800140053004c
:102258000980b90036558000160178000891b90048
:10226800c11bdd004f11de0002817300cf99de0033
:102278006311b900c10bdd004f00de000080730060
:10228800cf88de00a7a92000800b41001600780047
:102298000980b900950278001483520008b3b90088
:1022a8004109dd004f00de0000007100cf88de002c
:1022b800413add004f33de0006037200cfbbde007b
:1022c800c4a92000060a500024a120008042eb0087
:1022d80094cf1200ca003a00846e24001442780099
:1022e8006a425200e14f520092003e00854f55006d
:1022f800c3003200c554800064508000048252003c
:10230800856e2400b6c0b300954f13005a003a00fa
:10231800d2518000d0518000e6518000f7518000f2
:1023280000004200cf80de000000430081804b00a7
:1023380002015200cf91de00441bdd00cc13de0009
:10234800870373004413dd000003430081834b00bf
:10235800e6518800f751880000518000e65180005e
:10236800f7518000cf80de00860f5000878f58001d
:1023780005003d0006518000cfb3de00e65188001d
:10238800f75188000d00370000518000e6518000a9
:10239800f75180000000ea00cf80de00860f500071
:1023a800878f580005003400065180000603ea00b4
:1023b800cfb3de00e6518800f7518800656f24002e
:1023c8008043eb0095cf130027003200e6518000d0
:1023d800f7518000e00f5300e08f5b0011003400dc
:1023e800c0518000e6518000f7518000cf80de00a8
:1023f800860f5000878f580004003d00c5518000ab
:102408008502e800c551880048003700e651800081
:10241800f7518000c6518800656f2400804aeb00a0
:1024280042003700c0518000e6518000f75180001b
:10243800cf80de00860f5000878f580004003400dc
:10244800c55180008502e900c55188003700370072
:10245800e6518000f7518000c6518800656f24005e
:10246800804aeb0031003700e6518000f7518000c8
:10247800c65188002d00370060378200d251800095
:10248800020152000091b90075378200d0518000d6
:10249800000042000580b900a6518000b7518000b5
:1024a80002004000838048000003430081834b0002
:1024b800a6518800b7518800a0518000b151800012
:1024c800b6528000c7528000860f5000878f580090
:1024d80005003400b0528000c1528000a05188002d
:1024e800b15188000f003700b0528000c1528000ff
:1024f800a6518000b751800060001000e0801800ed
:10250800860f5000878f580006003400b6528000ae
:10251800c752800060031300e0831b00a6518800a7
:10252800b75188008002eb00c5518800d45188005b
:1025380033003700846e240061c0b30094cf1000cc
:1025480015003a006022b800a4518800b5518800ef
:10255800b2548000c2518800c551800004518000e7
:10256800848f52000300340004518000c451880055
:102578002300370005518000c45180008502ea001d
:10258800848f52001e003400045180000402ea00c7
:10259800c45188001a00370004c5b300856e2400b2
:1025a800954f120011003a00a6548000cfb3de0008
:1025b80004a520009402fb00e58252000600be003c
:1025c800050178000201e900030033000000400023
:1025d80081804800fbff3700a0518800b151880076
:1025e8000002eb00c4518800050037006022b800e3
:1025f800a4518800b55188000002eb00c45188003e
:10260800846e2400b5c0b30094cf120007003200d6
:1026180066c0b300944f13000400320024a12000c8
:102628008043eb0094cf13003c003200c55180007a
:10263800d454800004825200625280000552800007
:102648008502520002a9b900765280000552800026
:102658008502420006abb90040518000515180000c
:102668000203430083834b0006034000878348002e
:10267800465188005751880004528800465180000e
:102688005751800094528000a5528000840f530057
:10269800858f5b000500340090528000a1528000b5
:1026a80040518800515188000f0037009652800031
:1026b800a7528000445180005551800060031300e8
:1026c800e0831b00840f5300858f5b0006003400f5
:1026d80094528000a552800060021200e0821a0025
:1026e8004451880055518800465180005751800058
:1026f80004a520009402fb000600be000501780036
:102708000201e900030033008180d1000080d3007a
:10271800fbff3700800578008a003700d554800019
:1027280004518000848f52000400340015c0b300a7
:1027380044a42000054a780007003700d5548000db
:10274800045180000402ea00848f520002003d0018
:1027580044a4200000caeb0044a420008042eb00ff
:1027680094cf12005a00320016c0b300944f1300e1
:1027780021003a0005518000d454800004825200a0
:102788006052800002528000020152000091b9009c
:102798007552800000528000000042000580b90098
:1027a8006651800077518000020040008380480015
:1027b8000003430081834b006651880077518800ed
:1027c800045288006451800075518000e00f520067
:1027d800e08f5a002d0035006022b800645188004f
:1027e8007551880044a42000004aeb000002eb0069
:1027f800045288002500370044a4200080c3eb0061
:1028080094cf130021003a0005518000d454800071
:102818008502ea0004825200605280000252800061
:10282800020152000091b9007552800000528000e8
:10283800000042000580b900665180007751800091
:1028480002004000838048000003430081834b005e
:1028580066518800775188000452880064518000ce
:1028680075518000e00f5200e08f5a0007003c00cd
:102878006022b800645188007551880044a4200083
:10288800004aeb000002eb0004528800a4518000cb
:10289800b5518000665180007751800006034200e0
:1028a80087834a0004a520009402fb000600be00ae
:1028b800050178000201e900030033008180d1009e
:1028c8000080d300fbff3700800578001d0037002b
:1028d80004c5b300856e2400954f12000d003a0020
:1028e800a6518000b751800004a520009402fb0087
:1028f8000600be00050178000201e900030033006c
:102908008180d1000080d300fbff3700800578006c
:102918000c003700a6518000b7518000046f2400d6
:102928009402fb000600be00050178000201e900e0
:10293800030033008180d1000080d300fbff370003
:1029480080057800e45480000402ea0066528000a2
:1029580012528000020152000691b900755280009f
:10296800165280000603420005b3b900805180006a
:10297800915180000203430083834b00060340000b
:102988008783480086518800975188001452880030
:10299800865180009751800094528000a552800093
:1029a800840f5300858f5b0005003400945280002b
:1029b800a552800084518800955188000f00370087
:1029c80096528000a7528000845180009551800063
:1029d80060031300e0831b00840f5300858f5b00a6
:1029e8000600340094528000a55280006002120054
:1029f800e0821a0084518800955188008651800031
:102a08009751800004a520009402fb000600be0038
:102a1800050178000201e900030033008180d1003c
:102a28000080d300fbff3700000578002403200056
:102a3800f7ff270016032000060037000402e9000c
:102a480004003a0044c420001474a00003100700d6
:102a580007003700150e8000e08f520004003d008b
:102a6800100e800080826300868f5200f3ff3600cc
:102a780054378200e00f52000900340054378200b6
:102a88000402e90054378a0054378200e00f5200ec
:102a980003003a0034c420001414a000ef0f07000c
:102aa80009dbb90008d0b9004109dd004f00de009c
:102ab80000007100cf88de00d5ff2f000582b90025
:102ac8004138dd004f33de0006037000cfbbde0067
:102ad8000602420008dbb90009d5b900c158dd007b
:102ae8004f55de000a857000cfddde00cfbcde006a
:102af8004139dd004f34de00080471000804450048
:102b0800e04f5600010032000804ea00b555800085
:102b1800880a520095558000880a44000402ea0099
:102b2800a5558000880a52006255800071558000c2
:102b3800805580000b08070024a920001442780063
:102b4800644262002b003a00045580000402e80049
:102b580004558800f30f5200260034000002eb00f1
:102b680004558800a4a920001400780014027800f5
:102b780000a0b900e4508000f5508000c6508000e5
:102b8800d750800004025000858258004628dd0096
:102b98004a22de0004027000caaade0004024300d2
:102ba80085824b00c4508800d5508800c4508000ee
:102bb800d5508000e00f5200e08f5a0003003d001e
:102bc8006022b800c4508800d5508800c6508000e4
:102bd800d7508000a4508000b5508000840f530067
:102be800858f5b000300340044c420001414a00047
:102bf8009a0f07008480a9004f0678004f05be0091
:102c08004f04be004f03be004f02be004f01be007e
:102c18004f00be003600f9000040060034aa20002c
:102c280025aa2000944a7800084a7800ddfc37007d
:102c380034aa200025aa2000944a7800084a78007f
:042c480019fd37003b
:020000040000fa
:102c4c003600f800809fbe00829fbe00849fbe00ad
:102c5c00869fbe00889fbe008a9fbe008c9fbe00d0
:102c6c000800fa008700a9004a208000fa03b2008d
:102c7c001c0020000a66dd00052180000c82620029
:102c8c002b0132000d7824004455dd000a854600e6
:102c9c00ca459000ef856500e88f550003003400ad
:102cac0054c420001444a0008b0020009a427800e9
:102cbc0061c2620008003a000582fb004222de007d
:102ccc001a4490007f0464004644dd00080472003e
:102cdc00090020001e0037005a4490000884fb00b5
:102cec004244de000884fb000900200009f0a0002b
:102cfc002a4290000482fb003a4390006f03630069
:102d0c004833dd000603720007002000463add0060
:102d1c00ca32de00850272004632dd000404740003
:102d2c00858474009a4278000582fb004222de0002
:102d3c001a4390007f0363004633dd0006037200e4
:102d4c00c232dd000002eb000404740085847400c0
:102d5c00e60045000b0178006880570077f7070004
:102d6c000c86ea000c2188005a42900062426200f4
:102d7c0006003a00e88157000b4178000800be00bd
:102d8c00e45e8000040001000200370054c42000ff
:102d9c001424a0004a208000fa03b2001c0020007a
:102dac000a66dd00052180000c826200e200320020
:102dbc004455dd000a854600ca459000ef85650044
:102dcc00e88f55000300340054c420001444a000c4
:102ddc008b0020009a42780061c2620008003a0021
:102dec000582fb004222de001a4490007f0464003e
:102dfc004644dd0008047200090020001e00370064
:102e0c005a4490000884fb004244de000884fb0016
:102e1c000900200009f0a0002a4290000482fb0067
:102e2c003a4390006f0363004833dd0006037200e1
:102e3c0007002000463add00ca32de00850272002f
:102e4c004632dd0004047400858474009a427800d4
:102e5c000582fb004222de001a4390007f036300d0
:102e6c004633dd0006037200c232dd000002eb00c7
:102e7c000404740085847400e60045000b0178009e
:102e8c00688057002df707000c86ea000c2188009b
:102e9c005a4290006242620006003a00e8815700f4
:102eac000b4178000800be00e45e800004000100c5
:102ebc000200370054c420001424a0004a208000d3
:102ecc00fa03b2001c0020000a66dd000521800018
:102edc000c8262009a0032004455dd000a854600df
:102eec00ca459000ef856500e88f5500030034005b
:102efc0054c420001444a0008b0020009a42780097
:102f0c0061c2620008003a000582fb004222de002a
:102f1c001a4490007f0464004644dd0008047200eb
:102f2c00090020001e0037005a4490000884fb0062
:102f3c004244de000884fb000900200009f0a000d8
:102f4c002a4290000482fb003a4390006f03630016
:102f5c004833dd000603720007002000463add000e
:102f6c00ca32de00850272004632dd0004047400b1
:102f7c00858474009a4278000582fb004222de00b0
:102f8c001a4390007f0363004633dd000603720092
:102f9c00c232dd000002eb0004047400858474006e
:102fac00e60045000b01780068805700e3f6070047
:102fbc000c86ea000c2188005a42900062426200a2
:102fcc0006003a00e88157000b4178000800be006b
:102fdc00e45e8000040001000200370054c42000ad
:102fec001424a0004a208000fa03b2001c00200028
:102ffc000a66dd00052180000c826200520032005e
:10300c004455dd000a854600ca459000ef856500f1
:10301c00e88f55000300340054c420001444a00071
:10302c008b0020009a42780061c2620008003a00ce
:10303c000582fb004222de001a4490007f046400eb
:10304c004644dd0008047200090020001e00370011
:10305c005a4490000884fb004244de000884fb00c4
:10306c000900200009f0a0002a4290000482fb0015
:10307c003a4390006f0363004833dd00060372008f
:10308c0007002000463add00ca32de0085027200dd
:10309c004632dd0004047400858474009a42780082
:1030ac000582fb004222de001a4390007f0363007e
:1030bc004633dd0006037200c232dd000002eb0075
:1030cc000404740085847400e60045000b0178004c
:1030dc006880570099f607000c86ea000c218800de
:1030ec005a4290006242620006003a00e8815700a2
:1030fc000b4178000800be00e45e80000400010073
:10310c000200370054c420001424a0004a20800080
:10311c00fa03b2001c0020000a66dd0005218000c5
:10312c000c8262000c003a005400200007003700ab
:10313c001400200005003700240020000300370095
:10314c00340020000100370044002000e50f52003d
:10315c0046003200470037004455dd000a85460022
:10316c00ca459000ef856500e88f550003003400d8
:10317c0054c420001444a0008b0020009a42780014
:10318c0061c262001f0032005a4490000884fb00a8
:10319c004244de000884fb000900200009f0a00076
:1031ac002a4290000482fb003a4390006f036300b4
:1031bc004833dd000603720007002000463add00ac
:1031cc00ca32de00850272004632dd00040474004f
:1031dc00858474009a4278000582fb004222de004e
:1031ec001a4390007f0363004633dd000603720030
:1031fc00c232dd000002eb0004047400858474000c
:10320c00080037009a4278000582fb004222de005b
:10321c001a4490007f0464004644dd0008047200e8
:10322c0009002000e60045000b017800688057007b
:10323c0042f607000c86ea000c2188005a429000e6
:10324c00624262000300320054c420001424a00027
:10325c0008003700e88157000b4178000800be00d9
:10326c00e45e8000040001000200370034c420003a
:10327c001404a0000080fa004f06be004f05be00eb
:10328c004f04be004f03be004f02be004f01be00f4
:0c329c004f00be003600f90000400600a4
:020000040000fa
:1032a800889fbe008a1f78000004780024a92000a7
:1032b80014427800624262000000eb0023013a00e9
:1032c80024a120008040eb0094cf10001f013200a1
:1032d800250f800005f0a7008502ea0004022000ff
:1032e800848f52000300340015c0b30044ac2000a2
:1032f800054a7800d66080006333b90024002000b6
:10330800110009000403d8008004780024a12000db
:1033180021c0b30094cf10001b003c0034c3200030
:103328008042eb0094cf12001700320044ac20001a
:1033380094cf12000a003a000005eb003a568800c4
:103348000a0c780064c320001434a00044c4200090
:103358001444a000c10d070024a120000a4a7800e7
:103368000042eb00f5c12000954f12000100320029
:1033780034c0b30025a12000844a780064c320002b
:103388001444a100ca0e070024a1200016c0b300ef
:10339800944f13001f003a002551800036568000d4
:1033a80024002000110009008402d800860f500074
:1033b800030034000603e80036568800150037007d
:1033c80044568000848f54000b003400e55580007b
:1033d8008502e800e5558800860c2000868f52009b
:1033e8000c0034008002eb00e55588000402e80078
:1033f800445688000700370084f82f00e4378a0015
:103408000002eb00d4378a0025c0b30024a12000b5
:10341800054a780024a1200020c0b300944f100072
:1034280019003a00445680008904ea00848f540049
:103438000b003d00d55580008502e800d555880071
:10344800860c2000868f52000f0034008002eb00ab
:10345800d55588000402e900445688000a00370060
:103468008004eb0039568800090c780064c32000fa
:103478001424a00044c420001444a000770d0700c1
:1034880024a12000094a780024a1200031c0b300fb
:1034980094cf100012003a0044568000c4378a00c6
:1034a8003456800025518000850f520003003d00ee
:1034b8000402e8003456880009003700c45580002b
:1034c8000402e800c455880005712200850f5200e7
:1034d8000300340045c0b30024a12000054a780049
:1034e80024a1200045c0b30094cf120016003a0072
:1034f800c4378200e53782000482420044568800bf
:10350800f45580000402e800f455880005532700ac
:10351800850f52000c00360074618000d060800076
:10352800250f800000abb90011000900443bd8000a
:10353800105688000002eb00f455880055c0b3000f
:1035480024a12000054a780024a1200055c0b3001a
:1035580094cf120070003a00c4378200d537820039
:103568000482420044568800f45580000402e800b2
:10357800f455880005a62e00850f52006600360017
:103588000002eb003456880074618000d06080002f
:10359800250f800000a9b900110009004419d800be
:1035a8000001780002568800165680000602510075
:1035b800350b2000850f5200030034008416b1003b
:1035c800850f5200fdff3c00c5f42f00850f520007
:1035d80003003d008416b000850f5200fdff350042
:1035e8008403780007f0a7008703ea00a5052000f8
:1035f800858f530031003400250020001100090098
:103608000502d80000027800060242007516200064
:10361800850f5200030034008416b100850f520054
:10362800fdff3c00e00f520002003d008416b00090
:10363800feff3300f652880002538800c737820025
:10364800a705b000e5378200d6378200050343009e
:1036580025002000110009000503d800008343005d
:1036680085c12000840a530074162000950f1200ab
:1036780006003400050278007516200081e92f0045
:10368800148a4000948f1200fcff3c00c460800044
:10369800e00f520006003d0084c12000851620007e
:1036a800148a42000003eb00940f1300fbff35005f
:1036b80024a12000004aeb0017003700d43782000d
:1036c800e00f5200090032000002eb00d4378a00f4
:1036d80085f82f00e5378a00f455880045c0b30007
:1036e80024a12000054a78000b0037008004eb0075
:1036f80039568800090c780064c320001444a100de
:103708001454a00044c420001444a000d30c0700a3
:1037180024a12000094a780030568000000c780067
:103728004056800074162000840f500003003400b7
:103738008016b100840f5000fdff3c00e00f5000e0
:1037480002003d008016b000feff33004f057800f0
:083758004f04be000000060052
:020000040000fa
:10376000e84600001600000002000000b0b2ff00b2
:10377000ff0c000010000a0000ff7f00ff7f010027
:1037800000ff7f00c4ff3c0000000000000a0000b2
:10379000d200000000000000e04600000800000029
:1037a00000000000fe4600000200000000000000d3
:1037b000a80b000032000000020000000000000022
:1037c000000000000002000002010200ff020200ef
:1037d0000200ff000202010002ff010000020200dd
:1037e000020202000202000001ff020001020200c8
:1037f000ff0002000202ff000201020000000000c0
:10380000d20a00008e00000000000000400c000002
:103810000600000000000000460c0000020000004e
:103820000200000001000000380c00000800000049
:1038300000000000080c00000e0000000000000066
:10384000600b0000480000000200000001000000c2
:103850000000000000000000000000000000000068
:103860000000000000000000000000000000000058
:103870000000000000000000000000000000000048
:103880000000000000000000000000000000000038
:103890000000000000000000000000000000000028
:1038a000000000000000000000000000f60b000017
:1038b0001200000000000000240c00000a000000bc
:1038c00000000000000800000002000002000000ec
:1038d00000002100104220006330840040a5500009
:1038e000c660e7007008810029914a00a16bb10011
:1038f0008cc1ad00d1cee100eff131001210020019
:103900007332520022b552009442f70072d6620020
:1039100039931800837bb3005aa3bd00d39cc30026
:10392000fff3de00e36224004334200004011400ae
:10393000e664c70074a4440085546a00a54bb50032
:103940002885090095eee500cff5ac00c58dd500c2
:1039500053367200261116003006d70076f6660040
:103960009556b400465bb7007aa7190097388700d0
:10397000dff7fe00e79dd700bcc7c40048e558004c
:103980008668a700784008006118020028233800e4
:10399000ccc9ed00d98ee900aff9480089699900da
:1039a0000aa92b00b9f55a00d44ab7007a966a00e2
:1039b000711a50000a333a00122afd00dbdccb00fa
:1039c000bffb9e00eb799b00588b3b00bb1aab0002
:1039d000a66c87007ce44c00c55c22002c033c00f4
:1039e000600c41001caeed008ffdec00cdcddd0084
:1039f0002aad0b00bd688d00499d97007eb66e0014
:103a0000d55ef4004e133e00322e51001e700e00a3
:103a10009fffbe00efdddf00fccf1b00bf3aaf0011
:103a2000599f78008f889100a981ca00b1eba1004d
:103a30000cd12d00c14ef1006fe1800010a10000fb
:103a4000c230e3002004500025404600706760004b
:103a5000b983980093fba300dab33d00c31cd300e5
:103a60007fe35e00f3b102009012f30022d2320035
:103a700035421400527762005672ea00b5cba500b9
:103a8000a8958900856ef5004fe52c00d50dc50081
:103a9000e234c30024a0140081046600744764006b
:103aa0002454050044dba700fab7990087b89700b3
:103ab0005fe77e00f71dc7003cd7d30026f2360033
:103ac0009106b0001657660076761500463456000b
:103ad0004cd96d00c90ef9002fe9c80099e9890099
:103ae0008ab9ab00a94458006548060078276800e9
:103af000c018e10008823800a3287d00cb5cdb0001
:103b00003feb1e00fbf98b00d89bbb00ab9abb00c0
:103b1000754a54005a376a00167af1000ad01a0022
:103b2000b32a92003a2efd000fed6c00dd4dcd0062
:103b3000aabd8b00ade89d00c98d26007c076c00f6
:103b4000645c45004ca23c00832ce0001cc10c00ce
:103b50001fef3e00ff5dcf007cdf9b00afbabf00d0
:103b6000d98ff8009f176e00367e55004e745e00a8
:103b7000932eb2003ed10e00f01e0000da0b0000c2
:103b80001c00000000000000004700008000000052
:103b900000000000804700008000000000000000de
:103ba000160c00000e0000000200000000005a0089
:103bb000000000000000000000ff7f00ffff000089
:103bc0002e0c00000a0000000000000000000000b1
:020000040000fa
:103bd000e6874700889fbe008a9fbe008c9fbe007c
:103be0008e1f78000309070097090700390b0700ab
:103bf000a400200034508800500507008660a9000a
:103c00009660a8005e0c0700670c07009460a8008f
:103c1000c4a6200003000900005aeb0064c3200082
:103c2000004aeb000001eb006000b8003f0a07000b
:103c300048a020008004eb00eb0b0700030a0700fc
:103c4000e00f500002003200090c7800faff370044
:103c50000082eb00245088003d0c0700950a070005
:103c6000e400200005002000f4b79f0085bf9f00fe
:103c70000002eb0043002000728157000000250085
:103c8000110020006ff207009760a8006fe897000e
:103c9000320b070024a92000944278008042eb00f8
:103ca000054a78000402e80014437800054a7800c9
:103cb00065bf20000402e9000043eb00954f1300ac
:103cc000fdff32009443780061c3630003003a00b3
:103cd0009443780062c36300f7ff3200065180000e
:103ce000e00f5300f4ff320096528000a75280008c
:103cf000e00f5300e08f5b00efff320024a92000ab
:103d0000144278006142620004003a0024a92000b5
:103d100014427800704262000b00320024a9200097
:103d2000144278000481fb004311de006141610010
:103d3000e4c1200094407800b06080008180fb00e6
:103d4000f8050700020037008b40a9009b40a9003e
:103d500024a12000004aeb0064c320001444a10009
:103d600024a9200014427800624262000c00320054
:103d700024a920001424a100e4c1200014427800ea
:103d80000481fb006611b900cf91de000000200025
:103d90001100200041f307003d0c07000e00370022
:103da00024a920001442780064426200010032001d
:103db0005a0c070024a920001442780061426200d6
:103dc0000500320015c0b30024a12000054a780088
:103dd00064c320001444a000046f24001441780040
:103de0007137820060378200960a0700e90b0700ee
:103df000846e2400004aeb006409200034508800df
:103e00000082eb00245088000b0207008005eb00c5
:103e1000eea92000886e24006ca020008c86e900aa
:103e200029c4200089090700e00f50000a00320071
:103e30000042eb009e4f120001003200a50b07006c
:103e400004cab300044c7800008eeb00e4012000ab
:103e5000840e78000c003700c262ab000a0032000a
:103e60001904a0000043eb009e4f13000100320034
:103e7000980b0700004ceb0064092000040e78004a
:103e8000808eeb00e7ff37001904a1008043eb00b0
:103e900098cf13000600320004cab300984f1200f6
:103ea00003003200f80b07009a0b0700770a07009f
:103eb00034518000848f5500daff32003b5180007e
:103ec000946e24001445780004cab300984f120081
:103ed0000e003a00e94f5500d2ff3a009c0b070054
:103ee0007c0a07000042eb0065c32000844a78008a
:103ef000044c780064092000040e7800808eeb00ea
:103f0000843e200054378a00c6ff37000042eb0091
:103f1000984f120010003a00e64f5500070032009b
:103f2000ea4f550005003200eb4f55000300320008
:103f300004c5b300844f5500baff3a000a4c78001c
:103f4000000eeb00808eeb00843e200054378a0088
:103f5000580b0700b3ff370066c0b300984f13003b
:103f600009003200a7c0b30098cf1300060032004a
:103f7000b4c0b300984f12000300320004c5b30070
:103f8000984f1200a7ff3a00e04f550002003200a0
:103f9000e94f550006003a004e0b0700004ceb00bd
:103fa00064092000040e7800808eeb009dff37002e
:103fb000e64f550007003200ea4f55000500320079
:103fc000eb4f55000300320004c5b300844f550089
:103fd00094ff3a00b7090700843e200054378a0056
:083fe0000a4c78008fff370046
:020000040000fa
:103fe8000003be003064ab000b00320004802000e8
:103ff8008021800000026200070032003264ab00ba
:10400800050032000480200095218000050262002e
:104018000080eb00d8003a003064ab0034003a006e
:1040280003027800824078000601be000070240078
:10403800ee040700e4bd2000000aeb00045f8000e6
:10404800e20f52000c003c00155f8000e28f520026
:1040580009003c00265f8000e20f530006003c0088
:1040680007be2000840be8000782e800050ae80084
:104078000482e800060ae800f45e80006302620039
:10408800c5ff2f00872180000783620006037200a6
:1040980086218800065f8000630363004833dd00e3
:1040a800f4cf2f0080218000800362008703730013
:1040b80087218800165f80006303630097218000d2
:1040c800878262008502730095218800255f800041
:1040d800e3826200c82add009021800000026200ad
:1040e80004827200942188003064a8000000050052
:1040f80004802000852180000502620034003a0017
:1041080003027800824078000601be000071240096
:10411800b604070004be2000000aeb00f45e80002d
:10412800e20f52000c003c00155f8000e28f520045
:1041380009003c00265f8000e20f530006003c00a7
:10414800e7bd2000840be80064824300050ae8000c
:104158000482e800060ae800f45e80006302620058
:10416800c5ff2f00872180000783620006037200c5
:1041780086218800065f8000630363004833dd0002
:10418800f4cf2f0080218000800362008703730032
:1041980087218800165f80006303630097218000f1
:1041a800878262008502730095218800255f800060
:1041b800e3826200c82add009021800000026200cc
:1041c80004827200942188003164a8000000050070
:1041d8003264ab0034003a00030278008240780071
:1041e8000601be00007224008004070024be2000df
:1041f800000aeb00f45e8000e20f52000c003c0065
:10420800055f8000e28f520009003c00265f8000b5
:10421800e20f530006003c00e7bd2000840be800d5
:104228000782e800050ae80064024200060ae8007e
:10423800f45e800063026200c5ff2f0087218000c2
:10424800078362000603720086218800065f8000eb
:10425800630363004833dd00f4cf2f008021800022
:10426800800362008703730087218800165f80003f
:1042780063036300972180008782620085027300d0
:1042880095218800255f8000e3826200c82add004e
:10429800902180000002620004827200942188004c
:1042a8003264a8000000050003027800824078000c
:1042b8000601be00007324004c04070044be200021
:1042c800000aeb00f45e8000e20f52000c003c0094
:1042d800055f8000e28f520009003c00165f8000f5
:1042e800e20f530006003c00e7bd2000840be80005
:1042f8000782e800050ae8000482e800060ae800e8
:10430800f45e800063026200c5ff2f0087218000f1
:10431800078362000603720086218800065f80001a
:10432800630363004833dd00f4cf2f008021800051
:10433800800362008703730087218800165f80006e
:1043480063036300972180008782620085027300ff
:1043580095218800255f8000e3826200c82add007d
:10436800902180000002620004827200942188007b
:0c4378003364a8000000eb000000060009
:020000040000fa
:104384000600fa00889fbe008a9fbe008620a9000e
:104394000602a80035108000e1826200f41f2300a9
:1043a40005003a00780037000402e90002003a00f0
:1043b4000bff2f00430037000602ab00faff3a0060
:1043c400710037000402e90002003a001bff2f00cd
:1043d4003c0037000802ab00faff3a0035048000c5
:1043e400e2826200f41f2300050032006e003700f1
:1043f4000402e90002003a002bff2f0031003700cd
:104404008620ab00faff320067003700f40f20006b
:1044140094bf9f00a4bf9f00708057000003eb006f
:10442400f71f2300f1fd2f008620a9000662a800d3
:1044340035108000e88262000702780005003a0027
:104444005f0037000402e90002003a003bff2f003e
:104454001c0037000662ab00faff3a005800370030
:104464000402e90002003a004bff2f001500370058
:104474000682ab00faff3a00650037009fbd970043
:10448400c85ddd002fba97008b0572008620a90055
:104494000642a80035108000e4826200f41f230065
:1044a40005003a00330037000402e90002003a0034
:1044b4005bff2f00030037000642ab00faff3a000f
:1044c4002c00370007e2a900c902a90004fe2f004e
:1044d400826c200012096200cf02a8000004eb00e5
:1044e40029002000faef2f00110009000904d80068
:1044f400618260004822dd00561680008602650055
:104504008502720055168800001920000100200061
:104514007f0907000804e800f30f5400f2ff3a0093
:1045240007e2a80000192000010020007809070014
:104534008620a90004fe2f006220200012096200d8
:104544000642a80035108000e4826200f41f2300b4
:1045540005003a00320037000402e90002003a0084
:10456400ebee2e00030037000642ab00faff3a00e0
:104574002b0037000b0078004f05be004f04be002f
:104584000080fa00000006008620a900140d200017
:104594001410880045108000e1826200f41f23009b
:1045a4008cff3a008dff370004002800451080007e
:1045b400050262008085eb00b4ff3a0093ff3700e8
:1045c4008620a90002108000022878008620a90015
:1045d400060278000410a20004f0a7000402ea0016
:1045e4000402e9004f22de004522dd003210800083
:1045f4008282600085027200351088000682a8005d
:1046040035108000f08262000702780098ff3a00bb
:104614000603e800e30f530083ff3a0097ff3700d7
:10462400001920000100200039090700e8000700f4
:04463400d0ff37007c
:020000040000fa
:10463800889fbe008a9fbe008c9fbe008e1f780098
:10464800d4548000f80f200059c22000884c620022
:104658004822de000905e800044d78006450800017
:104668008985e800884d62004822de0063864400a0
:10467800044e78004450800055508000e486440081
:10468800884e62004822de0065874400044f7800a7
:10469800445080005550800040aade00cfa2de00c2
:1046a80066834400084b62004822de008602e80068
:1046b800844a780046c22000164378000680fb0032
:1046c8004400dd000080a000cf80de008901780072
:1046d80082c0b30042fe0700846e2400944c780028
:1046e80064c32000144d7800a4518000b5518000a7
:1046f8004b2bdd004522de0004027300c5aade0054
:10470800884d62004822de00044e780024c4200050
:10471800944e78000402e800144f78000402e80080
:10472800e6824400944a78000402e8000503e800a1
:10473800144b780044c22000144278000480fb0027
:104748004400dd003010b300cf80de00890178001e
:1047580082c0b30022fe070024a9200005c2b300ce
:1047680014c262002700320054c320000043eb004b
:10477800944f130023003200d552800008027800bd
:104788008901780084c96200c82ade000a0378001b
:10479800054b7800e55280000b03780004cb6200db
:1047a800c82ade000c037800054b7800f55280001b
:1047b8000d03780004cb6200c82ade000e037800df
:1047c800054b7800055380000603e80004cb62001f
:1047d800c82ade0067824100054a780054c32000d9
:1047e800004aeb0044c22000144278000480fb0019
:1047f8004400dd009010b300cf80de0082c0b3001b
:10480800f7fd07004f0778004f06be004f05be00b2
:084818004f04be000000060081
:020000040000fa
:10482000e6874700889fbe008a9fbe008c9fbe001f
:104830008e1f78000007eb002e5388004e5388002f
:1048400021e3a8006044b8000805be000dfe2f005b
:104850008c3e200084322000148a66002003a900c8
:104860002023a8004006200001002000a90807001e
:104870002023a9000002eb00030037000402e80037
:104880008c0f5200460032002003ab00fbff3200c9
:104890000518800085bf9f004619800006826600cb
:1048a0000400a000441988002003a9002023a800c8
:1048b0004006200001002000960807002023a900e0
:1048c0000c027800020037000402e90036003200d2
:1048d0002003ab00fcff320004188000f4b79f00f7
:1048e00045198000058266000410a0004419880064
:1048f0002003a9002023a80040062000010020007a
:10490000840807002023a9000002eb000300370001
:104910000402e8008c0f5200250032002003ab0097
:10492000fbff32000418800000188000f90807001f
:1049300074072000840f50001f0036000fbb970043
:104940006132b9000a0542008b854a007fb39700a7
:104950006132b9000804420089844a000e07e80069
:10496000840c2000840f5700baff3a00820c20000c
:10497000030020000a00be008fef070020538800cc
:10498000820c2000030020000800be008aef070010
:104990004053880021e3a9000000eb000700370026
:1049a0000080eb00050037000080eb0003003700bb
:1049b0000080eb0001003700e0ff2f004f07780078
:1049c0004f06be004f05be004f04be006f00b10091
:0449d00000000600dd
:020000040000fa
:1049d4008620a9000602a80035108000e18262004a
:1049e400f41f230005003a004a0037000402e900de
:1049f40002003a000040eb00000006000602ab0093
:104a0400faff3a00430037000402e90002003a00ca
:104a14000040eb00000006000802ab00faff3a0079
:104a240035048000e2826200f41f23000500320096
:104a3400400037000402e90002003a000040eb00a5
:104a4400000006008620ab00faff32003900370070
:104a54008620a900b40120001410880045108000ad
:104a6400e1826200f41f230005003a0006003700cb
:104a74000402e90002003a000040eb0000000600d6
:104a84000802ab00faff3a0035048000e2826200bb
:104a9400f41f2300050032002b0037000402e90054
:104aa40002003a000040eb00000006008620ab0044
:104ab400faff3200240037000402e90002003a0041
:104ac4000040eb00000006004710800087026300ee
:104ad400f9ff32008620a9000642a80035108000a4
:104ae400e4826200f41f230006003a0010c0b30001
:104af400000006000402e90002003a000040eb0056
:104b0400000006000642ab00faff3a0010c0b300f2
:104b1400000006008620a900040d2000141088005f
:104b240045108000e1826200f41f2300baff3a00be
:104b3400bbff370004002800451080000502620016
:104b4400c3ff3200e3ff37008620a90005002800d8
:104b54004710800087826200f41f230006002800ab
:084b6400d9ff3200dbff37002e
:020000040000fa
:104b6c00889fbe000004780081037800d461800027
:104b7c00880f52000b003d0004bab9001100090067
:104b8c00482ad80080037800d46180000491b900d1
:104b9c00110009004819d8000001780004047800bd
:104bac000e0037008402ea00850f54000b003d0014
:104bbc008802ea0004bbb90011000900453bd8008b
:104bcc0080037800d46180000491b90011000900c1
:104bdc004519d800000178000404ea00d461800073
:104bec00848f53000b00340004c2b900110009007b
:104bfc00472ad80000047800d46180000491b900e1
:104c0c00110009004719d8000001780084037800ce
:104c1c000e0037008402ea00858f53000b003d0024
:104c2c008702ea0004c4b90011000900454cd80001
:104c3c0000047800d46180000491b90011000900cf
:104c4c004519d800000178008403ea00d461800083
:104c5c00840f51000b00340004c2b900110009008c
:104c6c00422ad80000047800d461800004bbb9004b
:104c7c0011000900423bd800800378000401780041
:104c8c000e0037008402ea00850f51000b003d0036
:104c9c000201ea0004c2b90011000900422ad8003e
:104cac0000047800d461800004bbb9001100090035
:104cbc00423bd800800378000401ea00e4618000e4
:104ccc0004004400b00e880084804300c10e8800ac
:104cdc0004014100d20e88004f04be000000060003
:020000040000fa
:104cec00889fbe008a9fbe000004a8008083fb0042
:104cfc0007844300080444000943200009044400cd
:104d0c008884e800e04f5300160032003a0020007f
:104d1c000a83610068034300c219de00c519dd0077
:104d2c00030c4300820c78000004a9000004a800c6
:104d3c000183fb00060143000201410003442000f3
:104d4c00030141000a85620068054500c32add00a5
:104d5c00c52ade00c52add000509450014019800ae
:104d6c0012003700fa7f20000b0020008a01780027
:104d7c00030161004511dd00680c41008b0c7800cb
:104d8c000004a9000004a8000183fb008602430074
:104d9c0085824200024420008282420003026200ab
:104dac004522dd00840a78009b0298008541200092
:104dbc0004422000e3cf50000f00360064c15000c5
:104dcc0024422000e34f51000b00360068c1500014
:104ddc00a541200044422000e34f5100060036005c
:104dec00ecc0500064422000e3cf500002003600bb
:104dfc008002eb0005027800e3006300c208dd00ce
:104e0c00f20020008110dd000181ea001401610034
:104e1c00010a7100e24f500008003e006702630077
:104e2c0004024200300020000400dd000080ea0093
:104e3c0015006000843bdd00870a70001000200024
:104e4c000600dd001424b7000004a9004f05be00c5
:084e5c004f04be000000060037
:020000040000fa
:104e6400889fbe008a9fbe008c9fbe0088c320001e
:104e74008044eb00094578000df023006bc420004a
:104e84009cc320000a4c7800d421ef00f06180001c
:104e940065004000cf80de001d070700e46180004c
:104ea400d40e8800da01f800d801f900d801f8001e
:104eb400d601f900c1e1a8008be0a9009be0a8009d
:104ec40074002000840e880014002000a40e8800c2
:104ed4000042eb00984f120030003a00f06180006d
:104ee400a00fb000cf80de00090707000042eb00ee
:104ef400984f120029003a0054002000a40e8800a4
:104f04000042eb00984f120024003a00f061800048
:104f1400a00fb000cf80de00fd0607000042eb00ca
:104f2400984f12001d003a0054012000a40e88007e
:104f34000042eb00984f120018003a00f061800024
:104f4400a00fb000cf80de00f10607000042eb00a6
:104f5400984f120011003a00d421ef00984f12002c
:104f64000e003a00f061800065004000cf80de0052
:104f7400e70607000042eb00984f120007003a00d2
:104f8400ad0e8800984f120004003a0064c420005b
:104f9400004aeb0010c0b30009003700894d7800c7
:104fa4000042eb009c4f120004003200803e2000bf
:104fb40001002000d6060700b2ff37000040eb00d6
:104fc4004f06be004f05be004f04be0000000600a1
:020000040000fa
:104fd400889fbe008a9fbe008c9fbe000082eb00ab
:104fe400355f8000ef8f52004e003e00faff2f0025
:104ff400fbff29000b83610007002000c036dd00a1
:105004000c0020006113b80006067600878676003f
:105014008b806000610ab800c024dd000800200015
:105024006102b80004047400858474008a0f560079
:105034008b8f5e002f00320084be20001440780065
:105044008082fb004240a90012003400565f8000b9
:10505400675f80008c0f53008d8f5b002700320048
:10506400a4be20000005eb00040037005403be007a
:105074008c0f53008d8f5b00040032000a05e8009a
:10508400850f5500f9ff350002003700e10f450098
:105094001b003a00e4ff2f00e34f500021003200d0
:1050a400c22add00a4be2000050242000c8abe0014
:1050b4000045e80084be20000a4a78000a85fb0007
:1050c400cf68de00f4ff21000d026200050020001d
:1050d400c021dd00020020006162b80004017100fb
:1050e400858171004f4ade000a0078000c04070035
:1050f400030037003a002000010037000005eb00f0
:10510400305f80000002e800345f8800cf48de0092
:105114008a027800f40020000801be009002070013
:105124000002eb00040078004f06be004f05be00ed
:085134004f04be00000006005c
:020000040000fa
:10513c000002eb00240588002505800005c0a000b6
:10514c0005d0a10005e0a1002505880034058800e4
:10515c00350580000500a1006500b3003505880009
:10516c0044058800450580000580a0000590a1003d
:10517c0005a0a00045058800450580000540a0005d
:10518c000550a1000560a00045058800450580007c
:10519c000500a0000510a1000520a0004505880011
:1051ac0054058800f5cf2f005605800086826200da
:1051bc0005a0a00055058800550580000540a100fc
:1051cc000506b30055058800640588006505800058
:1051dc0005c0a00005d0a00005e0a0006505880072
:1051ec007405880084058800c5ff2f0086058000a3
:1051fc00868262000520a00085058800f5ff2c0042
:10520c00860580008682620005e0a0008505880086
:10521c0094058800a4058800f58f2f00460b20000c
:10522c00168b6200f5ff2c00a605800086826200ba
:10523c0005e0a000a5058800b4058800b505800030
:10524c000500a0000510a1000520a000b5058800f0
:10525c00d405880004068800050680000530b300dc
:10526c0005a0a1000506880014068800150680001c
:10527c0005c0a00005d0a00005e0a0001506880020
:10528c0024068800340688004406880081e0a900c2
:04529c000000060008
:020000040000fa
:1052a0003600f800809fbe00829fbe00849fbe0033
:1052b000869fbe00240f800035c320000043eb0012
:1052c000954f13001c003200856180000503ea0041
:1052d000860f520002003500850f52001600340080
:1052e0007661800005035300860f520004003500ec
:1052f0007661800005034300860f52000e003400e3
:10530000766180000603ea0005035300860f520011
:10531000040035007661800086825200850f5200bd
:105320000500340064c320001404a00044c420001d
:105330001444a000cb050700c4608000d45288004c
:10534000250f8000e552880015c0b30054c320002b
:10535000054a780005802000060f800086826200e2
:105360000082eb00010032000002eb00240f8800f5
:1053700015c0b30034c32000054a780044c32000a0
:105380008042eb0094cf12000b003a00050f800022
:10539000cb2ade00e182620014618000848f52001b
:1053a00005003a0064c320001434a00044c4200067
:1053b0001444a000ab050700040f80004b22de0060
:1053c0006102620014618800260f80000661880077
:1053d00044c32000004aeb008b40a9004f03be00ed
:1053e0004f02be004f01be004f00be003600f90064
:0453f0000040060073
:020000040000fa
:1053f400889fbe00e00f5100e08f590022003d005d
:10540400f5c3b3008543610026002000863bdd0020
:10541400d0429000e3c2620087c2720055409800f7
:10542400c61cde00ca1add004614de0008847200c1
:10543400f5ff20008882620025409800c82ade001b
:105444003044900007cfb3008743640085c27300e3
:1054540035409800c31add00c52ade0085037800b4
:10546400f703b200063bdd00c62ade0010419000bf
:1054740007ceb3008743610085c2730015409800ce
:105484006348730017003700f57f20000281620033
:1054940002037800f603b200250020000533dd0086
:1054a4004611de009043900005ceb30085c2630030
:1054b40002c1720012409800d0429000e3c2620020
:1054c400554098008042eb0025409800b04390007e
:1054d40005cfb30085c2630035409800c5cfb30043
:1054e40005486300d04290000510a1005540980083
:1054f4006fc36000c043900005cfb30085c2630052
:1055040086c2720045409800660040000181fb009d
:10551400840078008bed07004f04be0000000600f5
:020000040000fa
:10552400889fbe000104780024c32000024a78004a
:105534000042eb0035c32000844a780045c32000b4
:10554400844a7800f48f2f00051e2000950a62001b
:10555400e1e1a900e1a1a900e00f500004003d0031
:10556400e0e1a8000000ea00706188000200370052
:10557400e0e1a9007061880074618000e06080004f
:10558400cf80de00cfa2de00048bb90000a9b900f1
:10559400060341000400b8008100430002e120003a
:1055a4000300200083ec070080618800841620003b
:1055b40004c4b900d8608800e0c1a900e301a800d0
:1055c400e2e1a800140f80000440a1000450a000f0
:1055d4000460a100140f8800140f80000490a00040
:1055e40004a0a000140f88008b40a900e421ef0060
:1055f40024c320008042eb0094cf12000900320043
:10560400e6a1ef00e041a900040f80000480a1009e
:105614000490a00004a0a000040f88009b40a800f0
:1056240009003700746180000402e900340f880027
:10563400e041a800040f80000430b30004a0a000df
:10564400040f88009b40a9004f04be000000060020
:020000040000fa
:1056540024a92000144278006142620004003a0048
:1056640024a9200014427800704262003400320001
:10567400d8010700755680007056880024a12000c8
:105684000043eb00944f1300060032006022b80080
:1056940044508800555088000000eb00605088009a
:1056a400000006004650800057508000050050005e
:1056b400cf80de000000430081804b004050880012
:1056c40051508800845680000402e8008456880003
:1056d4000040eb00f40f520025003a000002eb00fa
:1056e40084568800665080004050800051508000ed
:1056f400545680006556800004025000858258008c
:105704000603e800cfb3de000402430085824b00a9
:105714004f2bde0006024200e0824a008582d1005f
:105724000482d300645088004450800055508000a7
:10573400545688006556880010c0b3000000060067
:1057440024a9200014427800624262000040eb0069
:10575400804f520006003200b80507004050880010
:105764005150880019030700605088000040eb0086
:04577400000006002b
:020000040000fa
:10577800881f78005816800055168000541680003f
:105788004922de00614262000804d100640464001a
:10579800c72ade00e28262000544740004447400f3
:1057a80002003200e74f540007003a000044eb00c3
:1057b80084ad2000084a780024c420001444a000c6
:1057c800a60407002c00370084ad200014407800a0
:1057d800884f50002700320072c0b3000440bc005c
:1057e8000882fb000400410084ba2000644278006b
:1057f800e24f520007003a000044eb0084ad20005d
:10580800084a780024c420001464a0009304070008
:1058180019003700e14f520009003a009456800001
:10582800cfa2de00a6568000b756800006024200ce
:1058380087824a00a4568800b55688000a003700b7
:10584800e14f420008003a0094568000cfa2de00e3
:10585800a6568000b75680000402530085825b007c
:10586800a4568800b556880084ad2000084a780000
:105878000100370000447800084078004f047800a1
:045888000000060016
:020000040000fa
:10588c00846080009560800061024200e0824a00e2
:10589c008460880095608800666080007760800076
:1058ac0061034300e0834b006660880077608800ea
:1058bc0034508000e00f520003003200e10f420030
:1058cc0007003a0003003700140020001450880031
:1058dc001200370024a02000000aeb000f00370054
:1058ec003450800005002000840f5300858f5b002e
:1058fc000a0035006022b80064608800756088007a
:10590c0024a020009402780005f0a7008502ea008c
:10591c008502e900cf2ade00050a780024508000b9
:10592c00e00f520003003200e10f420007003a0082
:10593c00030037001400200004508800000006000b
:10594c0004a02000000aeb00000006002650800096
:10595c00070020008460800095608000840f530055
:10596c00858f5b000a003c006022b80084608800d0
:10597c009560880004a020009402780005f0a70030
:10598c008502ea008502e900cf2ade00050a7800cc
:04599c000000060001
:020000040000fa
:1059a0003600f800809fbe00829fbe00849fbe002c
:1059b000869fbe00881f78008860a9000004a800a8
:1059c000040022005520800005026200020032001f
:1059d00014002000d45e88000400210055208000bf
:1059e000050262000004eb00880f5200050032003f
:1059f00034c420001424a0000482e8001404a00091
:105a0000180020000480200055208000050262005c
